S021000056565F53656E736F725F4170706C69636174696F6E5F4657312E737265637E
S21400600000600020E9640000F96400001DA30000A1
S214006010000000000000000000000000000000007B
S214006020000000000000000000000000F96400000E
S2140060300000000000000000F9640000F583010085
S214006040F9640000F9640000F9640000F9640000D7
S214006050F9640000F9640000F9640000F9640000C7
S2140060609DA200008DA20000F9640000F964000003
S214006070F9640000E97C0100F97C0100F964000085
S214006080F9640000ADA20000F9640000F9640000A5
S214006090F9640000F9640000F9640000F964000087
S2140060A0F96400001DA40000F9640000F964000013
S2140060B0F9640000F9640000F964000049A30000D8
S214006400FFFFFFFFFFFFFFFFFFFFFFFFFE3FFFFF58
S21400641010B5064C2378002B07D1054B002B02D075
S214006420044800E000BF0123237010BD64E5FF1F91
S2140064300000000088E2010008B5084B002B03D0DE
S2140064400748084900E000BF07480368002B03D050
S214006450064B002B00D0984708BDC0460000000041
S21400646088E2010068E5FF1F60E5FF1F00000000EE
S214006470164B002B00D1144B9D46402292029A1ACE
S214006480924600218B460F461348144A121A13F000
S2140064906CFD0F4B002B00D098470E4B002B00D006
S2140064A098470020002104000D000D48002802D067
S2140064B00C4800E000BF13F029FD2000290008F07A
S2140064C0E3FA13F00DFDC04600000800006000204F
S2140064D0000000000000000064E5FF1F742A002092
S2140064E0000000000000000072B611F09DF911F0E7
S2140064F0E3F962B6FFF7BCFF0048004735A300008B
S214006500002934D00123002210B488422CD3012461
S2140065102407A14204D2814202D209011B01F8E7F6
S214006520E400A14204D2814202D249005B00F8E7AF
S214006530884201D3401A1A434C08A04202D3001BDB
S2140065405C0822438C08A04202D3001B9C0822430E
S214006550CC08A04202D3001BDC082243002803D04C
S2140065601B0901D00909E3E7101C10BC704700287E
S21400657001D00020C04307B4024802A14018029090
S21400658003BDC046D90000000029F0D003B5FFF7D0
S214006590B9FF0EBC4243891A1847C046002941D0AD
S2140065A010B4041C4C40A44601230022002900D548
S2140065B04942002800D5404288422CD301242407B3
S2140065C0A14204D2814202D209011B01F8E7E4008D
S2140065D0A14204D2814202D249005B00F8E7884219
S2140065E001D3401A1A434C08A04202D3001B5C0891
S2140065F022438C08A04202D3001B9C082243CC08EE
S214006600A04202D3001BDC082243002803D01B094B
S21400661001D00909E3E7101C6446002C00D540426F
S21400662010BC7047002806D003DB0020C04340089B
S21400663001E08020000607B4024802A1401802903C
S21400664003BDC046190000000029EBD003B5FFF7D4
S214006650A7FF0EBC4243891A1847C0467047C0467B
S2140066608446101C62468C46191C634600E0C046F1
S2140066701FB501F0C9FD002801D40021C8421FBD86
S21400668010B501F0F9FC4042013010BD10B501F024
S214006690BBFD002801DB002010BD012010BDC04658
S2140066A010B501F0B1FD002801DD002010BD01206D
S2140066B010BDC04610B501F029FD002801DC002001
S2140066C010BD012010BDC04610B501F01FFD00280A
S2140066D001DA002010BD012010BDC0468446081C0B
S2140066E06146FFE71FB500F0C9FA002801D4002173
S2140066F0C8421FBD10B500F04FFA4042013010BD31
S21400670010B500F0BBFA002801DB002010BD012008
S21400671010BDC04610B500F0B1FA002801DD00201B
S21400672010BD012010BDC04610B500F05FFA00286D
S21400673001DC002010BD012010BDC04610B500F0E1
S21400674055FA002801DA002010BD012010BDC04611
S214006750002B11D1002A0FD1002900D1002802D029
S2140067600021C943081C07B4024802A14018029041
S21400677003BDC046E9FEFFFF03B4684601B50298B4
S21400678000F0CAF8019B9E4602B00CBC7047C0469B
S2140067909C460304F0B51B0C17043F0C150C1E1C7E
S2140067A0041C000C7E436B4347434543FB18300CE8
S2140067B01818874202D980235B02ED18030CED18E7
S2140067C063465C434A433604360CA118000480191D
S2140067D04919F0BD0000000038B50E4B0C4A041CE9
S2140067E00D1CFFF771FF002804D1201C291C02F0A5
S2140067F04DFB38BD074B064A201C291C02F012F838
S21400680002F044FB80231B06C018F2E7C046C046D1
S214006810000000000000E04170B50E4B0C4A0D1C55
S214006820041C01F06FFDFFF7D7FF061C02F0A0FB6B
S214006830094A0A4B01F066FD021C0B1C201C291C91
S21400684001F0F0FFFFF7C8FF311C70BDC046C04620
S214006850000000000000F03D000000000000F041D5
S214006860114B70B5061C994206D9430504D0C60ADA
S214006870F302802636011E43081C02F079FB094B02
S214006880074A01F03FFD0D1C041C301C02F070FB93
S2140068902B1C221C00F0AAFD02F0F0FB70BDC046C7
S2140068A0000000000000F041FFFF1F00C046C04689
S2140068B070B5061C081C02F05BFB084B064A01F08C
S2140068C021FD0D1C041C301C02F052FB2B1C221C4C
S2140068D000F08CFD70BDC046000000000000F041D6
S2140068E0F0B583B0161C1F1C0090019102F070FCDE
S2140068F0041C0D1C221C2B1C301C391CFFF748FFE7
S214006900009A019B121A8B410899201C0A604B6062
S214006910291C03B0F0BDC046F0B583B0141C1D1C86
S2140069200090019102F030FE221C2B1C061C0F1C4E
S214006930FFF72EFF009A019B121A8B410899301C14
S2140069400A604B60391C03B0F0BDC046F0B55F4628
S21400695056464D464446F0B446024500C00F85B044
S2140069600F1C760A2D0E804641D0FF2D26D080249F
S214006970240400212643F6007F3D89468B46F90F06
S2140069807C027800640A000E00918A463CD0FF28FC
S21400699034D080231B041C430023E4007F3801937B
S2140069A0009F4346019A7B4049469C4611430F2967
S2140069B000D971E0764F89007F58BF46002E3ED141
S2140069C00822022391469B46D9E75A46341CC24603
S2140069D001920199022937D0032900D1CFE001297D
S2140069E000D0ABE053460B400022002632E0002EDB
S2140069F019D10421012289469346C0E7221C531E62
S214006A009A4102320192CBE701270197002CC7D0AA
S214006A10201C02F0BFFB431F9C4076235B420021F4
S214006A20181A0191BCE7301C02F0B4FB7625431F10
S214006A309E406D4200232D1A99469B469FE70C23E5
S214006A40032199468B469AE7D446012367463B4086
S214006A50FF2200267602D205700ADB071043184391
S214006A6005B03CBC90469946A246AB46F0BD802693
S214006A700023F603FF22EDE700220026EAE7802047
S214006A80C00306423BD0044239D1061C2643760298
S214006A90760A009BFF22DDE7281A03907601640140
S214006AA0A64239D3361B1A2201230120311C5B0073
S214006AB07600002901DBB44201D8361B0343013AB5
S214006AC0002AF3DC741EA641341C1C43039A7F3252
S214006AD0002A27DD630704D00F232340042B00D0B1
S214006AE00434270103D52B4B039A1C408032FE2A20
S214006AF00BDD012361460B40FF220026AAE7064372
S214006B007602760A4346FF22A4E7A40101236746DD
S214006B10660AD2B23B409DE7039F1B22013F0397C4
S214006B200023C2E77E23039F5B42DB1B1B2B07DD94
S214006B30012361460B40002200268BE7D446C5E7BA
S214006B40221CDA40039B9E339C40231C5C1EA34100
S214006B5013435A0704D00F221A40042A00D00433E5
S214006B605F0105D5012361460B400122002671E72F
S214006B709E01624601231340760A00226AE78026B9
S214006B80F60326437602760A5346FF2262E7C0469D
S214006B90C0DA0100FFFFFFF74A02430270B55C0A45
S214006BA0550A43004A001B0EC60F120EC90FFF2BD4
S214006BB005D0FF2A08D0012093420BD070BD0120DB
S214006BC0002CFBD1FF2AF6D10120002DF6D10120A2
S214006BD09342F3D1AC42F1D18E4205D0002BEDD1D9
S214006BE0201C441EA041E9E70020E7E74A024302D2
S214006BF0F0B55C0A550A43004A001B0EC60F120E7B
S214006C00C90FFF2B31D0FF2A34D0002B16D160429B
S214006C1060418446002A14D0002820D18E4217D125
S214006C20934215DC04DBAC4212D80020AC4212D2F0
S214006C30704270414042012318430CE0002AEDD117
S214006C4094466F426F416046002805D1002FE5D07C
S214006C50704201231843F0BD0020002FFBD14842AC
S214006C604841404201231843F5E7002CCBD00220D0
S214006C704042F0E7002DC8D0F9E7C0464A0243027A
S214006C80F0B55C0A550A43004A001B0EC60F120EEA
S214006C90C90FFF2B27D0FF2A29D0002B10D0002A9F
S214006CA015D194466F426F416046002815D00020EB
S214006CB0002F04D148424841404201231843F0BD0A
S214006CC0604260418446002AECD00028F2D18E4211
S214006CD011D0704201231843F1E7002FF7D070421D
S214006CE001231843EBE70220002CE8D1D3E702206B
S214006CF0002DE4D1D1E79342EBDC04DBAC42E8D8CC
S214006D000020AC42DBD2704270414042012318435F
S214006D10D5E7C046F0B55F4656464D464446F0B405
S214006D204402460083B00F1C640A360EC50F002EC0
S214006D3041D0FF2E22D080231B0400201C43E400F9
S214006D407F3E82468046391C4B007F02C90F7F0A71
S214006D501B0E8B463BD0FF2B34D0802212041743E9
S214006D60FF007F3B00215A466A40019252460A4382
S214006D700F2A63D87A48920082589746002C3FD153
S214006D800822022392469846DDE7019540460228EF
S214006D902AD1019A01251540FF2300246402DB0551
S214006DA0600AED071843284303B03CBC904699465A
S214006DB0A246AB46F0BD002C27D104200122824615
S214006DC09046C0E7391C4A1E91410231CBE70121AB
S214006DD0002FC8D0381C02F0DDF9431F9F407623F1
S214006DE05B421B1A0021BEE7032800D1AEE0012853
S214006DF04FD1019842461040C5B200230024CDE78B
S214006E000C2303209A4680469DE7201C02F0C2F918
S214006E107626431F9C4076420023361A9A469846AA
S214006E2091E780240025E403FF23B7E75B463C1C7C
S214006E3001938846AAE73C1C8846A7E7250C24044D
S214006E403A0C240C3F04F6183F0C211C231C7943F3
S214006E5053436F435543FB180A0C9B18B1469F4299
S214006E6002D980225202AD1809041A04090C5218DD
S214006E7094011B0C611E8C41920EED181443AD015B
S214006E802C43230105D501226308012014408144C8
S214006E901C434B467F33002B2DDD600704D00F22AA
S214006EA02240042A00D00434220103D52D4B1C4076
S214006EB04B468033FE2B17DD019B01251D40002429
S214006EC0FF236BE78020C003044208D0074206D1A8
S214006ED0041C3C436402640A5D46FF235EE70443E9
S214006EE06402640AFF2359E70198A4010125640A95
S214006EF0DBB2054052E77E235B424A469B1A1B2BB9
S214006F0005DD019B01251D400024002346E7221CC9
S214006F10DA404B469E339C40231C5C1EA341134321
S214006F20580704D00F221A40042A00D004335A010E
S214006F3005D5019B01251D40002401232EE701985D
S214006F409C010125640A0540002327E78027FF03EC
S214006F50019B3C43640201251D40640AFF231DE794
S214006F6000DB0100FFFFFFF7F8B5C20F4302440045
S214006F704D024800240E161C9B09000EC90FAD09D1
S214006F80FF2800D183E0012779408A425CD0221A8C
S214006F90002A00DC8EE000281ED1002D00D07AE00A
S214006FA0580704D00F221A40042A00D00433802148
S214006FB0C90401221940324000293AD00134FF2C7E
S214006FC000D183E09B015B0A5B02E4B2E405580A49
S214006FD0D20720431043F8BDFF2CE1D08021C9041E
S214006FE00D431B2A00DD31E1291C2020D140821AE6
S214006FF095406A1E95410D435B1B5801D0D59B01F9
S2140070009F09381C02F0C6F8421F974094425FDC86
S214007010141B1F231B1B3A1C9F40611C3B1CCA40B1
S2140070205F1EBB4113430024BAE7131EB8D10023EA
S2140070300022DB08FF2C04D1002B47D08020C003A1
S21400704003435B025B0ABFE7211A002944DD0028E0
S21400705027D0FF2CA4D08020C00405431B2900DDC8
S214007060F2E0281C2027C840791A8D40691E8D4101
S21400707005435B19590100D492E70134FF2C59D01F
S214007080734901221A400B405B08134388E7002D22
S21400709000D07AE777E7013A002AADD0FF2CA0D1DE
S2140070A07EE7002D00D17BE701390029E1D0FF2CD7
S2140070B0D4D175E7002A1BD1621CD2B2012A4BDD5F
S2140070C05F1B7A0123D5EF1A0E1C9AE700237BE795
S2140070D05F4BA41A3B4063E7002946D1611CC8B247
S2140070E0012829DDFF2924D0EB185B080C1C57E784
S2140070F0002C13D0FF2818D08024E40452422343E7
S2140071001B2A4DDD0123EB1A041C0E1C75E7002F0D
S21400711000D076E70023002200248AE7002B3BD02D
S214007120D243002AEFD0FF28EAD12B1CFF240E1CE6
S21400713036E7FF2400237CE7002C5CD1002B00D12F
S21400714080E0002D00D12BE75B19580100D427E71B
S2140071503F4A0124134023E7002C15D1002B40D1D1
S214007160002D63D02B1C0E1C1AE7002C21D1002BFF
S21400717054D0C943002904D0FF284CD01B2958DD21
S21400718001235B19041C75E7002B19D1002D48D08C
S2140071902B1C0E1CFF2403E72B1C041C0E1CFFE6F6
S2140071A01C1C2026D440B21A93405A1E93412343F7
S2140071B0A9E7FF282FD08024E40449422343DDE7D3
S2140071C0FF24002D00D1EBE68022DB08D203134219
S2140071D004D0ED08154201D12B1C0E1CDB00FF2449
S2140071E0DEE6002D00D1DBE65A1B500100D41CE77A
S2140071F0EB1A0E1CD4E6002B0DD0FF24002D00D178
S214007200CEE68022DB08D2031342E7D0ED08154213
S214007210E4D12B1CE2E72B1CFF24C1E62B1C041C2C
S214007220BEE6802300229B04FF2402E7231C0022E4
S214007230FFE61C1C2027CC40791A8B40591E8B4138
S21400724023439EE72B1CABE6012512E70125D3E678
S214007250FFFFFFFB4302590A4300C20F1B0E00202C
S2140072607E2B0DDD9D2B0CDC802000040143952B2E
S2140072700ADC9620C31AD9404842002A00D1081CCE
S2140072807047034BD018FBE7963B9940F4E7C0469F
S214007290FFFFFF7F70B5041E3CD0C60F00D04442EF
S2140072A0201C01F077FF9E23251C1B1A962B0CDC56
S2140072B0083884406402640ADBB2321C6402DB05D0
S2140072C0600AD2071843104370BD992B0ADD0522C9
S2140072D0121A211CD1400A1C011C1B318D40691E4C
S2140072E08D411543052801DD421F9540164C2C4064
S2140072F06A0704D00F221540042D00D00434610123
S2140073000CD59F23181AFF281AD0A401640AC3B20A
S214007310321CD3E7002200230024CFE7E408FF2B2B
S21400732004D06402640ADBB2321CC7E7002C04D027
S2140073308020C00304436402640A321CFF23BDE7B6
S214007340321CFF230024B9E7FFFFFFFB10B5041E25
S21400735033D001F01FFF9E231B1A962B09DC08383A
S21400736084406402640ADBB26402DB05600A1843E8
S21400737010BD992B0ADD0522121A211CD1400A1CC9
S214007380011C1B318C40611E8C411443052801DD15
S214007390421F9440144A2240610704D00F210C403B
S2140073A0042C00D0043251010AD59F23181AFF2856
S2140073B016D09401640AC3B2D6E700230024D3E7AC
S2140073C0D208FF2B03D05402640ADBB2CCE7002AB3
S2140073D006D08024E40314436402640AFF23C3E750
S2140073E0FF230024C0E7C046FFFFFFFBF8B55F465B
S2140073F0564644464D46F0B40C034D00CE0F610A87
S214007400440F2143C400180380465800400D8246AE
S214007410D80F84464046400A530F0343D0006D0DF4
S214007420371C83465246664500D1A4E0AF1A002FAB
S21400743000DC09E1002A3BD1184300D0EAE06307EC
S21400744000D187E00F232340042B00D182E0221DC9
S214007450A242A4416442802309191B040B40371C36
S214007460141C002B00D17CE0CE4B01359D4200D190
S21400747005E1CD4BE40819404807490204430B0BCD
S214007480002000211B031A0B0B0D6D051B05134373
S2140074906A08C64DFF071D4015436D006D08291C80
S2140074A03943201C3CBC90469946A246AB46F8BDE4
S2140074B0BC488542C3D0802000040343382F00DD3B
S2140074C0F0E01F2F00DD24E12020C01B1A1C81469F
S2140074D082405846F8400243944658464A469040F2
S2140074E0421E9041FB40624602431F1CA21A944271
S2140074F0A4416442C91B091B141C0B029FD54902F8
S2140075004F0A002F00D1C8E0381C01F043FE021CD1
S214007510083A1F2A00DDB5E02821091A201C9740EA
S214007520C84007439440954200DDB2E0551B691CF5
S2140075301F2900DDDCE01F22551B3B1C221CAB4034
S214007540CA40AC40651EAC411343CF401C43391CB7
S214007550002574E780231B040B40371C002B00D04B
S21400756082E7904B4807E4080443C9089D4248D088
S21400757009030B0B84E7AA1A9446002A00DC98E05D
S2140075805046002852D08748854200D157E78020D1
S214007590000403436246382A00DDFCE01F2A00DDB3
S2140075A04AE120226046101A1A1C82408246914602
S2140075B058466246D0404A4602439046584652468F
S2140075C09040421E9041424602436046C340121914
S2140075D0A242A441644259180919141C080200D496
S2140075E02DE7704B01359D4200D122E16E4B6008BD
S2140075F01940012323401C1C0443CB071C434908A5
S2140076001DE7231C0B433AD080231B030B431B03AD
S2140076101B0B35E7013F002F65D15846221A9442CE
S214007620A4416442C91A091B141C66E7584618434D
S21400763000D104E70122524294446046002800D05C
S214007640C5E058460219C3E7002F73D1681C4005F1
S214007650400D012800DCDEE05A46A21A9442BF41E3
S214007660C81A7F42C71B380200D489E05A46141B4A
S214007670A3459241591A52428F1A664641E70023A3
S2140076800024FDE6271C283887400024954200DCAD
S2140076904CE74549AD1A3940D1E6201C01F07AFD89
S2140076A0203034E75A461A43531E9A41D2B2002776
S2140076B01CE7002A00D0DCE0681C4205520D012AB7
S2140076C000DC8DE0374DA84200D1F3E05D462A1974
S2140076D0A242A441644259180919CC07520814431F
S2140076E04908051CABE62F48854200D0E6E6A6E62C
S2140076F02B1C1F3B3A1CDA40131C20296CD03F225F
S214007700551BAF403C43601E84411C4300210025AE
S21400771095E6381C20381A1CC240101C202F5DD05D
S2140077204022D71BBB405A461A43531E9A41024377
S2140077300027DBE6002D3BD01A4DAA4500D193E08A
S21400774080252D047F422943382F00DDACE01F2F13
S21400775000DD29E12025ED1B081C261CA840FE4064
S214007760AC400643651EAC413443F9405D462C1BD5
S214007770A34592415B1A5242991A55466646BCE6A4
S214007780131C3B43141C002B00D0BAE60027002134
S21400779000250024E5E65A461A43531E9A41D2B203
S2140077A0002314E7FF070000FFFF7FFFFFFF0F80A7
S2140077B00D1C254358D0FF43002F51D1041BA34571
S2140077C09241591A5242891A5546664695E6964897
S2140077D0854200D0DEE632E6002793E70023A2E7E4
S2140077E0081C2043002D00D0C4E0002800D1F7E09C
S2140077F05846184300D122E658460219A242A44130
S214007800644259180919141C0A0200D417E6874B5B
S2140078100125194013E6081C2043002D39D1002805
S21400782071D15946194303D0191C5C46664606E6D4
S21400783000270021002494E6604620381A1CC24027
S21400784060469146202800D1ACE04022121A9340B0
S2140078505A461A43531E9A414B461A430023B6E62D
S214007860714DAA4500D06FE7191C5C465546664622
S214007870E5E5002D22D10D1C254377D0D543002DFC
S21400788071D15C445C45924159185242891855465C
S214007890A4E600284DD15946194300D194E0191C9E
S2140078A05C466646604DCAE50C43611E8C41E4B2F8
S2140078B000215BE7051C0021002452E65A4DAA452C
S2140078C054D05542802210040143382D00DD81E05B
S2140078D01F2D00DD92E02022501B0A1C84468240A9
S2140078E0201CE8400243904662469440601E844155
S2140078F042461443E9405C445C459241CB185242F0
S214007900991855466AE65846184300D197E55846F2
S214007910271ABC429241C81A5242801A020266D501
S2140079205846041BA3459241591A5242891A664684
S21400793085E55846184333D04807E40804438020BA
S214007940C9080003014208D0DD08054205D15946A2
S214007950CA085C071443291C6646630FC90019430E
S214007960E400314D6BE5304A9245AED1191C5C46B9
S214007970554664E5002836D05846184310D0802572
S2140079804807E408C9082D0304432942E5D0D8086F
S2140079902842E2D15D46EA085C071443011CDCE796
S2140079A0214D4CE5002353E73D1C203D0A1CEA40D0
S2140079B0151C202F34D04026F71BB9400C43611EFF
S2140079C08C412C430021D1E680210027C903164DA7
S2140079D00024C6E50C43611E8C41E4B200218AE710
S2140079E0191C5C462BE5191C5C460F4D27E5031C4D
S2140079F03B4300D11CE7011C3C1C20E520204042F4
S214007A0040190A1CC2409046202D0BD04020451B32
S214007A10A9400C43611E8C4145462C4300216AE771
S214007A200021CBE70021F4E7FF070000FFFF7FFF00
S214007A30F0B5564644465F464D46F0B41F1C0B0351
S214007A401B0B98464B0087B0041C81465B0DC80F85
S214007A50161C9A460090002B51D06A4B9A4531D09E
S214007A608022414652030A43630FD2001A43664BF4
S214007A7090460025E20091469A44002402953B0376
S214007A801B0B9B46FD0F7B00311C5B0D019560D0E8
S214007A905C4A934254D08021584649030143720FF2
S214007AA0C9001143584A8B469B18F1000020009AE3
S214007AB004436A4003920F2C00D9ADE0534EA40055
S214007AC03459A746404604436ED1002102250824B7
S214007AD0884689460295D2E7009C0298C3464946E6
S214007AE00194022864D0032800D1ABE2012800D01C
S214007AF038E2019A002402400025A14660E0434691
S214007B0023434AD04046002800D1C0E101F042FBA2
S214007B10031E272B00DDB3E128210D1A211C083B8C
S214007B204246E9409A400D1C1543221C9A40A8463E
S214007B309146374B00251B1A9A46002402959EE76D
S214007B405A4616430320002EB1D1B3460021022028
S214007B50ADE75A4632431BD05B46002B00D18AE184
S214007B60584601F017FB272800DD7DE12822171A6A
S214007B70011C321C08395B46FA408B40171C1F4319
S214007B80331C8B40BB46191C214B1B1A00208EE76A
S214007B900027BB460021012089E700200125042498
S214007BA08046814602956AE703250C24029566E71F
S214007BB0019C0394039D01222A400024114DA146F6
S214007BC0002000212403260B0C0D2405114B344302
S214007BD02D0523402B435B005B08D207191C484643
S214007BE0114307B03CBC90469946A246AB46F0BD52
S214007BF00022802424039146024DE1E7002400255C
S214007C00A146DDE7FF07000001FCFFFF40DB0100A7
S214007C100DFCFFFFFFFF0F805546ED1A0495D84573
S214007C2000D953E100D14EE1049C0025013C4E46AC
S214007C3004944746A946584603020C0E1C43090204
S214007C40250C23041B0C0091381C291C0193FEF7FD
S214007C5057FC019983464143381C8A46291CFEF787
S214007C6093FC330C090419438A450CD95B46091961
S214007C70013B8C4200D947E18A4500D844E1022204
S214007C805242934409195346CB1A181C291C98468D
S214007C90FEF736FC071C0198291C784382464046AE
S214007CA0FEF772FC36040B04360C33439A4509D9AA
S214007CB01B197A1E9C4200D924E19A4500D821E17E
S214007CC0023F1B195E4632041743380CBB46009E23
S214007CD0009F51463F0C32045B1A5946BA46120CB6
S214007CE00F043F0C904651467A434F43414641436A
S214007CF056467043CF19160CBE19B14202D98027DA
S214007D007F02C019310C12043604120C4018B61843
S214007D10834200D2C4E000D1BEE0191A4846861B52
S214007D20B145BF417F42CF1BA74200D113E1291CBA
S214007D30381CFEF7E5FB019902904143381C894642
S214007D40291CFEF721FC330C0904194389450CD97C
S214007D50029B0919013B8C4200D9FFE0894500D8F7
S214007D60FCE0029F0919023F02974F46CF1B381CC2
S214007D70291C0597FEF7C4FB071C0198291C7843AD
S214007D8081460598FEF700FC36040904360C0E43BF
S214007D90B14509D936197B1EB44200D9E0E0B14599
S214007DA000D8DDE0023F3619029D4946761A2904BE
S214007DB039430B0457460A0C1B0C404645465843AD
S214007DC055437B437A43EB18070CDB199D4202D9D7
S214007DD080256D0252191D0C00041B04000C52195C
S214007DE01B18964235D300D1FCE001231943049EAC
S214007DF0994FF519002D00DCA1E0480709D00F23A4
S214007E000B40042B05D00B1D8B42894149428B4405
S214007E10191C5A46D20107D5904B5C46049E802713
S214007E201C40FF00A346F5198D4B9D427ADD039C4E
S214007E300122224000248B4DA146C1E68024240363
S214007E40474627424CD13C432403240B009A854DD9
S214007E50B6E63619481EB4425ED9011C9642C4D115
S214007E60009E9E42C1D1C2E7031C283B311C9940AC
S214007E708B46002188E6301C01F08CF9203072E633
S214007E80283B211C994000228846914651E6201C3A
S214007E9001F080F920303BE60021B14500D33DE7F4
S214007EA0009F5A46B944B945BF417F423F19FB1867
S214007EB0013A9C421ED2984200D97EE000D1B5E03D
S214007EC0191A93462AE7894500D8ADE6484646463D
S214007ED042467708D3074608C0071E438146AAE6EF
S214007EE05846204212D1044324032A1C240B8946F8
S214007EF05C4D65E6A342E3D1009F4F45DBD9211ACE
S214007F0093460BE7171CDDE69B46BCE63C43240382
S214007F10240B009A534D53E6B24259D800D18AE05A
S214007F20011C62E75F46C9087B07039E0B437C0281
S214007F306D0501229946240B6D0D324040E64A4BF2
S214007F40049FDB1B382B10DD039C012222400024FB
S214007F500025A14634E60121494248E7029304E79A
S214007F601F1C21E7019C039441E71F2B40DC3F4880
S214007F70049F0C1C3A1858469140DC409040204321
S214007F800A1C511E8A41011C11435A46DA40131C32
S214007F90480709D00F220A40042A05D00A1D8A4243
S214007FA0894149425B18111C1A0234D5039C0122F0
S214007FB0224000240125A14602E6009F02214942F4
S214007FC0B9448B44B945894149420919CB18A4E6FE
S214007FD0009D881E6900A942AD416D422C193619D4
S214007FE000913AE7002B00D033E70024009437E7EF
S214007FF01F4A049C5D46121BD5402A1C202B1FD00E
S2140080001C4E5F46A3199F403B1C19434B1E9941CB
S21400801011430023BCE75A07C9080A43039F914649
S2140080205B0201221C0B3A400025C9E54E45C4D828
S2140080309346002172E6009F9F42C9D3011C0FE7BA
S2140080400023E2E7802424035F463C432403240BFA
S214008050019A8946034DB3E5FF030000FFFFFFFECC
S214008060FE070000FF07000002FCFFFF1E040000E2
S214008070E2FBFFFF3E040000F0B55F4656464D4665
S2140080804446F0B40D1C041C8046E80F81461803D5
S2140080900F03000B3F0B83B084461B480097490034
S2140080A05E00DF0F490D9246760DBB4681420CD02E
S2140080B01548864210D00120B14215D003B03CBC12
S2140080C090469946A246AB46F0BD009F0120274346
S2140080D0F4D10D488642EED1604602430120002AC4
S2140080E0ECD10120B142E9D1009B6345E6D1D045F1
S2140080F0E4D1D94506D00029E0D11C43201C441EFB
S214008100A041DBE70020D9E7FF070000F0B55F4697
S21400811056464D464446F0B4CD0FDE0FAC461D0322
S2140081202D0BB146374E0F034C00AB465D00804624
S2140081303F0B640D92466D0DB44232D0314EB542BF
S21400814035D0002C0ED1384341424141081C002D49
S2140081500BD0002919D1CC452DD0654668420123A5
S214008160184318E0002DF6D1281C59460A435342FE
S2140081705341002806D1002BEDD063465842012318
S214008180184308E00020002B05D14A4650425041D3
S2140081904042012318433CBC90469946A246AB4653
S2140081A0F0BD3E1C0643C9D002204042F3E75E46BF
S2140081B01643C6D0F8E7AC4207DC0BDA6146484205
S2140081C04841404201231843E5E7664670420123D2
S2140081D01843E0E75F450AD80ED000205F45DAD2A4
S2140081E0654668426841404201231843D3E7624629
S2140081F0504201231843CEE7D045F8D80020D0459A
S214008200EED3C8E7FF070000F0B556464D46444695
S2140082105F46F0B40D1C83B0041C0190E80F814645
S21400822018030F03000B3F0B8446354800974900A0
S2140082305E00DF0F490D9246760DB846814234D077
S2140082402F48864236D0002918D0002E1FD1341C65
S21400825067463A4353425341002C1FD00020002B60
S21400826005D142465042504140420123184303B0D4
S2140082703CBC90469946A246AB46F0BD00980443E7
S21400828060426041041C002EE2D00028E9D1C145BE
S21400829015D04F46784201231843E8E7002BF6D066
S2140082A04B46584201231843E1E7009F022027432C
S2140082B0DDD1C5E7674602201743D8D1C3E7B142F0
S2140082C004DD4A46504201231843D0E7B14207DB9B
S2140082D000986045E4D80AD0009F00206745C6D2C3
S2140082E04F4678427841404201231843BFE7019A3F
S2140082F05245D5D8019A00205245F1D3B7E7C0467B
S214008300FF070000F0B5564644465F464D46F0B4BB
S2140083101F1C0B031B0B9A464B0087B0041C8046A1
S2140083205B0DC80F161C02938146002B68D0694B64
S2140083300299994232D08022534652031A43D20001
S214008340630F1A439246644AE000891880460291F9
S214008350002400253B031B0B9B467800FB0F321CBA
S214008360400D039300D175E05A4B984269D08022A5
S214008370594652030A43730FD2001A43564B93468C
S214008380C018F200002303994E4671401C430F2C80
S21400839000D9A9E0514EA4003459A74653461C43C1
S2140083A000D087E00025AA46A84608240225D1E783
S2140083B04946022D6CD0032D00D117E2012D00D0C6
S2140083C058E10D40EDB20024A9460023A046002047
S2140083D0002125030A0D1C052D0B1205404B2A43D0
S2140083E0134023435B004C465B08E207191C4046DB
S2140083F0114307B03CBC90469946A246AB46F0BD3A
S2140084005346234350D05346002B00D184E15046B8
S21400841000F0C0FE031E272B00DD76E128210D1A92
S214008420211C083B5246E9409A400D1C1543221C6D
S2140084309A40AA4690462B4B00241B1A029300250E
S21400844088E75B461E430323002E9CD1B3460022DA
S214008450022398E75B46334321D05846002800D1D4
S2140084604EE100F097FE272800DD42E128210F1A92
S214008470021C311C083A5B46F94093400F1C1F4310
S214008480331C9340BB461A1C164B181A00237AE777
S21400849001230B4000249946A0460E4B97E7002781
S2140084A0BB46002201236EE7002104248A46884644
S2140084B001254FE70C2403254CE700258024A94618
S2140084C02403A846034B82E7DA46904603991D1C10
S2140084D06FE7C046FF07000001FCFFFF80DB0100DE
S2140084E0FFFF0F800DFCFFFF029F160C381804904C
S2140084F04046070C0004000C1204120C031C5343E5
S214008500041C3D1C7443554398463B1C7343641936
S214008510A44644460293230C63449D4204D9029D1C
S214008520802464022D1902951D0C039545462C04E3
S2140085301B04240C1C1905945C46230C051C58438C
S2140085402404240C8446381C604365435F438146FC
S214008550CC44280C6044BB46814502D980277F0264
S214008560BB442D04070C2D0C000440195546BC4690
S2140085702F04E3448446280C3D0C2F1C5743B84672
S2140085802F1C77434243B94647463F0C9144BA46B0
S214008590D14446434A4502D980225202B6184F4675
S2140085A03A0CB6183A0447463F043F0CB8462F1C10
S2140085B067435D434443584365190190380C2D18B2
S2140085C04244B846AC4204D9019880235B02C018E6
S2140085D00190039C029F201C6044C0196045A44182
S2140085E047466442A4462B043C049946240C4C445B
S2140085F0A046D8448018C246E2449042924157466C
S21400860052429146F219E245BF417F424B46BC4674
S214008610D845BF41D4187F4263461F432D0C7F19AF
S214008620B24292414C45AD4152426D421543019EC5
S2140086307D19AB19E20D5B02059F134342023A43D4
S2140086409A46531E9A41C30D101C184364022043D9
S21400865080465046C0010DD5454601225646049C2C
S2140086606B082A401A43F30701341A437608049429
S2140086709046B246049E634FF319002B61DD4046D8
S21400868040070BD00F2244462240042A06D042461A
S2140086900432424580414042824490465546ED01B0
S2140086A007D5594B5646049F80201E40C000B24650
S2140086B03B18564A934200DDEAE644465546E20831
S2140086C06807104301226C025B050A408046240BB3
S2140086D05B0D91467BE6DA4690461D1C69E68024D3
S2140086E02403574627421CD13C432403240B484B03
S2140086F06DE6031C283B311C99408B460022C3E6DE
S214008700301C00F047FD2030ADE6283B211C994088
S21400871000228A4690468EE6201C00F03BFD203064
S21400872078E65846204207D1044303992403240BD5
S21400873089469046364B4AE63C432403240B344B8A
S21400874045E6344B049E9B1B382B06DD01230B406D
S21400875000249946A046002339E61F2B25DC049CFE
S2140087602D4D46466019524644468640DC408240BF
S2140087705746301C2243DF40441EA04102433B1CA8
S214008780540709D00F201040042805D0101D904231
S214008790924152429B18021C1D021AD501230B401F
S2140087A000249946A046012311E61C48049C554621
S2140087B0001BC540281C202B16D0194E5746A21960
S2140087C097403A1C43461A43531E9A4102430023DD
S2140087D0D6E758075B02D2081C0B01230B40104358
S2140087E0994680460023F2E50022EBE78024240326
S2140087F050460123044319402403240B8946044BA6
S214008800E5E5C046FF030000FFFFFFFEFE07000091
S214008810FF07000002FCFFFF1E040000E2FBFFFF54
S2140088203E040000F8B55F46564644464D46F0B452
S2140088300C034D00CF0F610A440F2143C4001803F8
S214008840DE0F8046B44646465800760A530F33433A
S214008850D600D14A6D0DBA46400DB346904200D1BF
S214008860F5E06246012672409446674500D1ABE0CB
S2140088702F1A002F00DC11E100283ED1584618437D
S21400888000D0F1E0600700D197E00F232340042BCF
S21400889000D122E1221DA242A4416442802309198C
S2140088A01B04012750460B400740141C002B00D128
S2140088B079E0B94B01359D4200D10BE1B74BE40896
S2140088C019404807490204430B0B002000211B03F4
S2140088D01A0B0B0D6D051B0513436A08B04DFF07F9
S2140088E01D4015436D006D08291C3943201C3CBCF7
S2140088F090469946A246AB46F8BDA7488542C1D0E9
S214008900802000040343382F00DDFDE01F2F00DD2C
S21400891031E12020C01B1A1C5E468240FE403243D6
S21400892094465A468240101C421E9041FB406246C6
S21400893002431F1CA21A9442A4416442C91B091B8D
S214008940141C0A029ED549024F0A002F00D1D6E019
S214008950381C00F01FFC021C083A1F2A00DDC3E08A
S2140089602821231C091A9740CB401F439440954268
S21400897000DDC0E0551B691C1F2900DDEAE01F2250
S214008980551B3B1C221CAB40CA40AC40651EAC418C
S2140089901343CF401C43391C002573E780217E4DCE
S2140089A00027C90300247C4B4807E4080443C90891
S2140089B09D4250D009030B0B87E780231B04012739
S2140089C052460B40174071E72A1A9446002A00DCEC
S2140089D0A1E0002854D07048854200D152E780209C
S2140089E0000403436046382800DD0EE11F2800DD42
S2140089F057E162462020801A1E1C8640B1465E461D
S214008A00D6404A4632435E4686409046301C421E5A
S214008A109041424602436046C3401219A242A44116
S214008A20644259180919141C080200D42AE75A4B44
S214008A3001359D4200D131E1584B600819400123B1
S214008A4023401C1C0443CB071C4349081AE71E435B
S214008A5000D00AE705E7231C0B433BD080231B030B
S214008A600B431B031B0B30E7013F002F6DD15E4607
S214008A70A21B9442A4416442C91A091B141C60E755
S214008A805846184300D1FDE601267642B4446046B7
S214008A90002800D0D0E05E463219BFE7002F00D095
S214008AA080E0681C4005400D012800DCE8E05A46DE
S214008AB0A21A9442BF41C81A7F42C71B3E0200D486
S214008AC098E05846041BA3459241591A52428F1A01
S214008AD0E2463AE700230024F7E680231B0401273A
S214008AE056460B403740E1E6271C283887400024CE
S214008AF0954200DC3EE72949AD1A3940C2E6201C03
S214008B0000F048FB203026E75A461A43531E9A4187
S214008B10D2B200270EE7002A00D0DEE0681C460529
S214008B20760D012E00DC90E01B4DA84200D1F5E04A
S214008B305E463219A242A441644259180919CC076C
S214008B40520814434908051C9CE61348854200D089
S214008B50D9E697E62B1C1F3B3E1CDE40331C202923
S214008B606FD03F22551BAF403C43601E84411C43E0
S214008B700021002586E6381C20381E1CC640301C06
S214008B80202F60D04022D71BBB405A461A43531EA4
S214008B909A4102430027CDE6FF070000FFFF7FFF54
S214008BA0FFFF0F80002D37D0B64DA84200D18FE0D2
S214008BB080252D047F422943382F00DDA8E01F2F93
S214008BC000DD24E12025ED1B0E1CAE40B046261C21
S214008BD0FE404246AC401643651EAC413443F94065
S214008BE05A46141BA34592415B1A5242991A051C19
S214008BF0E246A6E6131C3B43141C002B00D0A4E65A
S214008C000027002100250024CDE65A461A43531EAD
S214008C109A41D2B2002300E70D1C254358D0FF43EB
S214008C20002F51D15A46141BA3459241591A52425D
S214008C30891A051CE24684E69248854200D0D1E6B1
S214008C4020E6002790E700239FE7081C2043002D1E
S214008C5000D0C2E0002800D1EFE05846184300D10B
S214008C6010E658460219A242A4416442591809194E
S214008C70141C0A0200D405E6834B0125194001E6C0
S214008C80081C2043002D38D100286FD159461943BF
S214008C9003D0191C5C46E246F4E5002700210024B8
S214008CA081E6604620381A1CC2406646101C202EFC
S214008CB000D1AAE04022921B93405A461A43531E04
S214008CC09A4102430023A8E66E4DA84200D073E7FF
S214008CD0191C5C46051CE246D4E5002D22D10D1C6D
S214008CE0254376D0D543002D70D15C445C45924137
S214008CF0591852428918051C96E600284CD1594648
S214008D00194300D14AE6191C5C46E2465D4DB9E5BA
S214008D100C43611E8C41E4B2002161E7051C002172
S214008D20002440E6574DA84253D0554280221604F0
S214008D303143382D7BDC1F2D00DD8CE02022561BB6
S214008D400A1CB446B240261CEE40324390466246A9
S214008D509440661EB44142461443E9405C445C4578
S214008D609241CB1852429918051C5DE658461843A6
S214008D7000D187E55E46A71BBC429241C81A524204
S214008D80801A060260D55846041BA3459241591A1C
S214008D905242891AE24675E55846184333D04807CA
S214008DA0E40804438020C9080003014208D0DD0817
S214008DB0054205D15946CA085C071443291CE246F9
S214008DC0630FC9001943E4002E4D5BE52D4A90421F
S214008DD0AFD1191C5C46051C54E5002830D0584617
S214008DE0184310D080254807E408C9082D0304431B
S214008DF02942E5D0D8082842E2D15D46EA085C0759
S214008E001443011CDCE71F4D3CE5002355E73D1CE1
S214008E10203D0E1CEE40351C202F2ED04026F71B82
S214008E20B9400C43611E8C412C430021D8E60C430C
S214008E30611E8C41E4B2002190E7191C5C4621E5D6
S214008E40191C5C460F4D1DE5031C3B4300D124E76F
S214008E50011C3C1C16E52026764276190A1CF240B8
S214008E609046202D0BD04026751BA9400C43611E52
S214008E708C4145462C43002170E70021D1E70021B4
S214008E80F4E7C046FF070000FFFF7FFF70B50B1C2E
S214008E90124C09030E0B5900021C490DDD0F002071
S214008EA0A14211DD0E4881420FDC802040030643BC
S214008EB00C48401A1F280BDD0B4A521AD640321CAB
S214008EC05042002D00D1101C70BD084BE818FBE77F
S214008ED0074BC240C9188E403243F1E7FE0300003C
S214008EE01D0400003304000013040000FFFFFF7F92
S214008EF0EDFBFFFFF8B5041E31D0C70F00D044428B
S214008F00201C00F047F9184D2D1A0A2819DD0B38D9
S214008F10844024036D05240B6D0D3A1C00260020AA
S214008F2000210B0D2403240B1B0523430F4C2D059A
S214008F301C402C4364006408D307211C301C1943D2
S214008F40F8BD061C1536231CB3401E1C0B23181A2E
S214008F50C44024036D05240B6D0D3A1CDFE7002288
S214008F60002500240026DAE71E040000FFFF0F801D
S214008F7010B5041E28D000F00DF9154A121A0A285A
S214008F8015DD0B38844024035205240B520D0023B4
S214008F90002000212403181C0B0D240B1B05234363
S214008FA00C4C12051C4014436400610810BD031CE1
S214008FB01533211C99400B1C0B21081AC4402403AE
S214008FC05205240B520DE3E7002200240023DFE7BE
S214008FD01E040000FFFF0F8043001B0E5A1C4102B8
S214008FE0D2B270B54C0AC50F012A17DDE0229200F6
S214008FF06407090B9818002200231E0D221C340556
S2140090000C431B49400540082140014349004908DC
S214009010ED070B1C2B43101C191C70BD002B15D123
S214009020002C1CD0201C00F0B5F80A281ADC0B21F6
S214009030091A231CCB40191C031C15339C400D4BEE
S2140090400903181A4005090B400DD4E7002C03D07D
S2140090506407090B0848CEE707480021CBE7002045
S2140090600021C8E7011C0B398C40211C0024E6E7D0
S214009070FFFF0F8089030000FF070000F0B54B00DC
S2140090800D03420F5B0D6D0A15435A1C5205CC0F9B
S214009090C600520D012A27DD394FDA19FE2A1ADCDE
S2140090A0002A35DD8001ED00431E98412843760FE7
S2140090B03043430704D00F230340042B00D0043072
S2140090C08021C904014027D00132FF2A1DD0830128
S2140090D05B0AD1B201E0FF2100235802C905400A0D
S2140090E0E40708432043F0BD002B06D1354311D1D9
S2140090F00021002043025B0AEFE72E43EBD08020DE
S214009100ED0080042843FF22D3E7FF210023E4E795
S21400911017320DDA05200022C008D1B2FF2AE9D1A5
S2140091200028D9D08023DB0303435B025B0AD4E725
S2140091308022144912041543C91A1F290DDC124A4D
S214009140371C9B18281C9F4098403B1C5A1E934176
S2140091501843CE4030430022ABE70C4F2A1CFF1AC0
S214009160FA40171C202909D0094A98188540281C5F
S2140091703043461EB041384300229AE70020F7E706
S21400918080FCFFFF9E03000082FCFFFF7E030000C2
S214009190A2FCFFFF1C2101231B04984201D3000CF4
S2140091A010391B0A984201D3000A08391B09984255
S2140091B001D30009043902A2105C40187047C0466B
S2140091C0040302020101010100000000000000008B
S2140091D0F0B544465F4656464D46F0B41C1C85B076
S2140091E0002900DADBE00F1C0021061C8A46101C52
S2140091F0191C002C00DAC9E00196009089468046CA
S214009200002951D1B84200D871E0FFF7C3FF00280B
S21400921009D020234546311C1B1A85408740D9407B
S214009220A8460F4386404246150C13041B0C291C07
S214009230381C9B46FDF764F95B464343041C291C17
S214009240381C9946FDF7A0F9330C080418438145ED
S21400925009D94044631E804500D978E1814500D88D
S21400926075E1023C40444946411A8946081C291CBF
S214009270FDF746F95A464243071C291C48469346C2
S214009280FDF782F936040904360C0E43B34507D9B8
S21400929046447B1EB04502D8023FB34500D81F1C8B
S2140092A024042743002403E0B94211D900240027F0
S2140092B05246381C211C002A03D03B1C0021584271
S2140092C0A14105B03CBC90469946A246AB46F0BDCF
S2140092D0081CFFF75FFF041E00D0BFE0B94500D2B0
S2140092E042E1019D0099071C8D424741E0E70028B6
S2140092F004D101200021FDF703F980464046FFF720
S21400930049FF002852D1414644460B043C1B1B0C27
S214009310A3460D0C00930124291C5846FDF7F0F8CF
S214009320009F81464743291C5846FDF72DF9330C0C
S214009330090419438F4208D94B464144013B8845EE
S21400934002D88F4200D91AE19946C91B8B46081CE1
S214009350291CFDF7D5F8009B291C4343071C5846DB
S2140093600093FDF711F93604009D0904360C0E43F0
S214009370B54207D946447B1EB04502D8023FB542E7
S21400938000D81F1C49460E04374391E75246D24385
S214009390031C0C1C924600215842A1412CE70027D2
S2140093A046428F41012149428A4620E720231B1A64
S2140093B04246351C82403C1CDD40DC4087402B1C6E
S2140093C0150C3B43291C8640201C0093170490462E
S2140093D0FDF796F83F0C011C794381468B46201C0E
S2140093E0291CFDF7D1F8009C0904230C19438B4572
S2140093F00CD94B464144013B884500D9BDE08B451E
S21400940000D8BAE002225242914441445C460C1B0A
S214009410201C291C0194FDF773F8391C4143041CD9
S2140094208B460198291CFDF7AFF8009A090413042F
S2140094301B0C19438B4509D94144631E884500D946
S21400944097E08B4500D894E0023C41445B46CB1A3B
S21400945049469B460B041C4300975DE7009D20236E
S2140094601B1A4A468240DD401543391C009AD940F3
S21400947082408846311C0092D9403A1C82400B1C20
S214009480134301932F0C2B041B0C391C40460293EC
S214009490FDF736F8029A81464243391C4046934609
S2140094A0FDF772F8019A0904130C19438B450AD983
S2140094B04B464919013B8D425DD88B455BD902234B
S2140094C05B42994449195A468A1A101C391C039261
S2140094D0FDF716F8029B80464343391C03989B46CB
S2140094E0FDF752F8019A090413041B0C19438B4527
S2140094F00AD943464919013B8D4238D88B4536D99F
S21400950002235B42984449195D464D1BAB464946CB
S214009510009D0F04424617432A04120C3B042D0CF0
S2140095201B0C380C111C594342436B436843D31839
S2140095300D0C5B198C469A4202D980225202801882
S2140095401D0C401983450CD303D00024B0E61C1C28
S21400955089E665462A041B04120C9B18A6409E4208
S214009560F3D2013F0024A3E600240127A0E6984694
S214009570CAE71C1C6AE79946A5E7994646E7022211
S214009580524291444144E0E6F0B55F4656464D46A9
S2140095904446F0B40D1C85B0061C924698460290D0
S2140095A0019103921F1C141C8346A946002B59D117
S2140095B0AA4269D9101CFFF7EDFD00280AD0202327
S2140095C01B1A311CD94085400B1C2B438640844017
S2140095D09946B346250C23041B0C291C484698467E
S2140095E0FCF78EFF4646071C4643291C4846FCF7F8
S2140095F0CBFF5A460904130C19438E4209D90919A0
S2140096007B1E8C4200D957E18E4200D854E1023FBF
S2140096100919891B8946081C291CFCF771FF43465B
S2140096204343061C291C48469846FCF7ADFF5A469D
S214009630130409041B0C1943884508D90919731E1D
S2140096408C4200D936E1023E884500D832E1380423
S21400965030430027391C05B03CBC90469946A246CC
S214009660AB46F0BD019A934262D8181CFFF792FDF4
S214009670041E60D1019B9F4200D22CE1029F0399F9
S2140096808F4260410027E5E7002A04D1012000212F
S214009690FCF736FF041C201CFFF77CFD002800D0DA
S2140096A0B9E023042D1B1B0CA946260C984601275F
S2140096B0311C4846FCF724FF41464143051C8A46B8
S2140096C04846311CFCF760FF5A460804130C184342
S2140096D0824507D900196B1E844202D8824500D9FC
S2140096E010E11D1C5346C31A181C311C9A46FCF781
S2140096F007FF41464143814688465046311CFCF7E9
S21400970043FF5A46130409041B0C194388450BD91A
S2140097104B460919013B8C4200D9CFE0884500D85A
S214009720CCE002235B42994428044946084391E76B
S214009730002700208EE720231B1A42465746824009
S214009740DF401743524682400192321CDA40291C01
S214009750D9408540131C2B4302933D0C3B041B0C45
S2140097608846081C291C9A46FCF7CAFE5346434303
S2140097708146291C40469B46FCF706FF029A0904D0
S214009780130C19438B4506D94B46C919013B8F422A
S21400979000D8ABE099465A468A1A101C291C9346F4
S2140097A0FCF7AEFE53464343291C804658469A466D
S2140097B0FCF7EAFE029A090415042D0C29438A4593
S2140097C006D94346C919013B8F4200D886E0984621
S2140097D05746CF1BBA464946019F080442461043E7
S2140097E03D042D0C03043F0C1B0C020C291C594392
S2140097F055437B437A43EB180F0CDB198C469D428E
S21400980002D980277F02D2191D0C521992455FD3C8
S21400981056D000271EE720231B1A311C2F1CD940C8
S214009820DF4085400B1C84402B4386400193B346A3
S2140098302304260C1B0C381C311C9846FCF760FED3
S21400984042464243051C311C381C9146FCF79CFEE0
S214009850019F09043B0C1943894507D909196B1E5A
S2140098608C424DD889454BD9023D09194A468A1A79
S214009870101C311C9246FCF743FE43464343071C2C
S214009880311C50469946FCF77FFE019A09041304E2
S2140098901B0C1943894507D909197B1E8C422DD804
S2140098A089452BD9023F09194B46CB1A2D049946F8
S2140098B02F43FDE61E1CCAE61F1CAAE6994633E7A0
S2140098C061460A041B04120C9B18A6409E42A0D2B6
S2140098D001380027BEE600270120BBE68A4500D8EF
S2140098E075E702235B429844C91971E78B4500D897
S2140098F050E702235B429944C9194CE71F1CD3E783
S2140099001D1CB3E7023D0019ECE6C04680B500AF6B
S2140099100EF0E2F8BD4680BD80B500AF0EF094FCB8
S21400992008F03AFFFFF7F2FFBD4680BD80B500AFF6
S214009930024B1D221A80BD4680BDC046BCE4FF1FF8
S21400994090B5A9B004AF3960BB1D011C19803B1D42
S2140099501A80BB1D1B88DAB23B1C0C331A703B1DE9
S2140099601B883A1C0C32511C3A68081C111C1A1C25
S21400997010F0F2FA3B1D1B8801331A1C3C1C8F3476
S2140099800D4B391C0C3100910192FA229200029282
S2140099900120191C002200230CF078F9031C237008
S2140099A03B1C8F331B78002B01D0002300E00123E3
S2140099B0181CBD4625B090BDBCE4FF1F90B589B00D
S2140099C004AF3960BB1D011C19803B1D1A80BB1DEE
S2140099D01B88DAB23B1C0C331A703C1C0F341B4B32
S2140099E03A1C0C32009201220192FA229200029254
S2140099F00120191C002200230CF048F9031C2370D8
S214009A003B1C0F331B78002B01D000231AE03B1DB4
S214009A101A883C1C0F340D4B396800910192FA22CB
S214009A20920002920120191C002200230CF048F933
S214009A30031C23703B1C0F331B78002B01D0002324
S214009A4000E00123181CBD4605B090BDBCE4FF1F16
S214009A50B0B584B000AF0A1CBB1D011C19807B1D6D
S214009A601A707B1D1B78013B181CFFF743FA031C7A
S214009A700C1C224A2049081C111C1A1C231C0FF01F
S214009A8013F8031C0C1C3D1C0E35181C211CFCF77F
S214009A90A3FE031C2B800023BB60BB1D3A1C0E32AA
S214009AA01B88128813409BB2002B17D0BB1DBA1D13
S214009AB01288D2431A80BB1D1B880133181CFFF77F
S214009AC019FA031C0C1C181C211CFFF7D7FA031CE0
S214009AD0802212065340BB60BB6807E0BB1D1B8894
S214009AE09B059B0D181CFDF7D5FB031C181CBD46DB
S214009AF004B0B0BDC046C0460000000000000040F4
S214009B0090B58BB000AFF860B9607A603B1C1B3331
S214009B1000221A703B1C1A330A221A703B1C193397
S214009B2008221A703B1C183300221A703B1C17338D
S214009B3000221A703B1C263300221A803B1C24335A
S214009B4000221A803B1C223300221A80FFF7EEFE0A
S214009B503B1C1B330020191C0122FFF72FFF3B1C68
S214009B6018333820191C0122FFF7EAFE3B1C173376
S214009B703120191C0122FFF7E3FE3B1C1A332C2070
S214009B80191C0122FFF7DCFE3B1C19332D20191C83
S214009B900122FFF7D5FE0A200EF008FB3B1C1C3303
S214009BA03220191C0622FFF709FF3B1C1C335B788A
S214009BB01B029AB23B1C1C331B7813439AB23B1C05
S214009BC026331A803B1C1C33DB781B029AB23B1CE4
S214009BD01C339B7813439AB23B1C24331A803B1CDD
S214009BE01C335B791B029AB23B1C1C331B79134354
S214009BF09AB23B1C22331A803B1C26331B88181C47
S214009C000A21FFF725FF031C181CFFF7E5F9031CC4
S214009C100C1C181C211C3D4B3B4AFEF773FB031C17
S214009C200C1C181C211C3A4A3A4BFDF701FF031C7A
S214009C300C1C181C211CFFF721FA021CFB681A607A
S214009C403B1C24331B88181C0A21FFF701FF031C4A
S214009C50181CFFF7C1F9031C0C1C181C211C2B4BED
S214009C60294AFEF74FFB031C0C1C181C211C284A13
S214009C70284BFDF7DDFE031C0C1C181C211CFFF7EF
S214009C80FDF9021CBB681A603B1C22331B88181C9B
S214009C900A21FFF7DDFE031C181CFFF79DF9031CC5
S214009CA00C1C181C211C194B174AFEF72BFB031C17
S214009CB00C1C181C211C164A164BFDF7B9FE031C7B
S214009CC00C1C181C211CFFF7D9F9021C7B681A60B3
S214009CD03B1C193300221A703B1C19332D20191C0B
S214009CE00122FFF72DFE3B1C1A3300221A703B1C84
S214009CF01A332C20191C0122FFF722FE0023181C01
S214009D00BD460BB090BDC0460000000000001040ED
S214009D10000000000000904080B582B000AF786080
S214009D2039603B681B781A1C3B685B781B01D9B20C
S214009D3010230B40DBB21343DAB27B689A70BD4641
S214009D4002B080BD80B500AF034B0020191C0DF09B
S214009D5085FCBD4680BDC04678DF010080B500AFFB
S214009D6000200DF09FFCBD4680BDC04680B588B083
S214009D7000AF3B1C0C3301221A703B1C0C33002234
S214009D805A700023FB610023BB613B1D0020191C99
S214009D900DF0DAFB3B1D0020191C0DF033FC334A96
S214009DA03B1C0C33101C191CFFF7B6FF3B1C103372
S214009DB001221A703B1C103303225A703B1C1033CE
S214009DC00020191C0DF090FC3B1C14331B221A704B
S214009DD03B1C143300229A703B1C143300225A702A
S214009DE03B1C1433002000211A1C0DF099FC0020A7
S214009DF000210DF0B5FC002000210DF003FD031C32
S214009E00FB61002000210DF0C7FC1948F969FCF73A
S214009E1077FB031CBB61B869FDF798FA031C8A2020
S214009E20C005191CFCF792FD031C1A1C114B1A6086
S214009E301148B969FCF764FB031C1A1C0F4B1A6027
S214009E400F48B969FCF75CFB031C1A1C0D4B1A6023
S214009E503B1C0C3300221A70044A3B1C0C33101CAB
S214009E60191CFFF759FFBD4608B080BD00D007405B
S214009E7018FCE7038CE5FF1F34FDCB0284E5FF1FCB
S214009E809CFF630088E5FF1F80B584B000AF786054
S214009E900023FB607A680B4B1B68D31A0A4A5A43A6
S214009EA00A4B1B680A494B43101C191CFCF776FB2F
S214009EB0031C1922D31AFB60FB68181CBD4604B0AD
S214009EC080BDC04684E5FF1FA086010088E5FF1F11
S214009ED05406000080B584B000AF78603B1C0C339D
S214009EE01A221A703B1C0C3300229A703B1C0C334F
S214009EF000225A703B1C0C33002000211A1C0DF067
S214009F000FFC002000210DF02BFC002000210DF09E
S214009F1079FC031C1A1C0A4B1A60094B1B68181C98
S214009F20FFF7B2FF031C181CFDF7B4F9021C7B6890
S214009F301A60002000210DF02FFCBD4604B080BD45
S214009F4080E5FF1F00000000B0B594B000AFF860D9
S214009F50B9607A603B1C4E3300221A8064E09E4B48
S214009F60002000211A1C0DF0DBFB3B1C4E331B8827
S214009F70002B0ED1FA239B00181C0EF017F90020B8
S214009F8000210DF0EDFB944B002000211A1C0DF073
S214009F90C7FB002000210DF0E3FB002000210DF0A0
S214009FA031FC031C1A1C3B1C36331A80002000218F
S214009FB00DF0F2FB3B1C4E331A88884B5200391CBE
S214009FC036310988D152864B1B68181C8549FCF728
S214009FD097FA031CFA2252005343002B1DD0804BE5
S214009FE01B68181C7F49FCF78BFA031CFA225200E8
S214009FF053430A2B02D80EF089F80EE0784B1B6804
S21400A000181C7849FCF77CFA031C9BB2FA22520013
S21400A01053439BB2181C0EF089F83B1C4E331A882B
S21400A0203B1C4E3301321A803B1C4E331A886E4B53
S21400A0309A4294D9002200233A647B643B1C4E3338
S21400A04000221A8015E03B1C4E331A88634B5200E0
S21400A050D35A1C1C00231D1C3A6C7B6C12196B41D6
S21400A0603A647B643B1C4E331A883B1C4E330132E9
S21400A0701A803B1C4E331A885B4B9A42E3D9386CE5
S21400A080796CFCF7EDFB031C181C5849FCF75EFCCA
S21400A090031C3B63386BFEF79FFF031C0C1C181C4D
S21400A0A0211C484B464AFEF72DF9031C0C1C181CB5
S21400A0B0211CFEF7E3FF021CBB681A60424B434CB0
S21400A0C0BB63FC633B1C4E3300221A802BE03B1C18
S21400A0D04E331A88414B5200D35A181CFDF736F9F6
S21400A0E0031C181C396BFCF73FFF031CFB62F86A65
S21400A0F0F96AFCF70FFE031CFB62F86AFEF76CFFBA
S21400A100031C0C1CB86BF96B1A1C231CFDF76EF9AC
S21400A110031C0C1CBB63FC633B1C4E331A883B1CA5
S21400A1204E3301321A803B1C4E331A882E4B9A420D
S21400A130CDD9B86BF96B264A264BFDF779FC031C84
S21400A1400C1CBB63FC63BB6BFC6B181C211C0EF069
S21400A15063FE031C0C1CBB63FC63B86BF96B194BEA
S21400A160174AFEF7CFF8031C0C1C181C211CFEF720
S21400A17085FF021CFB681A607B681C4A1A60FB6835
S21400A1801A683B1C1433101C02211A1C05F078F8C0
S21400A190BB681A683B1C2033101C02211A1C05F0F1
S21400A1A06FF813493A1C14323B1C2033081C111C50
S21400A1B01A1C06F02FFFBD4614B0B0BDC046C04600
S21400A1C04CDF4F355E62003F0000000000000000DC
S21400A1D0000000000088B34084DF010040ECFF1F51
S21400A1E0A0E4FF1F40420F008713000000409C457C
S21400A1F010B20100C046C04680B500AFBFF34F8F17
S21400A200034B044ADA60BFF34F8FC046FDE7C046F3
S21400A21000ED00E00400FA0580B582B000AF78607B
S21400A2207A68A02301214942D150BD4602B080BDC4
S21400A23080B584B000AF786039603B68FB60FB682F
S21400A2409B681B78181C03F00BFEBD4604B080BD4F
S21400A25080B584B000AF786039603B68FB60FB680F
S21400A2605B685A1CFB685A60FB68DB685A1EFB6812
S21400A270DA60FB68DB68002B02D1034B01221A7000
S21400A280BD4604B080BDC046A426002080B500AF01
S21400A29001200CF0EDF8BD4680BDC04680B500AF8D
S21400A2A000200CF0E5F8BD4680BDC04680B500AF86
S21400A2B000200AF0EBFE05F025FBBD4680BDC0463B
S21400A2C080B584B000AF786039603B68FB60FB689F
S21400A2D09B681B78181C02F06DFEBD4604B080BD5E
S21400A2E080B584B000AF786039603B68FB60FB687F
S21400A2F05B685A1CFB685A60FB68DB685A1EFB6882
S21400A300DA60FB68DB68002B02D1034B01221A706F
S21400A310BD4604B080BDC046C024002080B500AF56
S21400A320034B181C06F076FEFFF766FFFEE7C046F6
S21400A3302CB2010080B500AF024B181C06F06AFE76
S21400A340BD4680BD38B2010080B500AF044B181C76
S21400A350FFF762FF034B181C0CF06EFDBD4680BD78
S21400A36000B004400703000080B500AF214B012277
S21400A3701A60214B181C07F0A9FD031C002B0CD0FB
S21400A3801E4B181C0CF03CFD1D4B181C06F042FE24
S21400A390194B181C07F0B2FD29E01A4B181C07F0E1
S21400A3A095FD031C002B0ED005F06CFB164B181CFD
S21400A3B00CF026FD154B181C06F02CFE114B181C35
S21400A3C007F09CFD13E0124B181C07F07FFD031CE2
S21400A3D0002B08D00F4B181C06F01CFE0C4B181C4C
S21400A3E007F08CFD03E00C4B181C06F013FEBD4670
S21400A3F080BDC04644EBFF1F0800040207030000B0
S21400A40048B2010009000502090200006CB2010012
S21400A410070003028CB20100A4B2010080B500AFB1
S21400A420BD4680BD80B500AFBD4680BD80B500AFDF
S21400A430024B181C0CF0C8FCBD4680BD140400007E
S21400A44080B500AF024B181C0CF0DAFCBD4680BD90
S21400A4501404000080B586B004AF021CFB1D1A7001
S21400A4600A4B55221A80094BFA1D009201220192CE
S21400A470FA22920002920120191C002200230BF0FF
S21400A48005FC031C181CBD4602B080BDBCE4FF1FC3
S21400A49090B589B004AF3960FB1D011C19703B1DD7
S21400A4A01A803C1C0F34FB1D1B78181CFFF7D2FFCC
S21400A4B0031C23703B1C0F331B78002B01D000239A
S21400A4C01AE03B1D1A883C1C0F340D4B396800916E
S21400A4D00192FA22920002920120191C0022002307
S21400A4E00BF0EEFB031C23703B1C0F331B78002B7A
S21400A4F001D0002300E00123181CBD4605B090BD26
S21400A500BCE4FF1F80B584B000AF78603B1C0C3302
S21400A5100820191C0222FFF7BBFF021C3B1C0E334F
S21400A5201A803B1C0E331B88002B0FD03B1C0C33B1
S21400A5301B88181CFCF70AFF031C181C0849FCF7AC
S21400A54005FA031C1A1C7B681A6002E07B6800226E
S21400A5501A603B1C0E331B88181CBD4604B080BD19
S21400A56000007A4490B59DB002AF78603960002351
S21400A5707B6600233B660223FB650EE0FB6D9B00BB
S21400A5807A68D3181B687A6ED3187B663A6E7B6E31
S21400A590D3183B66FB6D0133FB65FA6D3B680633EB
S21400A5A09A42EBD3FB6D9B007A68D3181A68796ED3
S21400A5B0FF230B409A420AD1FB6D01339B007A6859
S21400A5C0D3181A68396EFF230B409A4222D0B34B39
S21400A5D0181C06F01FFD7A6EFF231A40396EFF2303
S21400A5E00B40AF49081C111C1A1C06F013FDFB6D2E
S21400A5F09B007A68D3181A68FB6D01339B00796854
S21400A600CB181B68A749081C111C1A1C06F002FD73
S21400A61000F022FC7B6808331B68052B00D116E38C
S21400A6200A2B00D136E3012B01D000F00CFC7B682E
S21400A6300C331B68062B00D1E9E105D8022B2AD083
S21400A640032B00D17DE2F8E2322B44D0602B00D001
S21400A650F3E2954B181C06F0DDFC7B6828331A687D
S21400A6600123134004D0914B181C06F0D3FC03E0E2
S21400A6708F4B181C06F0CEFC7B682C331B68002B17
S21400A68004D08C4B181C06F0C5FCDFE28A4B181C65
S21400A69006F0C0FCDAE2894B181C06F0BBFC7B68AF
S21400A6A068331A687B686C331B681B021A437B6826
S21400A6B070331B681B041A437B6874331B681B06C5
S21400A6C013437F4A101C191C06F0A4FC7D4B181C73
S21400A6D006F0A0FCBAE27C4B181C06F09BFC7B68DC
S21400A6E028331B68794A101C191C06F093FC7B68FB
S21400A6F02C331B68012B08D002D3032B0AD00EE0A4
S21400A700734B181C06F086FC12E0724B181C06F001
S21400A71081FC0DE0704B181C06F07CFC08E07B68A2
S21400A7202C331B686D4A101C191C06F073FCC046BF
S21400A7307B6830331B68022B1BD004D8002B0ED04E
S21400A740012B11D024E0102B1DD0FF2B02D0032BA1
S21400A75014D01DE0624B181C06F05CFC21E0614B37
S21400A760181C06F057FC1CE05F4B181C06F052FC49
S21400A77017E05E4B181C06F04DFC12E05C4B181CF4
S21400A78006F048FC0DE05B4B181C06F043FC08E0A6
S21400A7907B6830331B68584A101C191C06F03AFCBC
S21400A7A0C0467B6834331B68544A101C191C06F0DC
S21400A7B031FC7B6838331B68514A101C191C06F0A4
S21400A7C029FC404B181C06F025FC0023BB65EDE079
S21400A7D04C4ABB6D101C191C06F01CFCBA6D131CF1
S21400A7E05B009B181B0148337A68D3181B68464ADF
S21400A7F0101C191C06F00EFCBA6D131C5B009B188F
S21400A8001B014C337A68D3181B68404A101C191C6D
S21400A81006F000FCBA6D131C5B009B181B0150333E
S21400A8207A68D3181B683A4A101C191C06F0F2FB0B
S21400A830BA6D131C5B009B181B0154337A68D3183F
S21400A8401B68022B1BD004D8002B0ED0012B11D076
S21400A8506CE0102B1DD0FF2B02D0032B14D065E02C
S21400A8602C4B181C06F0D6FB6FE02B4B181C06F082
S21400A870D1FB6AE0294B181C06F0CCFB65E0284BA0
S21400A880181C06F0C7FB60E0264B181C06F0C2FB3F
S21400A8905BE0254B181C06F0BDFB56E0BCB2010081
S21400A8A0D4B20100F4B2010014B3010030B30100C9
S21400A8B040B3010050B3010070B3010090B3010033
S21400A8C0A8B30100B4B30100B8B30100D0B30100CF
S21400A8D0DCB3010004B401002CB4010054B4010040
S21400A8E07CB401009CB40100BCB40100DCB40100DF
S21400A8F0FCB401001CB501003CB501005CB50100CC
S21400A9006CB5010078B501008CB5010098B5010062
S21400A910A8B50100B8B50100DCB5010000B601001D
S21400A92024B6010048B601006CB60100BA6D131CCF
S21400A9305B009B181B0154337A68D3181B68EA4ADD
S21400A940101C191C06F066FBC046BA6D131C5B0093
S21400A9509B181B0158337A68D3181B68E34A101CEF
S21400A960191C06F057FBBA6D131C5B009B181B01E5
S21400A97060337A68D3181B68DD4A101C191C06F071
S21400A98049FBBA6D131C5B009B181B016C337A687D
S21400A990D3181B68D74A101C191C06F03BFBD64B75
S21400A9A0181C06F037FBBB6D0133BB65BA6D7B68C0
S21400A9B038331B689A4200D20AE77B682C331B6840
S21400A9C01C1C7B6830331B68181C7B6838331B687C
S21400A9D0191C3A1C0832C94B00900191101C5021DA
S21400A9E01A1C231C0FF078FB3B1C0833181C02F0C3
S21400A9F0E7FFC34B181C06F00DFBC24B01221A7072
S21400AA007B682C331B68DAB2BF4B1A701EE1BF4B53
S21400AA10181C06F0FFFA7B6840331B68052B22D80B
S21400AA209A00BB4BD3181B689F46BA4B181C06F0FF
S21400AA30F1FA1DE0B84B181C06F0ECFA18E0B74B1C
S21400AA40181C06F0E7FA13E0B54B181C06F0E2FAFD
S21400AA500EE0B44B181C06F0DDFA09E0B24B181CE9
S21400AA6006F0D8FA04E0B14B181C06F0D3FAC0463C
S21400AA707B6844331B68AE4A101C191C06F0CAFAE1
S21400AA807B6878331A687B687C331B681B021A4322
S21400AA907B6880331B681B041A437B6884331B68FF
S21400AAA01B061343A34A101C191C06F0B3FA7B6856
S21400AAB0D4331B68A04A101C191C06F0ABFA8E4B48
S21400AAC0181C06F0A7FA9D4B01221A707B68783393
S21400AAD01A687B687C331B681B021A437B688033CA
S21400AAE01B681B041A437B6884331B681B061A43C7
S21400AAF0934B1A607B6878331A687B687C331B68D4
S21400AB001B021A437B6880331B681B041A437B684E
S21400AB1084331B681B0613431C1C7B68D4331B68DA
S21400AB20191C3A1C0832874B0091101C50211A1C25
S21400AB30231C0FF0D1FA3B1C0833181C02F040FF10
S21400AB4084E0814B181C06F065FA7B6828331B6886
S21400AB50052B22D89A007D4BD3181B689F466D4B59
S21400AB60181C06F057FA1DE06B4B181C06F052FA3C
S21400AB7018E06A4B181C06F04DFA13E0684B181CD8
S21400AB8006F048FA0EE0674B181C06F043FA09E098
S21400AB90654B181C06F03EFA04E0644B181C06F0E1
S21400ABA039FAC0467B682C331B68614A101C191C96
S21400ABB006F030FA7B6830331B68654A101C191C97
S21400ABC006F028FA7B6834331B68624A101C191C8E
S21400ABD006F020FA7B6838331A687B683C331B68BB
S21400ABE01B021A437B6840331B681B041A437B68AE
S21400ABF044331B681B061343574A101C191C06F0E7
S21400AC0009FA7B6848331A687B684C331B681B025A
S21400AC101A437B6850331B681B041A437B68543303
S21400AC201B681B0613434D4A101C191C06F0F2F94C
S21400AC30314B181C06F0EEF908E07B680C331B68F5
S21400AC40474A101C191C06F0E5F9C04604E17B686B
S21400AC500C331B68002B06D0012B09D1414B181C66
S21400AC6006F0D8F909E0404B181C06F0D3F904E0CA
S21400AC703E4B181C06F0CEF9C0467B6818331A689F
S21400AC807B681C331B683A49081C111C1A1C06F00A
S21400AC90C1F9E1E07B680C331B68042B00D0BCE0F4
S21400ACA0344B181C06F0B6F90023FB650EE0FB6D6E
S21400ACB006339B007A68D3181B68DAB2391C083151
S21400ACC0FB6DCB181A70FB6D0133FB65FB6D092B12
S21400ACD0EDDD294A3B1C0833101C191C06F09AF9B6
S21400ACE00023FB6559E0C04690B60100B4B60100EB
S21400ACF0C8B60100D4B60100B4B30100E0B6010046
S21400AD000CB7010090E5FF1F91E5FF1F40B701005B
S21400AD10CCDB010054B7010074B7010094B7010002
S21400AD20B4B70100D4B70100F4B7010014B80100AD
S21400AD3034B8010044B8010050B8010092E5FF1F86
S21400AD4094E5FF1F5CB8010080B80100E4DB010059
S21400AD5098B80100A8B80100B8B80100C4B801004E
S21400AD60D0B80100F8B8010008B9010018B9010010
S21400AD7034B901004CB9010060B90100FB6D243301
S21400AD809B007A68D3181B68DAB2391C0831FB6D51
S21400AD90CB181A70FB6D0133FB65FB6D1D2BEDDDCB
S21400ADA02F4A3B1C0833101C191C06F033F90023ED
S21400ADB0BB6527E00023FB6515E0FB6D191C2E31F3
S21400ADC0BA6D131C1B019B1A5B00CB189B007A689C
S21400ADD0D3181B68DAB2391C0831FB6DCB181A7011
S21400ADE0FB6D0133FB65FB6D1D2BE6DD1D49BA6D62
S21400ADF03B1C0833081C111C1A1C06F00BF9BB6D13
S21400AE000133BB65BC6D3B68283B181C1E21FBF755
S21400AE1077FB031C9C42CDD308E07B680C331B6891
S21400AE20114A101C191C06F0F5F8C0467B6818334A
S21400AE301A687B681C331B680C49081C111C1A1CFA
S21400AE4006F0E8F808E07B6808331B68084A101C20
S21400AE50191C06F0DFF8C046BD461BB090BDC046C4
S21400AE6070B9010080B9010090B9010034B9010041
S21400AE70B8B9010080B5DAB000AF3F4BB421490045
S21400AE80C919CB181A1CAF235B00101C00211A1C12
S21400AE900FF06BF80023B2225200D2191360B221D1
S21400AEA04900C9190B685A1CB2214900C9190A6021
S21400AEB0314AB4214900C9198A18B521D154B222A1
S21400AEC05200D21913685A1CB2214900C9190A60E7
S21400AED0294AB4214900C9198A186221D154B222DC
S21400AEE05200D21913685A1CB2214900C9190A60C7
S21400AEF0214AB4214900C9198A180A21D154B2221C
S21400AF005200D21913685A1CB2214900C9190A60A6
S21400AF10194AB4214900C9198A180421D154B22209
S21400AF205200D21913685A1CB2214900C9190A6086
S21400AF30114AB4214900C9198A180021D154B222F5
S21400AF405200D21913685A1CB2214900C9190A6066
S21400AF50094AB4214900C9198A180021D1543B1D59
S21400AF60181C00F0C5FE05200DF020F902F098F838
S21400AF70BD465AB080BDC0469CFEFFFF80B5DCB023
S21400AF8000AF0A1C884BB8214900C919CB18011C10
S21400AF901970864BB8204000C019C3181A70844B2D
S21400AFA0B8214900C919CB181A1CAF235B00101C26
S21400AFB000211A1C0EF0D9FF0023B6225200D21927
S21400AFC01360B6204000C01903685A1CB621490019
S21400AFD0C9190A60764AB8204000C0198218B521FF
S21400AFE0D154B6214900C9190B685A1CB620400036
S21400AFF0C01902606E4AB8214900C9198A18622130
S21400B000D154B6225200D21913685A1CB6204000FA
S21400B010C0190260664AB8214900C9198A18062173
S21400B020D154B6225200D21913685A1CB6204000DA
S21400B030C01902605E4AB8214900C9198A18012160
S21400B040D154B6225200D21913685A1CB6204000BA
S21400B050C0190260564AB8214900C9198A18082141
S21400B060D154B6225200D21913685A1CB62040009A
S21400B070C01902604E4AB8214900C9198A18002131
S21400B080D154B6225200D21913685A1CB62040007A
S21400B090C0190260464AB8214900C9198A18F02129
S21400B0A0D154B6225200D21913685A1CB62040005A
S21400B0B0C01902603E4AB8214900C9198A183A499F
S21400B0C0B8204000C01941180978D154B62149006B
S21400B0D0C9190B685A1CB6204000C0190260344AD1
S21400B0E0B8214900C9198A180021D154B622520045
S21400B0F0D21913685A1CB6204000C01902602C4AA8
S21400B100B8214900C9198A182849B8204000C01932
S21400B11041180978D154B6214900C9190B685A1C40
S21400B120B6204000C0190260214AB8214900C9195A
S21400B1308A180021D154B6225200D21913685A1C1C
S21400B140B6204000C0190260194AB8214900C91942
S21400B1508A180021D154B6225200D21913685A1CFC
S21400B160B6204000C0190260114AB8214900C9192A
S21400B1708A180021D154B6225200D21913685A1CDC
S21400B180B6204000C0190260094AB8214900C91912
S21400B1908A180021D1543B1C0C33181C00F0A8FD63
S21400B1A0BD465CB080BDC04697FEFFFF96FEFFFF23
S21400B1B09CFEFFFF80B5DAB000AF3F4BB4214900DC
S21400B1C0C919CB181A1CAF235B00101C00211A1CCF
S21400B1D00EF0CBFE0023B2225200D2191360B22129
S21400B1E04900C9190B685A1CB2214900C9190A60DE
S21400B1F0314AB4214900C9198A18B521D154B2225E
S21400B2005200D21913685A1CB2214900C9190A60A3
S21400B210294AB4214900C9198A186221D154B22298
S21400B2205200D21913685A1CB2214900C9190A6083
S21400B230214AB4214900C9198A180121D154B222E1
S21400B2405200D21913685A1CB2214900C9190A6063
S21400B250194AB4214900C9198A186021D154B2226A
S21400B2605200D21913685A1CB2214900C9190A6043
S21400B270114AB4214900C9198A180021D154B222B2
S21400B2805200D21913685A1CB2214900C9190A6023
S21400B290094AB4214900C9198A180021D1543B1D16
S21400B2A0181C00F025FD05200CF080FF01F0F8FECC
S21400B2B0BD465AB080BDC0469CFEFFFF80B5DAB0E2
S21400B2C000AF7F4BB4214900C919CB181A1CAF2315
S21400B2D05B00101C00211A1C0EF047FE0023B22251
S21400B2E05200D2191360B2214900C9190B685A1CC2
S21400B2F0B2214900C9190A60714AB4214900C91926
S21400B3008A18B521D154B2225200D21913685A1C99
S21400B310B2214900C9190A60694AB4214900C9190D
S21400B3208A186221D154B2225200D21913685A1CCC
S21400B330B2214900C9190A60614AB4214900C919F5
S21400B3408A180621D154B2225200D21913685A1C08
S21400B350B2214900C9190A60594AB4214900C919DD
S21400B3608A181621D154B2225200D21913685A1CD8
S21400B370B2214900C9190A60514AB4214900C919C5
S21400B3808A180821D154B2225200D21913685A1CC6
S21400B390B2214900C9190A60494AB4214900C919AD
S21400B3A08A180021D154B2225200D21913685A1CAE
S21400B3B0B2214900C9190A60414AB4214900C91995
S21400B3C08A180121D154B2225200D21913685A1C8D
S21400B3D0B2214900C9190A60394AB4214900C9197D
S21400B3E08A180321D154B2225200D21913685A1C6B
S21400B3F0B2214900C9190A60314AB4214900C91965
S21400B4008A180121D154B2225200D21913685A1C4C
S21400B410B2214900C9190A60294AB4214900C9194C
S21400B4208A180021D154B2225200D21913685A1C2D
S21400B430B2214900C9190A60214AB4214900C91934
S21400B4408A185121D154B2225200D21913685A1CBC
S21400B450B2214900C9190A60194AB4214900C9191C
S21400B4608A180821D154B2225200D21913685A1CE5
S21400B470B2214900C9190A60114AB4214900C91904
S21400B4808A180021D154B2225200D21913685A1CCD
S21400B490B2214900C9190A60094AB4214900C919EC
S21400B4A08A180021D1543B1D181C00F021FC0520F1
S21400B4B00CF07CFE01F0F4FDBD465AB080BDC046DF
S21400B4C09CFEFFFF80B5DAB000AF3F4BB4214900C9
S21400B4D0C919CB181A1CAF235B00101C00211A1CBC
S21400B4E00EF043FD0023B2225200D2191360B2219F
S21400B4F04900C9190B685A1CB2214900C9190A60CB
S21400B500314AB4214900C9198A18B521D154B2224A
S21400B5105200D21913685A1CB2214900C9190A6090
S21400B520294AB4214900C9198A186221D154B22285
S21400B5305200D21913685A1CB2214900C9190A6070
S21400B540214AB4214900C9198A180621D154B222C9
S21400B5505200D21913685A1CB2214900C9190A6050
S21400B560194AB4214900C9198A181621D154B222A1
S21400B5705200D21913685A1CB2214900C9190A6030
S21400B580114AB4214900C9198A180021D154B2229F
S21400B5905200D21913685A1CB2214900C9190A6010
S21400B5A0094AB4214900C9198A180021D1543B1D03
S21400B5B0181C00F09DFB05200CF0F8FD01F070FD56
S21400B5C0BD465AB080BDC0469CFEFFFF80B5DAB0CF
S21400B5D000AF3F4BB4214900C919CB181A1CAF2342
S21400B5E05B00101C00211A1C0EF0BFFC0023B222C8
S21400B5F05200D2191360B2214900C9190B685A1CAF
S21400B600B2214900C9190A60314AB4214900C91952
S21400B6108A18B521D154B2225200D21913685A1C86
S21400B620B2214900C9190A60294AB4214900C9193A
S21400B6308A186221D154B2225200D21913685A1CB9
S21400B640B2214900C9190A60214AB4214900C91922
S21400B6508A180621D154B2225200D21913685A1CF5
S21400B660B2214900C9190A60194AB4214900C9190A
S21400B6708A182421D154B2225200D21913685A1CB7
S21400B680B2214900C9190A60114AB4214900C919F2
S21400B6908A180021D154B2225200D21913685A1CBB
S21400B6A0B2214900C9190A60094AB4214900C919DA
S21400B6B08A180021D1543B1D181C00F019FB0520E8
S21400B6C00CF074FD01F0ECFCBD465AB080BDC046DF
S21400B6D09CFEFFFF90B5DBB000AFFE4BB4214900E7
S21400B6E0C919CB181A1CAF235B00101C00211A1CAA
S21400B6F00EF03BFC0023B2225200D2191360B22196
S21400B7004900C9190B685A1CB2214900C9190A60B8
S21400B710F04AB4214900C9198A18B521D154B22279
S21400B7205200D21913685A1CB2214900C9190A607E
S21400B730E84AB4214900C9198A186221D154B222B4
S21400B7405200D21913685A1CB2214900C9190A605E
S21400B750E04AB4214900C9198A180621D154B222F8
S21400B7605200D21913685A1CB2214900C9190A603E
S21400B770D84AB4214900C9198A182321D154B222C3
S21400B7805200D21913685A1CB2214900C9190A601E
S21400B790D04AB4214900C9198A182821D154B222A6
S21400B7A05200D21913685A1CB2214900C9190A60FE
S21400B7B0C84AB4214900C9198A180021D154B222B6
S21400B7C05200D21913685A1CB2214900C9190A60DE
S21400B7D0C04AB4214900C9198A180221D154B2229C
S21400B7E05200D21913685A1CB2214900C9190A60BE
S21400B7F0B84AB4214900C9198A180021D154B22286
S21400B8005200D21913685A1CB2214900C9190A609D
S21400B810B04AB4214900C9198A180021D154B2226D
S21400B8205200D21913685A1CB2214900C9190A607D
S21400B830A84AB4214900C9198A184421D154B22211
S21400B8405200D21913685A1CB2214900C9190A605D
S21400B850A04AB4214900C9198A180021D154B2223D
S21400B8605200D21913685A1CB2214900C9190A603D
S21400B870984AB4214900C9198A180021D154B22225
S21400B8805200D21913685A1CB2214900C9190A601D
S21400B890904AB4214900C9198A180021D154B2220D
S21400B8A05200D21913685A1CB2214900C9190A60FD
S21400B8B0884AB4214900C9198A180021D154B222F5
S21400B8C05200D21913685A1CB2214900C9190A60DD
S21400B8D0804AB4214900C9198A180021D154B222DD
S21400B8E05200D21913685A1CB2214900C9190A60BD
S21400B8F0784AB4214900C9198A180021D154B222C5
S21400B9005200D21913685A1CB2214900C9190A609C
S21400B910704AB4214900C9198A180021D154B222AC
S21400B9205200D21913685A1CB2214900C9190A607C
S21400B930684AB4214900C9198A180021D154B22294
S21400B9405200D21913685A1CB2214900C9190A605C
S21400B950604AB4214900C9198A180021D154B2227C
S21400B9605200D21913685A1CB2214900C9190A603C
S21400B970584AB4214900C9198A180021D154B22264
S21400B9805200D21913685A1CB2214900C9190A601C
S21400B990504AB4214900C9198A180121D154B2224B
S21400B9A05200D21913685A1CB2214900C9190A60FC
S21400B9B0484AB4214900C9198A180021D154B22234
S21400B9C05200D21913685A1CB2214900C9190A60DC
S21400B9D0404AB4214900C9198A180021D154B2221C
S21400B9E05200D21913685A1CB2214900C9190A60BC
S21400B9F0384AB4214900C9198A180021D154B22204
S21400BA005200D21913685A1CB2214900C9190A609B
S21400BA10304AB4214900C9198A180021D154B222EB
S21400BA205200D21913685A1CB2214900C9190A607B
S21400BA30284AB4214900C9198A180021D154B222D3
S21400BA405200D21913685A1CB2214900C9190A605B
S21400BA50204AB4214900C9198A180021D154B222BB
S21400BA605200D21913685A1CB2214900C9190A603B
S21400BA70184AB4214900C9198A180021D154B222A3
S21400BA805200D21913685A1CB2214900C9190A601B
S21400BA90104AB4214900C9198A180021D154B2228B
S21400BAA05200D21913685A1CB2214900C9190A60FB
S21400BAB0084AB4214900C9198A180021D154B22273
S21400BAC05200D21913685A1CB2214900C9190A60DB
S21400BAD002E0C0469CFEFFFF844AB4214900C91913
S21400BAE08A180021D154B2225200D21913685A1C67
S21400BAF0B2214900C9190A607C4AB4214900C91913
S21400BB008A180021D154B2225200D21913685A1C46
S21400BB10B2214900C9190A60744AB4214900C919FA
S21400BB208A180021D154B2225200D21913685A1C26
S21400BB30B2214900C9190A606C4AB4214900C919E2
S21400BB408A180121D154B2225200D21913685A1C05
S21400BB50B2214900C9190A60644AB4214900C919CA
S21400BB608A180021D154B2225200D21913685A1CE6
S21400BB70B2214900C9190A605C4AB4214900C919B2
S21400BB808A180021D154B2225200D2191468631CBC
S21400BB90B2214900C9190B6004F020FE031CDAB27A
S21400BBA0524BB4214900C919CB181A55B22252007B
S21400BBB0D2191468631CB2214900C9190B6004F03D
S21400BBC00DFE031C1B0ADAB2484BB4214900C91902
S21400BBD0CB181A55B2225200D21913685A1CB22139
S21400BBE04900C9190A60414AB4214900C9198A188E
S21400BBF00021D154B2225200D21913685A1CB22125
