S016000056565F4652414D5F6572617365722E73726563FC
S3151FFFE00000600020D5E0FF1F43E1FF1F95ECFF1FB8
S3151FFFE01000000000000000000000000000000000DC
S3151FFFE02000000000000000000000000047E1FF1F86
S3151FFFE030000000000000000049E1FF1F4BE1FF1F2A
S3151FFFE0404FE1FF1F57E1FF1F5FE1FF1F67E1FF1F44
S3151FFFE0506FE1FF1F77E1FF1F7FE1FF1F87E1FF1FB4
S3151FFFE0608FE1FF1F97E1FF1F9FE1FF1FA7E1FF1F24
S3151FFFE070AFE1FF1FB7E1FF1FBFE1FF1FC7E1FF1F94
S3151FFFE080CFE1FF1FD7E1FF1FDFE1FF1FE7E1FF1F04
S3151FFFE090EFE1FF1FF7E1FF1FFFE1FF1F07E2FF1F73
S3151FFFE0A00FE2FF1F17E2FF1F1FE2FF1F27E2FF1FE0
S3151FFFE0B02FE2FF1F37E2FF1F3FE2FF1F47E2FF1F50
S3151FFFE0C080340020803400200400000084340020A8
S3151FFFE0D00802000010B572B601F080FE0D4B07E077
S3151FFFE0E0186859681C000C349A6800F019F8230049
S3151FFFE0F0094A9342F4D306E018681C00083459688E
S3151FFFE10000F017F82300054A9342F5D362B604F0D1
S3151FFFE110CCFAFEE7C0E0FF1FCCE0FF1FD4E0FF1FD6
S3151FFFE12010B50023934203D210C810C10433F9E779
S3151FFFE13010BD00238B4203D2002204C00433F9E72C
S3151FFFE1407047FEE7FEE7FEE7FEE7FEE7FEE710B5D1
S3151FFFE150FFF7FCFF10BD10B5FFF7F8FF10BD10B599
S3151FFFE160FFF7F4FF10BD10B5FFF7F0FF10BD10B599
S3151FFFE170FFF7ECFF10BD10B5FFF7E8FF10BD10B599
S3151FFFE180FFF7E4FF10BD10B5FFF7E0FF10BD10B599
S3151FFFE19001F0D8FB10BD10B501F0E4FB10BD10B5A3
S3151FFFE1A0FFF7D4FF10BD10B5FFF7D0FF10BD10B599
S3151FFFE1B001F0F0FD10BD10B501F0FEFD10BD10B54D
S3151FFFE1C0FFF7C4FF10BD10B5FFF7C0FF10BD10B599
S3151FFFE1D0FFF7BCFF10BD10B5FFF7B8FF10BD10B599
S3151FFFE1E0FFF7B4FF10BD10B5FFF7B0FF10BD10B599
S3151FFFE1F0FFF7ACFF10BD10B5FFF7A8FF10BD10B599
S3151FFFE200FFF7A4FF10BD10B5FFF7A0FF10BD10B598
S3151FFFE210FFF79CFF10BD10B5FFF798FF10BD10B598
S3151FFFE220FFF794FF10BD10B5FFF790FF10BD10B598
S3151FFFE230FFF78CFF10BD10B5FFF788FF10BD10B598
S3151FFFE240FFF784FF10BD10B5FFF780FF10BDFFFF5F
S3151FFFE250FFFFFFFFFFFFFFFFFFFFFFFFFFFFFFFFAA
S3151FFFE260FFFFFFFFFFFFFFFFFFFFFFFFFFFFFFFF9A
S3151FFFE270FFFFFFFFFFFFFFFFFFFFFFFFFFFFFFFF8A
S3151FFFE280FFFFFFFFFFFFFFFFFFFFFFFFFFFFFFFF7A
S3151FFFE290FFFFFFFFFFFFFFFFFFFFFFFFFFFFFFFF6A
S3151FFFE2A0FFFFFFFFFFFFFFFFFFFFFFFFFFFFFFFF5A
S3151FFFE2B0FFFFFFFFFFFFFFFFFFFFFFFFFFFFFFFF4A
S3151FFFE2C0FFFFFFFFFFFFFFFFFFFFFFFFFFFFFFFF3A
S3151FFFE2D0FFFFFFFFFFFFFFFFFFFFFFFFFFFFFFFF2A
S3151FFFE2E0FFFFFFFFFFFFFFFFFFFFFFFFFFFFFFFF1A
S3151FFFE2F0FFFFFFFFFFFFFFFFFFFFFFFFFFFFFFFF0A
S3151FFFE300FFFFFFFFFFFFFFFFFFFFFFFFFFFFFFFFF9
S3151FFFE310FFFFFFFFFFFFFFFFFFFFFFFFFFFFFFFFE9
S3151FFFE320FFFFFFFFFFFFFFFFFFFFFFFFFFFFFFFFD9
S3151FFFE330FFFFFFFFFFFFFFFFFFFFFFFFFFFFFFFFC9
S3151FFFE340FFFFFFFFFFFFFFFFFFFFFFFFFFFFFFFFB9
S3151FFFE350FFFFFFFFFFFFFFFFFFFFFFFFFFFFFFFFA9
S3151FFFE360FFFFFFFFFFFFFFFFFFFFFFFFFFFFFFFF99
S3151FFFE370FFFFFFFFFFFFFFFFFFFFFFFFFFFFFFFF89
S3151FFFE380FFFFFFFFFFFFFFFFFFFFFFFFFFFFFFFF79
S3151FFFE390FFFFFFFFFFFFFFFFFFFFFFFFFFFFFFFF69
S3151FFFE3A0FFFFFFFFFFFFFFFFFFFFFFFFFFFFFFFF59
S3151FFFE3B0FFFFFFFFFFFFFFFFFFFFFFFFFFFFFFFF49
S3151FFFE3C0FFFFFFFFFFFFFFFFFFFFFFFFFFFFFFFF39
S3151FFFE3D0FFFFFFFFFFFFFFFFFFFFFFFFFFFFFFFF29
S3151FFFE3E0FFFFFFFFFFFFFFFFFFFFFFFFFFFFFFFF19
S3151FFFE3F0FFFFFFFFFFFFFFFFFFFFFFFFFFFFFFFF09
S3151FFFE400FFFFFFFFFFFFFFFFFFFFFFFFFE3FFFFFB9
S3151FFFE410B0B584B000AF786039607B68002B03D13D
S3151FFFE420134B180002F066F83B68002B03D1114B04
S3151FFFE430180002F05FF8104B1B68002B01D1002359
S3151FFFE44011E00E257C193A6879680C4B180004F009
S3151FFFE450FDF8030023807B191B88002B01D13B6826
S3151FFFE46001E001235B421800BD4604B0B0BDC046A4
S3151FFFE470C8290020F0290020A0340020983400204E
S3151FFFE480B0B58CB000AFB96011007B600F243B198C
S3151FFFE490021C1A700E203B180A1C1A702E23FB181B
S3151FFFE4A000221A8014217B187A681A607B18BA68B3
S3151FFFE4B05A607B1800221A727B1800225A727B1829
S3151FFFE4C03A1912789A727B180122DA727B18012287
S3151FFFE4D01A7324243B193A1812781A703B181B78A3
S3151FFFE4E0012B03D13B197A185A6021E00E23FB1823
S3151FFFE4F01B78022B04D12E23FB18374A1A8017E0ED
S3151FFFE5000E23FB181B78032B04D12E23FB18324A2D
S3151FFFE5101A800DE00E23FB181B78042B04D12E2324
S3151FFFE520FB182D4A1A8003E02E23FB182A4A1A804E
S3151FFFE5302E243B191B88284A934246D0274B1C2261
S3151FFFE5400021180004F0BCF8244B244A1A61234B00
S3151FFFE5501B6925003C192422BA181100180001F067
S3151FFFE5608DFD030023807B191B88002B03D01C4BBB
S3151FFFE570180001F0BFFF194B1B692E257C19194A7D
S3151FFFE5801100180001F0BEFD030023807B191B88B5
S3151FFFE590002B03D0144B180001F0ACFF0F4B1B6968
S3151FFFE5A02E257C19114A1100180001F0E1FD030009
S3151FFFE5B023807B191B88002B03D00D4B180001F0FE
S3151FFFE5C099FF064B1A690B4B1A602E23FB181B88E4
S3151FFFE5D01800BD460CB0B0BD2135000084340020A5
S3151FFFE5E0182A0020983400205C2A00209C34002023
S3151FFFE5F0A02A0020A03400200FB4F0B5C64600B5F0
S3151FFFE600A4B000AF002388243A19136000238C257A
S3151FFFE6107A1913603B1D00221A6004337C220021E6
S3151FFFE620180004F04DF81B4B1B68002B26D09C23AC
S3151FFFE6300822944608229046B844C4446344842162
S3151FFFE6407A181360144B3A1D791809689820082603
S3151FFFE650B4460826B046B844C4446044006803F075
S3151FFFE6604DFD03003A1913603B191A683B1D110034
S3151FFFE6701800FFF7CDFE03007A1913608C23FB18D2
S3151FFFE6801B681800BD4624B004BC9046F0BC08BCEE
S3151FFFE69004B01847A03400206D1C0020B0B59AB0F7
S3151FFFE6A000AF78613961FA60BB6000237B647B69C9
S3151FFFE6B03B643B6C5A1C3A6400221A703B691A680A
S3151FFFE6C05B68BA63FB6300220023B86BF96B03F029
S3151FFFE6D0F5F9031E07D03B6C30221A707B6C013392
S3151FFFE6E07B647B6C16E1102308229446BC4463446B
S3151FFFE6F0B86BF96B1A0002F0A3F902000B00BA649C
S3151FFFE700FB640023FB650FE0F86804F07FF8020047
S3151FFFE7100B00B86CF96C02F01DFE02000B00BA6409
S3151FFFE720FB64FB6D0133FB65FB6DBA689A42EBD841
S3151FFFE73000220023B86BF96B03F066FA031E25D080
S3151FFFE7400022764BB86CF96C03F060F802000B00E1
S3151FFFE7503A657B65B86804F065F802000B00002078
S3151FFFE7606F4902F0BBF902000B00386D796D03F09C
S3151FFFE7704BFA031E37D0B869F9690022694B03F0BC
S3151FFFE78045F802000B00BA61FB612CE00022634BC8
S3151FFFE790B86CF96C02F048FF02000B003A657B6507
S3151FFFE7A0B86804F03FF802000B0000205C4902F036
S3151FFFE7B095F902000B0011000C0080210906594034
S3151FFFE7C00D0022002B00386D796D03F0EDF9031E46
S3151FFFE7D009D0B869F9690022524B02F025FF0200E2
S3151FFFE7E00B00BA61FB610023FB654BE0F86804F081
S3151FFFE7F00DF802000B00386D796D02F06DFE0200F9
S3151FFFE8000B00BA62FB62B86AF96A03F0C1F8FB68CC
S3151FFFE8103B60DB177B603A687B6804F01BF80200DE
S3151FFFE8200B001000190004F003F802000B00386DEF
S3151FFFE830796D02F0F9FE02000B003A627B62386ABD
S3151FFFE840796A03F07DF803003B663B6E002B06DA01
S3151FFFE8503B6E3B633B6B3022D31A3B6602E03B6E3C
S3151FFFE86030333B66BA6AFB6A3A657B653B6C5A1C5B
S3151FFFE8703A643A6ED2B21A707B6C01337B64FB6DBE
S3151FFFE8800133FB65FB6DBA689A42AFD83B6C5A1CC6
S3151FFFE8903A642E221A707B6C01337B64BA69FB695B
S3151FFFE8A01000190003F04CF803007B667B6E002BEC
S3151FFFE8B02CD13B6C5A1C3A6430221A707B6C013385
S3151FFFE8C07B6426E0F968786E03F034FF03007B63F1
S3151FFFE8D07B6BFA6853437A6ED31A3B663B6E002BEC
S3151FFFE8E006DA3B6E3B633B6B3022D31A3B6602E075
S3151FFFE8F03B6E30333B667B6B7B663B6C5A1C3A64C5
S3151FFFE9003A6ED2B21A707B6C01337B647B6E002B1F
S3151FFFE910D8D17B6C1800BD461AB0B0BD0000E03FD2
S3151FFFE920000024400000F03F80B582B000AFFB1C03
S3151FFFE93000221A7003F0B2FE03F099FE03F0A7FE42
S3151FFFE94080235A00124B11001800FFF755FE00F0E7
S3151FFFE95057F8104B1800FFF74FFE00F0B1F80300F2
S3151FFFE9607B607B685A425341DAB2FB1C1A70FB1C51
S3151FFFE9701B78DBB2002B04D0074B1800FFF73CFEBA
S3151FFFE98003E0064B1800FFF737FEC046FDE7C046FC
S3151FFFE990E42A00200C2B0020302B0020582B0020B0
S3151FFFE9A080B588B002AFF860B9607A607A68802355
S3151FFFE9B05B009A4201D901231AE0FB681B0ADAB2F0
S3151FFFE9C00D4B1A70FB68DAB20B4B5A707A68B9682F
S3151FFFE9D00A4B180003F070FE7B68991C064800233C
S3151FFFE9E000930023562200F0F5F803007B617B6935
S3151FFFE9F01800BD4606B080BDA4340020A6340020F3
S3151FFFEA0090B5C5B000AF00237A1DFF3213600023F8
S3151FFFEA1086225200BA181360254B8822520094464D
S3151FFFEA20BC44634400221A600433FC2200211800F1
S3151FFFEA3003F046FE002384225200BA18136026E015
S3151FFFEA4080235A00391D862464003B191B68180052
S3151FFFEA50FFF7A6FF2200BB181B680133FF33BA1847
S3151FFFEA601360144B1800FFF7C7FD84235B00FB18C9
S3151FFFEA701B683F22134003D10F4B1800FFF7BCFD46
S3151FFFEA8084225200BB181B680133BA1813608423F4
S3151FFFEA905B00FB181B681F2BD2D9084B1800FFF70B
S3151FFFEAA0ABFD7B1DFF331B681800BD4645B090BDF0
S3151FFFEAB0F4FEFFFF842B0020882B00208C2B0020C9
S3151FFFEAC090B5C5B000AF002386225200BA18136057
S3151FFFEAD0002384225200BA181360394B8822520032
S3151FFFEAE0BA18D218374B1000190080235B001A0083
S3151FFFEAF003F0E2FD00237A1DFF3213604FE08023F0
S3151FFFEB005A003900842464003B191B68180003F060
S3151FFFEB106AFC0200862149007B181B6813437A187B
S3151FFFEB2013603B191B680133FF333A191360002328
S3151FFFEB307A1CFF32136018E0214B88225200BA1845
S3151FFFEB40D2187B1CFF331B68D3181B78002B05D0ED
S3151FFFEB50012386225200BA1813600BE07B1CFF337A
S3151FFFEB601B6801337A1CFF3213607B1CFF331B6844
S3151FFFEB70FF2BE1DD144B1800FFF73EFD7B1DFF3317
S3151FFFEB801B683F22134003D1104B1800FFF734FDBC
S3151FFFEB907B1DFF331B6801337A1DFF3213607B1DFD
S3151FFFEBA0FF331B681F2BAAD9094B1800FFF724FD3C
S3151FFFEBB086235B00FB181B681800BD4645B090BD3A
S3151FFFEBC0F0FEFFFF942B0020842B0020882B0020B4
S3151FFFEBD08C2B002080B58CB000AFF860B9603B600E
S3151FFFEBE0FB1D1A7014217B18FA1D12781A717B18D8
S3151FFFEBF000225A717B183A689A607A183823FB18D5
S3151FFFEC001B7813737B18FA681A617B18BA685A61E7
S3151FFFEC107B1800221A607B18054A1900100000F0A6
S3151FFFEC2053FD0300FB62FB6A1800BD460CB080BD97
S3151FFFEC300070064080B58CB000AFF860B9603B60CE
S3151FFFEC40FB1D1A7014217B18FA1D12781A717B1877
S3151FFFEC5001225A717B183A689A607A183823FB1873
S3151FFFEC601B7813737B18FA681A617B18BA685A6187
S3151FFFEC707B1800221A607B18054A1900100000F046
S3151FFFEC8023FD0300FB62FB6A1800BD460CB080BD67
S3151FFFEC900070064004207146084202D0EFF3098038
S3151FFFECA001E0EFF3088081690A88054B9A4200D07D
S3151FFFECB0FEE702318161202101607047C0460000D7
S3151FFFECC0ABBE000080B582B000AF7860084B1B68F3
S3151FFFECD0084A134019007B689A04C0231B031A4076
S3151FFFECE0034B0A431A60C046BD4602B080BDC046ED
S3151FFFECF000700440FFFFF3FF80B582B000AF104BDB
S3151FFFED001B78DBB21A000223134007D10C4B9B79EA
S3151FFFED10DBB29B0803221340012B0AD1084B5B78FA
S3151FFFED20DBB21A0001231A40064B9200D3587B60B1
S3151FFFED3001E000237B607B681800BD4602B080BDE3
S3151FFFED4000400640682D002080B582B000AF0C4BF7
S3151FFFED501B78DBB25BB2002B0BDA0A4B1B68002B4F
S3151FFFED6003D1094B180001F0C5FB064B1B687B60DF
S3151FFFED7001E000237B607B681800BD4602B080BDA3
S3151FFFED8000500640A8350020982C002080B582B081
S3151FFFED9000AF194B1B689B0C03221340032B1ED07E
S3151FFFEDA021D8002B02D0022B0DD01CE0FFF7CCFF82
S3151FFFEDB0020080231B029A4202D180231B0200E01E
S3151FFFEDC000237B6012E00D4B1B68002B03D10C4BFE
S3151FFFEDD0180001F08FFB094B1B687B6006E0FA23C7
S3151FFFEDE09B007B6002E000237B60C0467B681800A8
S3151FFFEDF0BD4602B080BDC04600700440AC35002042
S3151FFFEE00B82C002080B584B000AF0200FB1D1A701E
S3151FFFEE10FB1D1B78132B47D89A00274BD3181B684C
S3151FFFEE209F4600F0A7F8254A254BD3581B0F0F22E5
S3151FFFEE3013400133190003F080FC0300FB6036E02B
S3151FFFEE4000F098F81D4A1E4BD3581B0F0F22134075
S3151FFFEE500133190003F071FC0300FB60174A184BBF
S3151FFFEE60D3581B0C0722134001331900F86803F010
S3151FFFEE7064FC0300FB601AE0FFF788FF0300FB60DB
S3151FFFEE8015E0FFF761FF0300FB6010E000F030F8AD
S3151FFFEE900300FB600BE000F04FF80300FB6006E08A
S3151FFFEEA0FA239B00FB6002E00023FB60C046FB6862
S3151FFFEEB01800BD4604B080BDD82C0020007004404A
S3151FFFEEC04410000080B582B000AF786006497B68AA
S3151FFFEED05B68064A8B507B681B781800FFF7F2FEAC
S3151FFFEEE0C046BD4602B080BD0070044044100000FE
S3151FFFEEF080B582B000AF0F4B1B7ADBB25B08DAB26D
S3151FFFEF00FB1D07210A401A700A4B1B7EDAB2BB1D77
S3151FFFEF1007210A401A70FFF7EFFE0100FB1D1A7843
S3151FFFEF20BB1D1B78D318D9400B001800BD4602B076
S3151FFFEF3080BDC0460040064080B582B000AF0B4B78
S3151FFFEF401B7EDBB25BB2002B06DB084B9B79DBB26A
S3151FFFEF509B080322134002D1054B7B6001E0002370
S3151FFFEF607B607B681800BD4602B080BD004006402F
S3151FFFEF70006CDC0280B582B000AF194B9B79DBB208
S3151FFFEF809B0803221340022B15D020D8002B02D03B
S3151FFFEF90012B03D01BE0134B7B601BE0FFF7ACFE7F
S3151FFFEFA002000F4B1B7ADBB25B0807210B40DA40CF
S3151FFFEFB013007B600EE00C4B1B68002B03D10B4B22
S3151FFFEFC0180001F097FA084B1B687B6002E00023CD
S3151FFFEFD07B60C0467B681800BD4602B080BDC04639
S3151FFFEFE000400640006CDC02A8350020282D0020BB
S3151FFFEFF080B582B000AF78607B68002B03D13E4B94
S3151FFFF000180001F077FA3D4B9B79DBB29B08032271
S3151FFFF0101340012B1DD17B681B78012B19D1374B51
S3151FFFF0205B78DBB21A00012313407A68927893420A
S3151FFFF0300FD0324B1B78DBB2304A3F210B40DBB27E
S3151FFFF0401370C0462D4B9B79DBB29B0803221340DF
S3151FFFF050F8D17B68DB78DB18DBB2284A0E210B4021
S3151FFFF060DBB213727B685B79DB01DAB27B681B79D4
S3151FFFF07007210B40DBB221491343DBB20B761F4B34
S3151FFFF0805B78DBB201229343DAB27B689B7801215F
S3151FFFF0900B40DBB219491343DBB24B707B681B78FE
S3151FFFF0A09B01DAB27B685B7814491343DBB20B70A3
S3151FFFF0B0124B5B78DBB21A00042313400BD07B681D
S3151FFFF0C01B78022B07D1C0460C4B9B79DBB21A006C
S3151FFFF0D002231340F8D0C0467B681B781900074BE5
S3151FFFF0E09B79DBB29B08032213409942F4D100237D
S3151FFFF0F01800BD4602B080BD482D002000400640C7
S3151FFFF10080B586B000AFF860B9607A607B68002B68
S3151FFFF11003D1144B180001F0EDF901237B617B68C6
S3151FFFF1201B78002B0AD1FB685B697969BA68914026
S3151FFFF1300A00D2431A40FB685A610FE07B685A7870
S3151FFFF140B968FB68180003F063F9FB685A697969A8
S3151FFFF150BB6899400B001A43FB685A61C046BD4600
S3151FFFF16006B080BD702D002080B584B000AF7860DB
S3151FFFF1707B681B0C084A94466344FB60FB6819684F
S3151FFFF1807B681B041B0C01229A40FB680A431A600B
S3151FFFF190C046BD4604B080BD0070044080B584B034
S3151FFFF1A000AF78600023FB6009E00D4BFA68920001
S3151FFFF1B0D3587A689A4206D0FB680133FB60FB6817
S3151FFFF1C0012BF2D900E0C046FB68012B03D9054B83
S3151FFFF1D0180001F08FF9FB681800BD4604B080BD0B
S3151FFFF1E01C2E0020242E002080B584B000AF78602F
S3151FFFF1F039600023FB603B681022134005D07B68F4
S3151FFFF2001022DA70064BFB6005E03B6801221340B4
S3151FFFF21001D0044BFB60FB681800BD4604B080BDE0
S3151FFFF2204F0400004E04000080B584B000AF786025
S3151FFFF23039600F217B187A68D2781A700E203B1817
S3151FFFF2407A6892781A703B181B782022134004D1D4
S3151FFFF2507B181B781022134006D00A4B1B68396890
S3151FFFF2607A681000984705E0074B1B6839687A686C
S3151FFFF27010009847BFF34F8FC046C046BD4604B028
S3151FFFF28080BDC046B8350020BC35002080B586B08E
S3151FFFF29000AFF860B9607A60BB68002B03D1394BAA
S3151FFFF2A0180001F027F97B68002B03D1364B180096
S3151FFFF2B001F020F9FB681800FFF770FF0200334BC0
S3151FFFF2C09200D3581800FFF74FFFFB6800221A70F2
S3151FFFF2D0FB6800225A70FB6800229A70FB68FF22A8
S3151FFFF2E0DA70FB6800225A71FB6850229A71FB681D
S3151FFFF2F00022DA71FB689B78DBB27F221340DAB2FA
S3151FFFF300FB689A70224AFB681100180003F09CF8ED
S3151FFFF310BB6859687A68FB68180000F03BF817202E
S3151FFFF3203B18FA6892791A703B183A1812787F21A0
S3151FFFF3300A401A70BB685B78DB01D9B23B183A18D3
S3151FFFF34012780A431A703B183A1812780F218A430C
S3151FFFF3501A70BB681B7A0F221340D9B23B183A1893
S3151FFFF36012780A431A70FB683A1812789A71BB68AB
S3151FFFF3701B78DB01DAB2FB689A70C046BD4606B042
S3151FFFF38080BDC046582E0020802E0020142E002040
S3151FFFF3901250000080B58CB000AFF860B9607A607C
S3151FFFF3A001235B42FB620023BB6200237B620123B7
S3151FFFF3B0FB612323FB1800221A704DE0FB6A002B0B
S3151FFFF3C050D02323FB181B78FA699A401300BB61A1
S3151FFFF3D02223FB1800221A7031E02223FB181A780A
S3151FFFF3E0294B5200D35A1A00BB6953431900786839
S3151FFFF3F003F0A3F903007B61BA687B699A4203D9BD
S3151FFFF400BA687B69D31A02E07A69BB68D31A3B6174
S3151FFFF4103A69FB6A9A420CD22323FB181B78BB62FD
S3151FFFF4202223FB181B787B623B69FB623B69002B20
S3151FFFF4300BD02222BB18BA18127801321A70222358
S3151FFFF440FB181B783F2BC8D900E0C0462322BB18E9
S3151FFFF450BA18127801321A702323FB181B78022B56
S3151FFFF460ACD900E0C046BB6ADBB29B01DAB27B6A4E
S3151FFFF470DBB23F210B40DBB21343DAB2FB685A7094
S3151FFFF480C046BD460CB080BD942D002080B584B00C
S3151FFFF49000AF786008001100FB1C021C1A70BB1C12
S3151FFFF4A00A1C1A700023FB607B68180003F012F812
S3151FFFF4B00300BB60BB682022134002D0134BFB60C7
S3151FFFF4C01EE07B689B78DBB230221343DAB27B6880
S3151FFFF4D09A70C0467B681B7BDBB21A000123134061
S3151FFFF4E0F8D0FB1C1B78DB18DAB2BB1C1B78012B71
S3151FFFF4F001D1012300E000231343DAB27B681A719F
S3151FFFF500FB681800BD4604B080BDC0464C04000012
S3151FFFF51080B586B000AF786008001100FB1C021C87
S3151FFFF5201A70BB1C0A1C1A7000237B617B681800AC
S3151FFFF53002F0D0FF0300FB601323FB1806221A708D
S3151FFFF5407B689B78DBB21A002023134006D1FB682A
S3151FFFF5502022134002D0204B7B6138E00B217B1802
S3151FFFF5607A6852781A707B181B783F221340DAB2DB
S3151FFFF5707B685A707B689B78DBB214221343DAB21F
S3151FFFF5807B689A707B687A1812785A7000E0C046BB
S3151FFFF5901322BB181B78BA18591E1170002BF6D1F0
S3151FFFF5A0C0467B681B7BDBB21A0001231340F8D0D2
S3151FFFF5B0FB1C1B78DB18DAB2BB1C1B78012B01D196
S3151FFFF5C0012300E000231343DAB27B681A717B69BC
S3151FFFF5D01800BD4606B080BD4C04000080B586B03E
S3151FFFF5E000AFF860B9607A603B6000237B6113232D
S3151FFFF5F0FB1800221A70C046FB68DB78DBB25BB2D2
S3151FFFF600002BF9DAFB680222DA70FB689B78DBB204
S3151FFFF61010221343DAB2FB689A7030E0BB685A1C9C
S3151FFFF620BA601A78FB681A71C046FB68DB78DBB2D3
S3151FFFF6301A0002231340F8D013217B18FA68D278D9
S3151FFFF6401A70FB680222DA707B181B781022134090
S3151FFFF65004D0FB681022DA70194B7B611323FB184A
S3151FFFF6601B780122134007D07B68002B04D0FB6851
S3151FFFF6700122DA70134B7B617B69002B05D17B68F7
S3151FFFF6805A1E7A60002BC9D100E0C0467B69002B4A
S3151FFFF69003D13B680422134003D07B69094A934277
S3151FFFF6A008D1FB680222DA70FB68180002F0F7FE2A
S3151FFFF6B003007B617B691800BD4606B080BDC0464F
S3151FFFF6C04F0400004E04000080B58AB000AF78607B
S3151FFFF6D039603B68002B03D1964B180000F00AFFD9
S3151FFFF6E02723FB183A6852791A7000233B62924A06
S3151FFFF6F07B681100180002F0A7FEC0467B68DB7807
S3151FFFF700DBB25BB2002BF9DA3B681B7B002B07D002
S3151FFFF7103B685B79012B03D12723FB1800221A7045
S3151FFFF7203B681B680122134006D02723FB181B7853
S3151FFFF730012B1DD10423F9E03B681B6802221340EE
S3151FFFF7400BD03B6819792723FB181A787B6818009B
S3151FFFF750FFF7DEFE03003B620AE03B6819792723AA
S3151FFFF760FB181A787B681800FFF790FE03003B62B1
S3151FFFF7703B681B680122134026D13B6A002B01D031
S3151FFFF7803B6AD3E0C0467B68DB78DBB21A000223F5
S3151FFFF7901340F8D07B68DB78DBB21A007B68110059
S3151FFFF7A01800FFF721FD03003B623B6A002B0BD0BE
S3151FFFF7B03B6A624A934205D1614B3B627B681800E5
S3151FFFF7C002F06DFE3B6AB1E03B681B7B002B00D14D
S3151FFFF7D06DE07B680222DA703B681B7B013BDAB266
S3151FFFF7E03B681A733B689A683B681B7BDB00DA40F2
S3151FFFF7F01300DAB27B681A71C0467B68DB78DBB20F
S3151FFFF8001A0002231340F8D07B68DB78DBB21A009D
S3151FFFF8107B6811001800FFF7E7FC03003B623B6A9A
S3151FFFF820002B09D03B6A454A934203D17B681800D8
S3151FFFF83002F035FE3B6A79E03B681B7B002BC8D184
S3151FFFF8403B685B79012B32D17B680222DA703B68FA
S3151FFFF85019797B6801221800FFF75AFE03003B62E6
S3151FFFF8603B6A002B01D03B6A60E0C0467B68DB78B2
S3151FFFF870DBB21A0002231340F8D07B68DB78DBB2BA
S3151FFFF8801A007B6811001800FFF7AEFC03003B62EE
S3151FFFF8903B6A002B0BD03B6A284A934205D1284B64
S3151FFFF8A03B627B68180002F0FAFD3B6A3EE03B684D
S3151FFFF8B05B79002B20D13B685B69002B11D03B681E
S3151FFFF8C01B69FB613B685B69BB613B681B687B61AF
S3151FFFF8D07B69BA69F9697868FFF780FE03003B62A7
S3151FFFF8E00AE03B681B680422134005D17B6818009A
S3151FFFF8F002F0D5FD03003B623B685B69002B14D00A
S3151FFFF9003B685B79012B10D13B681B693B613B68E9
S3151FFFF9105B69FB603B681B68BB60BB68FA6839693C
S3151FFFF920786802F0FCFD03003B623B6A1800BD4688
S3151FFFF9300AB080BDA42E0020125000004E04000006
S3151FFFF9405104000080B500AF044B1B68044A190021
S3151FFFF9501000FFF769FCC046BD4680BDB0350020CD
S3151FFFF9600060064080B500AF044B5B68044A190070
S3151FFFF9701000FFF759FCC046BD4680BDB0350020BD
S3151FFFF9800070064080B584B000AF78607B681B0CA3
S3151FFFF990084A94466344FB60FB6819687B681B042F
S3151FFFF9A01B0C01229A40FB680A431A60C046BD46DC
S3151FFFF9B004B080BD0070044080B584B000AF78608E
S3151FFFF9C00023FB6009E00D4BFA689200D3587A6853
S3151FFFF9D09A4206D0FB680133FB60FB68012BF2D905
S3151FFFF9E000E0C046FB68012B03D9054B180000F04A
S3151FFFF9F081FDFB681800BD4604B080BDC42E0020E4
S3151FFFFA00D42E002080B58CB000AFF860B9607A6045
S3151FFFFA10BB68002B03D1A04B180000F06BFDBB6822
S3151FFFFA201B68002B03D19D4B180000F063FD0023BD
S3151FFFFA30FB62BB681B68FB612323FB1800221A703E
S3151FFFFA402623FB1800221A802223FB1804221A7072
S3151FFFFA5055E07A6813009B009B185B001800BB6874
S3151FFFFA601B682222BA1812785343190002F065FE4B
S3151FFFFA70030005330A21180002F05FFE03001A0078
S3151FFFFA8024217B181A800A00BB181B88002B02D162
S3151FFFFA90BB1801221A802223FB181B782422BA18AF
S3151FFFFAA0128853431900786802F047FE03007B61F3
S3151FFFFAB0BB681B687A699A4204D9BB681B687A6957
S3151FFFFAC0D31A03E0BB681A687B69D31A3B613A698D
S3151FFFFAD0FB699A420DD83B69FB612323FB18222240
S3151FFFFAE0BA1812781A702623FB182422BA181288FE
S3151FFFFAF01A8022217B181A787B1801321A7022234B
S3151FFFFB00FB181B78202BA4D9BB681B686421180020
S3151FFFFB1002F013FE03001A0013005B009B18FA691D
S3151FFFFB209A4202D95E4BFB62B0E0FB681800FFF7F3
S3151FFFFB3043FF0300BB615B4BBA699200D3581800A2
S3151FFFFB40FFF720FFFB689B68574A1A40FB689A60BE
S3151FFFFB50FB681B68BB622322BB181B78032B08D9C4
S3151FFFFB60BB181B78072B04D8BB6A8022920213434C
S3151FFFFB70BB62BB6A4D4A1340BB622323FB181B782C
S3151FFFFB80013B1A06F8235B051340BA6A1343BB6290
S3151FFFFB90BB6A5B0B5B03BB622623FB181B88DB045D
S3151FFFFBA0DA0CBB6A1A43FB681A60FB681B68404A7C
S3151FFFFBB01A40FB681A60FB689B683E4A1340BB628C
S3151FFFFBC0BB681B791900BB685B7A1A02E023DB004F
S3151FFFFBD013400A001A43BB681B7A9B0004210B4084
S3151FFFFBE01343BA6A1343BB62BB681B79002B03D04F
S3151FFFFBF0BB6A10221343BB62FB68BA6A9A60FB6833
S3151FFFFC001B682D4A1340BB62BB68DB795A038023EF
S3151FFFFC109B011A40BB6A1A43FB681A60274BBB62DC
S3151FFFFC20BB6A802212061343BB62BB6AC022120243
S3151FFFFC301343BB62BB689B79002B05D0BB6A80222F
S3151FFFFC4092051343BB6203E0BB6A194A1340BB62AB
S3151FFFFC50FB685A68BB6A1A43FB685A60FB689B6856
S3151FFFFC60BB62BB689B7A002B04D0BB6A8022120340
S3151FFFFC701343BB62BB68DB7A002B04D0BB6A8022AF
S3151FFFFC80D2021343BB62FB68BA6A9A60FB6A18000B
S3151FFFFC90BD460CB080BDC046102F0020342F00205C
S3151FFFFCA021050000CC2E0020FFFFF3FFFFFFFFE023
S3151FFFFCB0FFFFFFDFE8F8FFFFFFDFFFFF00001F402B
S3151FFFFCC080B582B000AF78607B68002B03D1154BE0
S3151FFFFCD0180000F00FFC7B680C220021180002F0B1
S3151FFFFCE0EFFC7B68E12252021A607B6800221A71C1
S3151FFFFCF07B6800225A717B6800229A717B680022FB
S3151FFFFD00DA717B6800221A727B6800225A727B683F
S3151FFFFD1000229A727B680022DA72C046BD4602B085
S3151FFFFD2080BDC046642F002080B586B000AFF86047
S3151FFFFD30B9607A60BB68002B03D1154B180000F022
S3151FFFFD40D9FBBB687B617B683B6111E0C046FB68E3
S3151FFFFD505A6880231B041340F9D07B691B781A004E
S3151FFFFD60FB68DA607B6901337B613B69013B3B6162
S3151FFFFD703B69002BEAD1C046FB685A688023DB0329
S3151FFFFD801340F9D000231800BD4606B080BDC046FC
S3151FFFFD90882F002080B500AF044B1A68044B1B68E1
S3151FFFFDA0044819009047C046BD4680BDC835002090
S3151FFFFDB0C03500200040054080B500AF044B1A68D0
S3151FFFFDC0044B5B68044819009047C046BD4680BD7B
S3151FFFFDD0C8350020C03500200050054080B500AF54
S3151FFFFDE00C4B9B78DBB21A000823134007D0094B35
S3151FFFFDF09B78DBB2074A08210B43DBB29370064A97
S3151FFFFE0088235B010021D15002F0FEFBC046BD4691
S3151FFFFE1080BDC04600D007400070044080B582B049
S3151FFFFE2000AF78607B68002B01D1002300E0024BF7
S3151FFFFE301800BD4602B080BDAF2F000090B589B038
S3151FFFFE4000AF786039607B68002B03D13D4B1800EC
S3151FFFFE5000F050FB3B68002B03D13B4B180000F013
S3151FFFFE6049FB3B681B7B012B03D9384B180000F05E
S3151FFFFE7041FB3B681B7B1A00354B9200D358002B67
S3151FFFFE8003D1344B180000F035FB0C243B19180027
S3151FFFFE90FFF716FF3B685A6821007B181A603B68FD
S3151FFFFEA01B7A012B03D17B1802221A710CE03B68C8
S3151FFFFEB01B7A022B04D10C23FB1803221A7103E0B2
S3151FFFFEC00C23FB1800221A713B685B7A012B04D1A6
S3151FFFFED00C23FB180122DA7103E00C23FB18002207
S3151FFFFEE0DA713B689B7A5A1E9341DAB20C217B1853
S3151FFFFEF0DA723B68DB7A5A1E9341DAB27B189A7223
S3151FFFFF003B681B7B1A00124B9200D0583B681A683E
S3151FFFFF107B181900FFF776FD0300FB61FB69002BBA
S3151FFFFF2005D0FB691800FFF779FF030006E07B6822
S3151FFFFF30BB613B681A7BBB691A7000231800BD465D
S3151FFFFF4009B090BDB42F0020D42F0020F42F00201E
S3151FFFFF50AC2F00205830002080B586B000AFF86068
S3151FFFFF60B9607A60FB68002B03D1124B180000F0B3
S3151FFFFF70C1FABB68002B03D10F4B180000F0BAFA6A
S3151FFFFF807B68002B03D10D4B180000F0B3FAFB68FB
S3151FFFFF907B617B691B781A00094B9200D3587A68DD
S3151FFFFFA0B9681800FFF7C0FE00231800BD4606B04C
S3151FFFFFB080BDC04698300020B8300020D8300020C2
S3151FFFFFC0AC2F002090B587B000AFF860B9607A609C
S3151FFFFFD03B6016217B180B4A1A80FB681B7B012B84
S3151FFFFFE009D1FB6808337C183A687968180000F056
S3151FFFFFF049F9030023801623FB181B881800BD46EB
S3152000000007B090BD2135000080B586B000AFF860FE
S31520000010B9607A60FB68002B03D1144B180000F0FE
S3152000002069FABB68002B03D1114B180000F062FA65
S315200000307B68002B03D10F4B180000F05BFAFB689E
S315200000407B617B691B683B613B69002B03D10A4BB3
S31520000050180000F04FFA7B68BA6879693869FFF7AB
S31520000060B1FF03001800BD4606B080BDF830002061
S315200000701C3100203C3100205C31002090B585B039
S3152000008000AF786039600E23FB181B4A1A803B6844
S31520000090002B03D1194B180000F02CFA7B68002B9B
S315200000A003D1174B180000F025FA7B68BB60BB68AC
S315200000B010220021180002F003FB3B681A78BB6867
S315200000C01A733B681B78012B0DD1BB6808331A00C5
S315200000D03B685B680E217C181900100000F088F838
S315200000E00300238000E0C0460E23FB181B8818005F
S315200000F0BD4605B090BDC046213500007C310020AC
S315200001009C31002080B586B000AF786039607B686E
S31520000110002B03D1144B180000F0ECF93B68002BA0
S3152000012003D1124B180000F0E5F97B687B613B6830
S315200001303B613B6804220021180002F0C1FA02F05C
S3152000014068FA0300FB607B695B685A1C7B695A600E
S31520000150FB68180002F06CFA3B697A691A60002382
S315200001601800BD4606B080BDC4310020EC31002009
S3152000017080B586B000AF786039607B68002B03D1EC
S31520000180184B180000F0B6F93B68002B03D1164B2C
S31520000190180000F0AFF97B687B613B683B6102F099
S315200001A038FA0300FB607B691B68002B05D0FB68CF
S315200001B0180002F03DFA0D4B10E07B693A691A608F
S315200001C0FB68180002F034FA3B680422002118006C
S315200001D002F076FA3B697A691A6000231800BD4658
S315200001E006B080BD143200203C32002022350000AB
S315200001F080B588B000AF786039603B68002B03D1AA
S315200002001D4B180000F076F97B68002B03D11B4BA1
S31520000210180000F06FF93B68FB617B68BB61FB69E6
S315200002205A6808217B185A60FB691A7A7B181A7259
S31520000230FB695A7A7B185A72FB69DA7A7B189A72AA
S31520000240FB691A7B7B18DA72FB691A687B181A60BD
S31520000250FB699A7A7B181A73BB697A181100180001
S31520000260FFF7ECFD031E01D0054B00E0002318002C
S31520000270BD4608B080BDC0466032002088320020CE
S315200002802135000080B586B000AFF860B9607A608D
S31520000290FB68002B03D10F4B180000F02BF9BB682D
S315200002A0002B03D10C4B180000F024F97B68002B9F
S315200002B003D10A4B180000F01DF9FB687B617B69AE
S315200002C07A68B9681800FFF747FE03001800BD4694
S315200002D006B080BDB0320020D8320020FC3200208B
S315200002E080B582B000AF7860084A094BD358094AD6
S315200002F01A407B689906C0231B050B40034913430C
S31520000300034A8B50C046BD4602B080BD00700440F3
S3152000031004100000FFFFFFF380B500AF034A044B33
S315200003200449D150C046BD4680BDC0460070044039
S31520000330441000000000071080B500AFFFF7ECFF67
S31520000340084B1800FEF754FE074B1800FEF7BAFDBF
S31520000350064B074A1A600120FFF7C2FFC046BD467A
S3152000036080BDC04620330020283300208034002062
S31520000370006CDC0280B582B000AF0A4AE123590244
S31520000380130001220020FEF77BF803007B607B68C8
S31520000390002B03D0044B180000F0ACF8C046BD4635
S315200003A002B080BD006CDC023033002080B500AF87
S315200003B00020FEF727FD0200034B04481900FEF734
S315200003C065FFC046BD4680BD6033002000700640F4
S315200003D080B584B000AF78607B681B0C084A9446D1
S315200003E06344FB60FB6819687B681B041B0C0122B5
S315200003F09A40FB680A431A60C046BD4604B080BDD9
S315200004000070044080B584B000AFF860B960FB1D71
S315200004101A70FB68BA689200D358094A1A40FB1D25
S315200004201B781902E023DB000B401A431100FB68FE
S31520000430BA689200D150C046BD4604B080BDC046C1
S31520000440FFF8FFFF80B582B000AF214B1800FFF701
S31520000450BFFF204B1800FFF7BBFF3B1D1E4A12882B
S315200004601A803B1D1D481A001321FEF749FE1C4B1E
S31520000470022201211800FFF7C5FF194B0122132183
S315200004801800FFF7BFFF164BDA6C154B15490A40CB
S31520000490DA64134B022202211800FFF7B3FF124B36
S315200004A0022201211800FFF7ADFF0F4B0222022185
S315200004B01800FFF7A7FF0D4A0D4BD3580B4907220B
S315200004C093430B4A8B50C046BD4602B080BDC04602
S315200004D0090038100B0038106C33002000F00F4054
S315200004E000900440FBFFFFFE00B004400070044073
S315200004F01010000070B505000E4C0F48210002F0C8
S31520000500F9F82100280002F0F5F80C4A111DCB6FEE
S31520000510013BCB67002B07DB936F591C91670A229F
S315200005201A7002F0C8F870BD21000A2000F028F8E1
S31520000530F7E7C0464436002074330020CC3500202F
S315200005402023C26810B59A43C2608369826A040078
S3152000055093420CD000F0BCF8E368074A1A401023F7
S315200005601343E360A36AA3612369E3622360E2681D
S31520000570024B1340E36010BDEFCFFFFFBFBFFFFF6D
S31520000580F8B5CA684F4B050013400C00CB609306A4
S3152000059002D50800FFF7D4FFA268E668531C0FDADD
S315200005A0B3050DD402235B429B1AA36090235B0202
S315200005B01E432368E6605A1C22601D70E8B20AE0DA
S315200005C0414A3240022A07D00023A36080331E43CB
S315200005D0E66001204042F8BD80213C4B09023340B1
S315200005E08B420AD10021200000F04EF9E3689B06D9
S315200005F002D52000FFF7A4FFE6689023F0225B02D5
S3152000060033431201E360164210D1606902F06AF9A1
S31520000610002821D073051FD52300243323612360AE
S315200006200123E36192235B023343E36090210901B6
S31520000630226826690B4225D0E36A9A4200D9130024
S31520000640991BB34217D1731CE3622360E3695A1ED8
S31520000650A26023633570B1E780277F00380000F061
S3152000066003F99423E2685B0233431A432061206036
S31520000670E761E260DAE72200300000F059F800284E
S31520000680E1D0A6E7511CE8B221601070E26A216829
S315200006908A4200D91100E269891B22635B0504D4D2
S315200006A00A2802D08A4200DD88E700232200300093
S315200006B0E6622660A36000F03BF8002800D088E7B9
S315200006C07CE7C046FFFFF7FF8A10000010A000005D
S315200006D0C368154A70B51A40C260822204000569B3
S315200006E00168C66A1A40022A02D00120404270BD23
S315200006F080221800520210401342F8D0B14200D294
S3152000070031008D4208D10020E268084BE562134093
S315200007102560A060E360EAE722002800491B00F07C
S3152000072007F80028EFD0E0E7FFFFF7FFFFFFFEFF07
S31520000730F7B5D5680F00140056690190EB0205D570
S31520000740102330001D4302F0CAF8A061104B1D4251
S315200007500FD03000A16902F0CBF8002806DA8023FA
S315200007600120E26840421343E3600FE0094B1D403D
S31520000770E56001993A00300001F0AEFA4100A36924
S315200007804908791A5918A1610028E8D1FEBDC0464A
S3152000079010000200EFFFFDFFF7B50026314FC51C04
S315200007A002003C68AD08B04215D02800EB1C9C46E0
S315200007B00A300190002C10D10C32100000F084FC7D
S315200007C0431C08D080239B05036045608460002E6F
S315200007D046D138601EE00020FEBD802123684905F1
S315200007E08B423AD1A6686368002E0BD080203168F0
S315200007F04005814206D171680333CB186360B36824
S31520000800A360EFE7AB4207DB9C4505DB80239B0516
S31520000810236020000C30DFE701998B4210D980221B
S3152000082020008021920522600C30AA005B1B8218D2
S315200008304905033B6560A260116053609660CBE773
S31520000840002E0AD19B00D01A00F03EFC431CC2D0D9
S3152000085080239B0523606560DBE72600A468A9E763
S31520000860B060D7E78436002010B5FFF795FF041E49
S3152000087005D11722034901F02FFA01F01CFF2000B1
S3152000088010BDC04689330020F7B53A4BC668040030
S315200008900D0000921E4202D102273800FEBD436998
S315200008A01800019302F01EF8071EF5D1009B012BBC
S315200008B005D0022B2DD0002B05D00237EDE72000E6
S315200008C000F05CF82D18002DE6DBB30404D5236870
S315200008D0E26A9A4200D2E362A069A8420FDCE26A89
S315200008E02368934200D213002269009200991A18B5
S315200008F0521AAA4203DB226B8118A94228DC202344
S315200009001E430023A562A36063601B4B1E40E66066
S31520000910C3E7019801F0E3FFE268002804DA8023A8
S3152000092013430127E360B8E7E16A2368994200D9B7
S315200009300B00A1695B1821695B1A920603D5A26A8E
S31520000940934200DA1300834200DA0300ED18BAE777
S315200009502D1AB10701D5AA1AA260F20703D5009A6B
S315200009609B1AEB1A6360009B5D19202325609E432A
S31520000970CBE7C04603001000BFCFF7FFC26893073E
S3152000098005D1212201200E4B40421A6070472023B8
S31520000990134012030AD5002B02D0806A0138F5E7EE
S315200009A00368826900699B18181AF7E7002B01D0A3
S315200009B0806AEBE70368826900699B18181AE5E7E5
S315200009C08836002037B5184C18492200002000F040
S315200009D09DFB802380225B0000212000D20000F0B6
S315200009E021FB134C134D22002900012000F08EFB21
S315200009F0802380225B0000212000D20000F012FB21
S31520000A000D4B1B680193022B0DDD0C4C2900220097
S31520000A10022000F07BFB80238022002120005B0047
S31520000A20D20000F0FFFA37BDCC350020A1330020DC
S31520000A3008360020A33300207033002044360020DF
S31520000A40F7B50026002700923B00320004000D0077
S31520000A5001F034F80190002805D0009B1E605F60ED
S31520000A6034003D0009E069001948490D2B00401863
S31520000A70844606D5009B1E605F602000290003B0D7
S31520000A80F0BD6046332803DD009B1C605D60E7E710
S31520000A90132811DD0F48091801204042C8402100C3
S31520000AA081430A00009920000A604B60290000F06B
S31520000AB0BBFD04000D00E0E707492E0001418E43EF
S31520000AC031032F0D090B3F050F433B00019AE9E740
S31520000AD001FCFFFFEDFBFFFFFFFF0F00F0B58FB01E
S31520000AE00092019304000D00009801990022D54B35
S31520000AF000F0E4FF061E26D1002200232000290054
S31520000B0001F052F8002862D000220023200029009C
S31520000B1000F0D4FF0022002819D000980199002364
S31520000B2001F042F8002800D188E10098019921229D
S31520000B30C54B1A600022002300F0C0FF002800D019
S31520000B4044E20024C14D200029000FB0F0BDC04B67
S31520000B500098019900F0CAFF002814D10098019945
S31520000B60BC4ABD4B00F0F2FF00280CD10098019939
S31520000B7000F0E6FE060001F049FE009A019B00F017
S31520000B809DFF002803D12122AF4B1A60D9E780238D
S31520000B9001201B060640ED18059680230098019932
S31520000BA00022DB0500F08AFF002812D02000290051
S31520000BB0AA4AAB4B00F09AFF00280AD022002B004D
S31520000BC02000290000F0C6FB04000D00BBE70590BD
S31520000BD0E3E7200029000DAA00F022FBA14BA24A40
S31520000BE00D00040000F0E0FF431E9841C3001F1DC6
S31520000BF09E4EF900711802932200086849682B005E
S31520000C0001F002F8002800D00297029B22009F1CC8
S31520000C10FB00F618306871682B0000F0F5FF0028FD
S31520000C2000D00297029B914A0133DB00D3181E683D
S31520000C305F68200032003B00290000F0F5FC029B93
S31520000C405A108B4BD2009B181A685B6800F0ECFC9C
S31520000C50002206900791874B2000290000F07AFB9E
S31520000C60002204000D0030003900824B00F072FB98
S31520000C7002000B002000290000F0C8FD02000B0036
S31520000C800698079900F028FC02000B0006000F00CA
S31520000C9000F060FB04000D00774A784B00F05AFB09
S31520000CA0774A784B00F0B2FD22002B0000F052FB71
S31520000CB0754A764B00F0AAFD22002B0000F04AFB75
S31520000CC0734A744B00F0A2FD22002B0000F042FB79
S31520000CD032003B0000F03EFB6F4A704B04000D00D3
S31520000CE000F038FB0D9B089009911801029BC01A51
S31520000CF0013801F08BFD0022694B00F02BFB00220E
S31520000D00684B029003910098019900F023FB00F0B4
S31520000D1017FE01F07BFD0022614B00F01BFB5E4AB3
S31520000D20069007915D4B3000390000F013FB22003E
S31520000D302B000A900B910898099900F067FD020094
S31520000D400B000A980B9900F061FD32003B0000F081
S31520000D505DFD009A019B00F0FDFA069A079B0400B0
S31520000D600D000098019900F05FFC029A039B00F0A9
S31520000D70F1FA02000B002000290000F047FD0022B6
S31520000D80484B06000F0000F0E5FA00F0D9FD01F00F
S31520000D903DFD0022424B00F0DDFA04000D0002006A
S31520000DA00B003000390000F03FFC069A079B0090AC
S31520000DB001910298039900F0CDFA22002B0000F051
S31520000DC025FD0022374B04000D0000F0C3FA00F089
S31520000DD0B7FD01F01BFD0022314B00F0BBFA0600E7
S31520000DE002000B000F002000290000F01DFC009AD5
S31520000DF0019B00F00BFD00222A4B0090019100F090
S31520000E00A9FA00F09DFD01F001FD0022244B00F01F
S31520000E10A1FA02000B0004000D003000390000F09A
S31520000E20F5FC204B002200F095FA00F089FD1E4BC0
S31520000E30060098423ADA2222034B1A600024250043
S31520000E4081E6C0460000F03F883600200000F0FF13
S31520000E500000E0C10000C0FFFFFFDF41408CB578F5
S31520000E601DAF15449EA0E63FCD3B7F66002900209E
S31520000E70882900200000E03F28FC4ADBFD783C3F23
S31520000E80AC8D272E2449623F0E089E999999893F59
S31520000E904D5555555555B53FF80BAE941D55DC3F70
S31520000EA00000B03F0000304020C0FFFF2200009825
S31520000EB001992B0000F0B8FB0022002304000D004E
S31520000EC000F044FE002808D0200029000022414BD3
S31520000ED000F0AAFB04000D000136002E63DA0F2273
S31520000EE0F7171740BF193B110093009B3A4A180188
S31520000EF0861B3A4BF60020009E1929007768366833
S31520000F00374B00F027FA374A374B00F07FFC220098
S31520000F102B0000F01FFA354A354B00F077FC2200F3
S31520000F202B0000F017FA334A334B00F06FFC2200F7
S31520000F302B0000F00FFA314A314B00F067FC2200FB
S31520000F402B0000F007FA2F4A2F4B00F05FFC2200FF
S31520000F502B0000F0FFF92D4A2D4B00F057FC220004
S31520000F602B0000F0F7F932003B0000F0F3F90B00FC
S31520000F7002003900300000F049FC0DAA00F050F9BB
S31520000F800D9C009BA44663441A008023DB009A42F2
S31520000F900CDD22221F4B1A60059B002B00D0D0E5CA
S31520000FA01C001D4DCFE537117B1C9DE71B4B9A423C
S31520000FB000DA40E700F074F9059B04000D00002BD1
S31520000FC000D1C0E580231B06CD18BCE53400144DA6
S31520000FD0B9E5C0460000B03F80CC92E3002900204E
S31520000FE0DD4EEF3E744C38E07A2F243F9FCDD71844
S31520000FF07ED8553F981D136EABB2833F6D0203D743
S31520001000086BAC3FCEC482FFBDBFCE3FEF39FAFEA0
S31520001010422EE63F883600200000F07F03FCFFFFCB
S315200010200000F03FF0B5C56804000120AE070CD0E3
S3152000103080208000824213D08020C000824205D0CA
S315200010408020400082420BD0FF38F0BD21000123D2
S3152000105024312A43002021612160E361E260F4E724
S31520001060024F5E1E0120BE42F3D9EEE7FEFFFF00CF
S31520001070032310B5411C0200184217D1104C1368E7
S31520001080104818189843204217D0DCB2501C002C68
S3152000109011D0FF242402901C23420CD0FF200004F0
S315200010A00340581E8341D318D81C04E00130421E49
S315200010B01278002ADFD1401A10BD0432DFE7C0467D
S315200010C080808080FFFEFEFE70B50D4D04002B68EB
S315200010D0002B01D10B4B2B6003232E6803349C433A
S315200010E03419200000F008F9002802D12C603000C5
S315200010F070BD0C220126044B76421A60F7E7C046E3
S31520001100803600208C36002088360020F7B50D006A
S3152000111001901000140000F033F82B78722B1CD0AD
S31520001120772B1DD0612B26D1144A593B0220691CEE
S31520001130032784460426012508782B2813D0622805
S3152000114016D0E260019A62611B0704D502220021B3
S315200011502000FFF799FB2000FEBD00230122E5E7D2
S3152000116004230222E2E760463A4303430131E3E7E0
S3152000117032432B43FAE70024EDE7C0460280000005
S31520001180F0B5C568040089B0AB0722D02B0718D468
S315200011904769066900F022F8380001F09DFB2B050F
S315200011A002D5300001F090FA0B4BAD0DAD059D42F6
S315200011B007D120226846216A01F09DFB684601F08E
S315200011C0B0FA3C220021200001F07AFA002009B072
S315200011D0F0BD01204042FAE7000080AD73B500283B
S315200011E013D000F093F80500280076BD3000604348
S315200011F0094BC01800F08AF8002801D001256D425D
S315200012000134019BA342F1DCEEE7044B04001B688A
S3152000121005003C260193F4E7CC35002070330020EE
S31520001220F7B500230092002204000D0000F046FCD2
S31520001230002806D0002300200021009A136003B066
S31520001240F0BD144A6B005B0D200029009F18002B6F
S3152000125018D122002B031B0B802636031E40019635
S315200012605B00D60F3343019E1B031B0B5200002E3F
S3152000127001D1013FF0E71B032C0D1B0B24051C435A
S3152000128021001000009B044A1F60044B0B401A43A8
S315200012901100D4E702FCFFFF0000E03FFFFF0F80B4
S315200012A070B500231600002204000D0000F006FC95
S315200012B0002802D00020002170BD6A00520D0A4B82
S315200012C0921920009A4205DD2222084B0020084967
S315200012D01A60F1E7002AEDDD064B520552082B4035
S315200012E013431900E8E7C046FE07000088360020B1
S315200012F00000F07FFFFF0F80034B0200181E02D074
S3152000130000209A42404170478C3E0020C36870B549
S3152000131003221E0004001640134211D09B0611D54D
S31520001320856AFFF70DF9E268094B20001340E36058
S31520001330FFF7CEF90022060029002000FFF7A4FAC5
S31520001340300070BD036882699D180369ED1AEAE7CB
S31520001350FFCFFFFFF0B50D0014001A006A40D20F30
S315200013608BB04900D2070600490D039207D0524898
S31520001370814204D05A00520D01D082420BD14F4AED
S315200013806D00954200D883E04D4A954200D182E017
S3152000139000204C4971E08A180692DB02620D134345
S315200013A08022802712061A4300232D032D0B7F034C
S315200013B03D4328001900079201F04CFA0023E4026D
S315200013C02200049005912800190001F043FA002319
S315200013D0009101938446049A059B0098019912185E
S315200013E04B41089209936346049300233200200060
S315200013F01900059301F02EFA35000C00019B2A00F6
S3152000140006001900079801F025FA2200019B019D8C
S3152000141080185941049B059CC0186141089A099B74
S315200014200C00A4185D41069B274AB608304399183C
S31520001430BD420CD2254AC60F9446634422001900A9
S315200014402B0012196B41164334001D004000002367
S31520001450C20FA4185D4180222E002300120690425E
S3152000146003D1012322009A431300194A914206D838
S315200014701800039A0C053243A1180BB0F0BD0029C1
S3152000148003DB039A134B1A43039200200399F4E7D4
S3152000149059009142F9D90A4A5B00934200D977E76D
S315200014A000206D0D00D174E75B0D00D171E7094B6B
S315200014B0039A1A431100E0E7FF070000FFFFDFFF52
S315200014C00000E0FF0000F87F01FCFFFF00FCFFFFAB
S315200014D0FD0700000000F07FF7B5050008001700A3
S315200014E0190042004340520D019307D0474EB242A5
S315200014F004D04B005B0D01D0B34206D1444C4200D0
S31520001500A2425DD90020434951E0D61AC0026B0D94
S31520001510184380231B06EA021D009C4605432B0028
S31520001520CD02790D0D436146FF020D439D4202D83F
S315200015301BD1974219D9384978087618E907084304
S315200015403527690800256D00994206D801D19042B9
S3152000155003D80124121A8B41254392185B417C1E25
S31520001560212F0CD127000095EDE7D9078C4664463C
S315200015705008590804430B0022002849DCE7271E9F
S31520001580E1D1994208D801D1904205D801356B4264
S315200015906B41009AD3180093019B214ADB0FDB078E
S315200015A0964206D8009A3605F3189918280003B0F3
S315200015B0F0BD002E01DB1B4A134300201900F6E77D
S315200015C04B00A3429ED801434900490D4D050029F1
S315200015D001D11049EAE70199CE0F510DF6074D05C5
S315200015E0002901D13100E1E7590D00204D050029E0
S315200015F003D10C4B33431900D8E7A34202D0094B41
S315200016003343DBE731009A42D1D17CE7FF07000064
S315200016100000E0FF0000F87FFD030000FE0300004D
S31520001620FD0700000000F07FF7B50E00070011004F
S315200016301A00180035003C00724009D58024240683
S315200016400A00380031001B1900F0E0F803B0F0BDA5
S31520001650B34203D8B9420AD3B34208D180231B062A
S31520001660D318220035000C0011005D4043401A0DAE
S315200016702F0D0192BE1A6148614A3A40824200D13A
S31520001680B1E0964200D1AAE080202A031B03400342
S31520001690120B1B0B024303431F2E57D81800F04092
S315200016A0121A0800F040060001982030C01B834023
S315200016B01E43A31B9C42A4419C460B0064428340CC
S315200016C0121B002B08D0012149428C44614601316E
S315200016D0484241415B42521AC02149030A4257D12E
S315200016E061465200C90F0A43614614004900DB0FC8
S315200016F00B431C432100023F002C61D0510B1CD010
S31520001700510C04D1190F12010A431B01043FD10CBD
S3152000171004D1990F92000A439B00023F110D04D178
S31520001720D90F52000A435B00013FF90AED0FA94287
S3152000173009D13F051800B91888E7190E12020A4385
S315200017401B02083FDAE70020E9077FE7A446352E8B
S315200017501ED81800203EF040201A8442A441844618
S315200017602020801B83400800F0406442121B034364
S3152000177009060BD0FF210B43012149428C446146C7
S315200017800131484241415B42521A01E0002BF3D11C
S31520001790D1020CD4013F7C0511D061465200C90FFD
S315200017A00A436146D80F4900084384465B00154921
S315200017B03F050A40002B05DB6046D11946E739056F
S315200017C0200043E76446013461426141521880217A
S315200017D009068B4201D101239C43D119F0E7311E22
S315200017E009D02900ECE700202B0301D006492DE77C
S315200017F0002EF6D10449300028E7C046FF07000036
S31520001800FFF7FFFFFFFFEFFF0000F87FF7B51E0091
S315200018100C00370005001100019002002300300063
S315200018200094674009D5802000060A00331821005D
S315200018302800FFF7F9FE03B0F0BDA64203D9330016
S315200018400A00009801993A4F3A4E1D0D040D009456
S315200018502F402C1BB74264D0BC425CD080271B0390
S3152000186000037F031B0B000B3B4338431F2C27D859
S315200018700700E740DB190F00009EE7402036761B65
S31520001880B0403843121882428041B14040421B1872
S31520001890080099022ED50132514251415B18002889
S315200018A001D102218A4359082C0564182249600077
S315200018B088421BD85208DB07134321001800BAE7D9
S315200018C0352CE6D80600203CE6409219B242B641B5
S315200018D076429B192026361BB0400E00E6400906AC
S315200018E030430029D5D0FF210843D2E70135002017
S315200018F02905A0E7013D002809DA0132514251416C
S315200019005B1880210906884201D101218A432D05D1
S31520001910E91810008FE7002C08D1DB0F2000D9072B
S3152000192089E70020190301D0044984E71900F0E76C
S31520001930FFF7FFFFFF070000FFFFDFFF0000F87F34
S31520001940420DC80202438020000610430D4A0B00B8
S31520001950090D521AD040FF2A12D9E021C90040426F
S315200019600A420DD08022D205100018401A4207D014
S31520001970054900205A008A4202D8D80F034BC018C6
S315200019807047C0461E0400000000E0FFFFFFFF7FF7
S315200019900B00F0B502000E00410DD8020143802055
S315200019A0164F0006164C5D000143680D3F1A241A97
S315200019B0002F12DBF94008000021002E03DA4042F6
S315200019C0002814D14942FF2C06D95A0002D50D4AC7
S315200019D095420ED900200100F0BD0B4FD202C0194E
S315200019E00F008740E2403800E1401043E5E7C94355
S315200019F0E9E7D90F054B481EC918EDE71E0400007C
S31520001A003E0400000000E0FFE2FBFFFFFFFFFF7F38
S31520001A1030B5040003000C4302D12100200030BD64
S31520001A20002904D080239B04D2180B000100180C37
S31520001A302ED1080C1B0403430904180E2CD1080EC2
S31520001A401B0203430902180F2AD1080F1B01034367
S31520001A500901980F28D1880F9B0003438900002B8A
S31520001A6026DBC80F5B00034349008020C00009180D
S31520001A708142804140421B18480501D10E48014051
S31520001A80D812C90A5B0585180B4318002900C6E73A
S31520001A90802040041218D0E7802000041218D2E7D4
S31520001AA08020C0031218D4E7802080031218D6E7BE
S31520001AB0802040031218D8E7FFF7FFFFF0B51E007D
S31520001AC05B0003430F001343490004000B4301202E
S31520001AD0002B07D00020B74204D1944202D1024BFA
S31520001AE08B424041F0BDC0460000E0FFF0B50E003D
S31520001AF004001800110035001A00134F30430CD48F
S31520001B0000205B00BB4207D80130964204D3002058
S31520001B108C428941964214D0F0BD00207600BE4208
S31520001B20FAD85B00BB42F7D823430B433343181E36
S31520001B30F2D001209542EFD800209542ECD1A14267
S31520001B4089414842E8E7C0460000E0FFF0B50D00B5
S31520001B5001002800134F1500040046001A00184300
S31520001B600BD40020BE4207D801309C4204D8002066
S31520001B708D4289419C4213D0F0BD0020BE42FBD845
S31520001B805B00BB42F8D80B432B433343181EF3D0DC
S31520001B9001209442F0D300209442EDD1A9428941FC
S31520001BA04842E9E70000E0FFF7B51C000192050076
S31520001BB01A00019E0C430DD4124C00205B00A34258
S31520001BC007D80130914204D30020914201D1AE4280
S31520001BD04041FEBD480084460A4C0020A445F8D862
S31520001BE05B00A342F5D801309142F2D801D1B5422B
S31520001BF0EFD22B431800019B1843634618434342F8
S31520001C005841E6E70000E0FFF7B50600080001921C
S31520001C100C00019945008C461A00134918430CD430
S31520001C2000208D4208D801309C4205D800209C42D5
S31520001C3002D163469E424041FEBD00208D42FBD824
S31520001C405B008B42F8D801309442F5D304D10020B2
S31520001C506346B3424041EFE7019A334313431D43A2
S31520001C6068426841E8E7C0460000E0FF80B586B0DC
S31520001C7000AFF860B9603B60FB1D1A7000237B61E2
S31520001C8000237B611FE0BB681B6801337F2B0AD9C9
S31520001C90BB681B681A00FB6811001800FCF7B8FB2C
S31520001CA0BB6800221A60BB681B681A00FB689B1879
S31520001CB0FA1D12781A70BB681B685A1CBB681A601A
S31520001CC07B6901337B617A693B689A42DBDBC046DC
S31520001CD0C046BD4606B080BD80B584B000AFF86072
S31520001CE0B9607A60BB68002B02D101235B420FE00A
S31520001CF0FB68012B05D0FB68022B02D001235B4237
S31520001D0006E07A68BB6811001800FCF781FB002307
S31520001D101800BD4604B080BD80B584B000AF7860A1
S31520001D2039600023FB600B23FB1800221A7027E082
S31520001D307B681B685A1C7B681A607B681A680A21B4
S31520001D407B1812781A707B181B782F2B0FD97B18CB
S31520001D501B78392B0BD8FA6813009B009B185B0065
S31520001D601A007B181B78D318303BFB6008E07B6891
S31520001D701B685A1E7B681A600B23FB1801221A70F7
S31520001D800B23FB181B78002BD2D0FB681800BD460E
S31520001D9004B080BD80B588B000AFF860B9607A60C5
S31520001DA0FB681B68FB610623BB6117217B18002299
S31520001DB01A70FB690133FB61FB691B782E2B2ED130
S31520001DC00023BB617B1800221A7022E0FB690133D5
S31520001DD0FB6116217B18FA6912781A707B181B781A
S31520001DE02F2B0FD97B181B78392B0BD8BA691300E8
S31520001DF09B009B185B001A007B181B78D318303B7E
S31520001E00BB6106E0FB69013BFB611723FB1801223E
S31520001E101A701723FB181B78002BD7D002E0FB691A
S31520001E20013BFB61FB68FA691A60BB691800BD4675
S31520001E3008B080BD80B584B000AF0200FB1D1A70CB
S31520001E400023FB60FB1D1B786F2B0BD0FB1D1B7823
S31520001E50622B07D0FB1D1B78702B03D0FB1D1B7834
S31520001E60752B01D10123FB60FB681800BD4604B029
S31520001E7080BD80B584B000AF0200FB1D1A70002320
S31520001E80FB60FB1D1B78642B03D0FB1D1B78692B85
S31520001E9001D10123FB60FB681800BD4604B080BD5C
S31520001EA090B585B000AFF860B9607A601A00FB1C67
S31520001EB01A70BA687B68D31AF96AB86A7C6A2022D3
S31520001EC0A04708E03B6A5A1E3A621A78F96AB86A4D
S31520001ED07C6A0123A0473B6A1B78002BF2D1C046BF
S31520001EE0C046BD4605B090BD90B585B000AFF86040
S31520001EF0B9607A601A00FB1C1A70BA687B68D31A1C
S31520001F00F96AB86A7C6A2022A04708E03B6A5A1E12
S31520001F103A621A78F96AB86A7C6A0123A0473B6A52
S31520001F201B78002BF2D1C046C046BD4605B090BDF9
S31520001F3080B584B000AF0200FB1D1A700023FB6041
S31520001F40FB1D1B78662B03D0FB1D1B78462B01D16E
S31520001F500123FB60FB681800BD4604B080BD80B538
S31520001F6084B000AF0200FB1D1A700023FB60FB1D2E
S31520001F701B78782B03D0FB1D1B78582B01D101230E
S31520001F80FB60FB681800BD4604B080BD80B584B0F8
S31520001F9000AF0200FB1D1A70FB1D1B786F2B04D1AE
S31520001FA00F23FB1808221A7015E0FB1D1B78622BE5
S31520001FB004D10F23FB1802221A700CE0FB1D1B789C
S31520001FC0702B04D10F23FB1810221A7003E00F2365
S31520001FD0FB180A221A700F23FB181B781800BD461F
S31520001FE004B080BD80B58EB000AFF860B9607A606D
S31520001FF03B6000237B62FB683B623B6A5A1C3A6269
S3152000200000221A707B68002B37D0BB681B687B6365
S315200020107B6B002B2DD13B6A30221A707B6A0133F1
S315200020207B627B6A66E03968786B00F083FB03008D
S31520002030BB61BB693A6853437A6BD31A3B633B6BEC
S31520002040002B08DA3B6BBB62BB6ADB437B617B6997
S3152000205031333B6302E03B6B30333B63BB697B63CD
S315200020603B6A5A1C3A623A6BD2B21A707B6A0133C7
S315200020707B627B6B002BD6D13BE0BB681B68FB6287
S31520002080FB6A002B32D13B6A30221A707B6A0133FD
S315200020907B627B6A2EE03B681900F86A00F04DFBF4
S315200020A00300FB613B68FA695343FA6AD31ABB62A1
S315200020B0BB6A092B03D8BB6A3033BB620BE04023D3
S315200020C0FB181B78002B01D0412300E06123BA6A5C
S315200020D09B180A3BBB62FB69FB623B6A5A1C3A624D
S315200020E0BA6AD2B21A707B6A01337B62FB6A002B12
S315200020F0D1D17B6A1800BD460EB080BDF0B5A1B027
S3152000210004AFF860B9607A603B6000237B660023E9
S315200021103B6600237B625F23FB1800221A70002394
S31520002120FB61FB68FB64FB6C1B78002B00D154E140
S31520002130FA6C5E217B1812781A700A00BB181B787D
S31520002140252B0BD0BB181A782423F91878683C68FD
S315200021500123A047FB6C0133FB643DE16B243B1953
S3152000216001221A7008257A194C26BB19110018006D
S31520002170FFF7D2FD0300BB657919BB1900221800B1
S31520002180FFF708FE03007B65FB6C0133FB64FA6CEA
S315200021905E217B1812781A707B181B781800FFF7BF
S315200021A068FE0300012B25D1BB681A1DBA601B6887
S315200021B03B622023F918282578193B191B780093B0
S315200021C00A230122FFF70EFF03003B667A193B6EB6
S315200021D0D3187B663A6EB96D2423FB1803937B686C
S315200021E002933B6801937B6E009300230020FFF748
S315200021F057FEEEE05E23FB181B781800FFF798FECB
S315200022000300012B28D1BB680733072293431A000A
S315200022100832BA601A685B683A617B617B6D10226E
S31520002220B918282438190A22FCF738FA03003B6625
S315200022303A193B6ED3187B663A6EB96D2423FB1888
S3152000224003937B6802933B6801937B6E0093002384
S315200022500020FFF725FEBCE05E243B191B78180002
S31520002260FFF77DFE0300012B30D13B191B78782B1D
S3152000227003D16B23FB1800221A70BB681A1DBA60A3
S315200022801B68FB611C23F918282438196B257B1938
S315200022901B78009310230022FFF7A4FE03003B6661
S315200022A03A193B6ED3187B663A6E7B191878B96D4E
S315200022B02423FB1803937B6802933B6801937B6E70
S315200022C0009303000020FFF70FFE82E05E257B19B6
S315200022D01B781800FFF7AEFD0300012B31D1BB6838
S315200022E01A1DBA601B68FB615F26BC197B191B7817
S315200022F01800FFF74BFE03002370BB191A781C2326
S31520002300F918282438196B23FB181B78009313001F
S315200023100022FFF767FE03003B663A193B6ED3188F
S315200023207B663A6EB96D2423FB1803937B68029370
S315200023303B6801937B6E009300230020FFF7B0FDDE
S3152000234047E05E23FB181B78632B0DD1BB681A1D53
S31520002350BA601B683B653B6DDAB22423F9187868AE
S315200023603C680123A04734E05E23FB181B78732BBF
S3152000237026D1BB681A1DBA601B68FB66FB6E002B54
S3152000238027D0FB6E1800FEF773FE03003B66BA6D7E
S315200023903B6ED31A2422B91878683C682022A047BD
S315200023A009E0FB6E5A1CFA661A782423F918786815
S315200023B03C680123A047FB6E1B78002BF1D108E077
S315200023C05E23FB181A782423F91878683C680123C1
S315200023D0A047FB6C0133FB64A5E6C0467B6A180068
S315200023E0BD461DB0F0BD80B588B002AFF860B960BB
S315200023F07A60FB687968B868022200925622FCF758
S3152000240019FC03007B617B691800BD4606B080BDC0
S3152000241080B586B000AFF860B960FB1D1A70012345
S315200024207B61FB1D1B78002B05D17A69BB689A401E
S31520002430FB689A6004E07A69BB689A40FB685A6038
S31520002440C046BD4606B080BD80B582B000AF78607C
S3152000245039603A6880235B01134009D07B689B79F9
S31520002460DAB23B681B0ADBB21343DAB27B689A7195
S315200024703A688023DB01134009D07B689B79DAB266
S315200024803B681B0ADBB21343DAB27B689A713B685E
S31520002490DAB27B68DA70C046BD4602B080BD80B530
S315200024A084B000AF78600023FB607B689B78DBB24A
S315200024B038229343DAB27B689A70C0467B68DB7811
S315200024C0DBB21A0020231340F8D1FB681800BD4662
S315200024D004B080BD80B584B000AF78607B68DB78BF
S315200024E0DBB2FB607B689B79DBB21A00402313408A
S315200024F004D0FB688022D2011343FB607B689B7962
S31520002500DBB21A001023134004D0FB68802252014C
S315200025101343FB60FB681800BD4604B080BD80B540
S3152000252086B000AFF860B9607A603B6000237B61BB
S3152000253013217B1800221A707B181B78DBB201331B
S31520002540DAB27B181A70C046FB68DB78DBB25BB266
S31520002550002BF9DAFB680222DA70FB689B78DBB283
S3152000256018229343DAB2FB689A70FB681B79DAB2B9
S315200025701323FB181A707B68012B3BD1FB689B78D1
S31520002580DBB208221343DAB2FB689A7032E0C04607
S31520002590FB68DB78DBB21A0002231340F8D07B6895
S315200025A0002B12D13B680422134006D1FB68180089
S315200025B0FFF775FF03007B6107E0FB689B78DBB2C2
S315200025C010221343DAB2FB689A70FB680222DA7093
S315200025D0BB685A1CBA60FA681279D2B21A707B6844
S315200025E0012B07D1FB689B78DBB208221343DAB2B2
S315200025F0FB689A707B685A1E7A60002BC7D17B696C
S315200026001800BD4606B080BD80B500AFC046BD46A9
S3152000261080BD80B582B000AFEFF310833B603B688E
S315200026207B6072B6C0467B681800BD4602B080BD8E
S3152000263080B584B000AF78607B68FB60FB6883F36D
S315200026401088C046C046BD4604B080BD80B584B063
S3152000265000AFF860B9607A607A68B968FB681800DC
S31520002660FDF7D2FC03001800BD4604B080BD80B53E
S3152000267000AFFDF761FEC046BD4680BD80B500AF08
S31520002680FDF778FEFDF792FEC046BD4680BD80B5BB
S3152000269000AFFFF7F3FFC046BD4680BD80B500AF53
S315200026A0FDF7D0FEC046BD4680BD10B5FEF78AF9BF
S315200026B0FCF73AF910BDFEE710B500F0E2F810BDC0
S315200026C010B500F0F4F810BD10B5002811D0802107
S315200026D00C38490501608268002A0AD013688B42AB
S315200026E007D14368546803331B194360936883609A
S315200026F0F1E710BD70B50C000500287800280FD032
S31520002700A368013BA360002B05DB23685A1C2260CB
S3152000271018700135F1E72100FDF732FF431CF8D18F
S3152000272070BD10B50400FEF7A3FC0100200000F0E8
S31520002730DCF810BD03000B4321D4002931D001223F
S31520002740D207030901E0090112099942FBD943087E
S3152000275001E0490052089942FBD900E04908401A95
S3152000276007D35241FAD3014610467047490840180C
S31520002770F7D29218FAD34018014610467047CB0F6D
S3152000278000D04942021000D54042534008B5FFF719
S31520002790D4FF0CBC521000D34042002A00D5494237
S315200027A01847F446002000F001F86047704710B53E
S315200027B0002804D1030002001000190010BD030CEC
S315200027C010D10004030E11D10002030F12D1000113
S315200027D0830F13D18000002814DB4000C412631835
S315200027E04205E9E780235B04C918EBE780231B0435
S315200027F0C918EAE78023DB03C918E9E780239B038E
S31520002800C918E8E780235B03C918E7E7802310B5DA
S31520002810C10FDB05C907C918C317C0185840FFF7F1
S31520002820C6FF10BD802110B5C905FFF7C0FF10BD3A
S31520002830CA0F10B5D207002906DACB434442002836
S3152000284000D14B42200019008023DB05D218FFF768
S31520002850DFF810BD10B543435143C918040C130CBF
S315200028605C43091992B2040C544380B2434350434B
S315200028702204240C801861411A041B0C801859412B
S3152000288010BD8446830708D18B0706D1131F04D3B6
S3152000289004C904C0043BFBD21A1D524205D0891A32
S315200028A0801A8B5C83540132FBD160467047844684
S315200028B0043A09D3830707D109060B0A19430B0CDF
S315200028C01943043A02C0FCD2043203D0017001300D
S315200028D0013AFBD1604670470120404270470120F3
S315200028E040427047012040427047012040427047D5
S315200028F0012040427047012040427047FFFFFFFF02
S31520002900000000000000F03FDA90A4A2AFA4EE3F42
S3152000291087A4FBDC1858ED3F9C5285DD9B19EC3FC4
S31520002920ADD35A999FE8EA3F90F0A38291C4E93F3C
S31520002930DBA02A42E5ACE83F8701EB7314A1E73F11
S31520002940CD3B7F669EA0E63F295448DD07ABE53F99
S31520002950272A36D5DABFE43F2234124CA6DEE33FDF
S3152000296015B7310AFE06E33F3862756E7A38E23FC4
S315200029707B517D3CB872E13F0F89F96C58B5E03F39
S31520002980000000000000E03F00009C17239C8EBC46
S31520002990000050896510713C000070B0467C6C3C8C
S315200029A0000004EE771574BC000046054C32863CC8
S315200029B00000F01109DA7A3C0000C8B677B0893CED
S315200029C00000DC4A2EA6883C2E66736C5F64656226
S315200029D075675F636F6E736F6C652E633A34393239
S315200029E0203A204E554C4C20213D206368000000A3
S315200029F02E66736C5F64656275675F636F6E736F57
S31520002A006C652E633A343933203A20305520213DE7
S31520002A102073697A6500FFFF2E66736C5F646562BA
S31520002A2075675F636F6E736F6C652E633A373632E8
S31520002A30203A206B5374617475735F5365726961B4
S31520002A406C4D616E616765725F5375636365737301
S31520002A50203D3D2073746174757300002E66736C7F
S31520002A605F64656275675F636F6E736F6C652E63F7
S31520002A703A373733203A206B5374617475735F533A
S31520002A80657269616C4D616E616765725F537563CE
S31520002A9063657373203D3D20737461747573000004
S31520002AA02E66736C5F64656275675F636F6E736FA6
S31520002AB06C652E633A373836203A206B537461742E
S31520002AC075735F53657269616C4D616E616765727E
S31520002AD05F53756363657373203D3D207374617422
S31520002AE0757300FF426C616E6B696E6720465241BA
S31520002AF04D20286368756E6B73697A653D25642061
S31520002B006279746573293A0D0A000000446F6E6578
S31520002B102065726173696E67204652414D202D20D3
S31520002B20766572696679696E67202E2E2E0D0A00EB
S31520002B30504153533A204652414D206973207375B4
S31520002B40636365737366756C6C79206572617365F2
S31520002B5064202E2E2E0D0A004641494C3A2046521C
S31520002B60414D206973204E4F5420626C616E6B215B
S31520002B70212028616C6C207A65726F6573290D0A95
S31520002B8000FFFFFF2E0000000D0A00000D0A0D0AAF
S31520002B9000FFFFFFFFFFFFFFFFFFFFFFFFFFFFFF1E
S31520002BA0FFFFFFFFFFFFFFFFFFFFFFFFFFFFFFFF0F
S31520002BB0FFFFFFFFFFFFFFFFFFFFFFFFFFFFFFFFFF
S31520002BC0FFFFFFFFFFFFFFFFFFFFFFFFFFFFFFFFEF
S31520002BD0FFFFFFFFFFFFFFFFFFFFFFFFFFFFFFFFDF
S31520002BE0FFFFFFFFFFFFFFFFFFFFFFFFFFFFFFFFCF
S31520002BF0FFFFFFFFFFFFFFFFFFFFFFFFFFFFFFFFBF
S31520002C00FFFFFFFFFFFFFFFFFFFFFFFFFFFFFFFFAE
S31520002C10FFFFFFFFFFFFFFFFFFFFFFFFFFFFFFFF9E
S31520002C20FFFFFFFFFFFFFFFFFFFFFFFFFFFFFFFF8E
S31520002C30FFFFFFFFFFFFFFFFFFFFFFFFFFFFFFFF7E
S31520002C40FFFFFFFFFFFFFFFFFFFFFFFFFFFFFFFF6E
S31520002C50FFFFFFFFFFFFFFFFFFFFFFFFFFFFFFFF5E
S31520002C60FFFFFFFFFFFFFFFFFFFFFFFFFFFFFFFF4E
S31520002C70FFFFFFFFFFFFFFFFFFFFFFFFFFFFFFFF3E
S31520002C80FFFFFFFFFFFFFFFFFFFFFFFFFFFFFFFF2E
S31520002C90FFFFFFFF00FFFFFF2E66736C5F636C6F05
S31520002CA0636B2E633A313235203A20675F78746140
S31520002CB06C304672657100FF2E66736C5F636C6FB5
S31520002CC0636B2E633A313532203A20675F78746120
S31520002CD06C3332467265710022EEFF1F22EEFF1F13
S31520002CE040EEFF1FA8EEFF1F40EEFF1FA8EEFF1FBE
S31520002CF0A8EEFF1F78EEFF1F82EEFF1FA8EEFF1F34
S31520002D00A8EEFF1FA8EEFF1F8CEEFF1FA8EEFF1FE9
S31520002D10A8EEFF1FA8EEFF1FA8EEFF1F96EEFF1FCF
S31520002D2096EEFF1FA0EEFF1F2E66736C5F636C6F1F
S31520002D30636B2E633A333733203A20675F787461AA
S31520002D406C304672657100FF2E66736C5F636C6F24
S31520002D50636B2E633A343332203A2074617267658E
S31520002D6074436F6E6669670080841E0000127A00C5
S31520002D702E66736C5F6770696F2E633A3130302030
S31520002D803A204E554C4C20213D20636F6E66696774
S31520002D9000FFFFFF1400160018001A001C001E007A
S31520002DA0220028001C002000240028002C003000CF
S31520002DB038004400300038004000480050005800D9
S31520002DC06800800050006000700080009000A00025
S31520002DD0C000F000A000C000E0000001200140017A
S31520002DE08001E00140018001C00100024002800212
S31520002DF00003C00380020003800300048004000552
S31520002E000006800700050006000700080009000AE2
S31520002E10000C000F06003410070034100060064036
S31520002E20007006402E66736C5F6932632E633A31FA
S31520002E303539203A20696E7374616E6365203C20B3
S31520002E4041525241595F53495A4528735F6932634B
S31520002E5042617365732900FF2E66736C5F69326366
S31520002E602E633A353636203A204E554C4C20213D9D
S31520002E70206D6173746572436F6E6669670000002A
S31520002E802E66736C5F6932632E633A353637203A85
S31520002E9020305520213D20737263436C6F636B5F36
S31520002EA0487A00FF2E66736C5F6932632E633A316F
S31520002EB0323333203A204E554C4C20213D20786623
S31520002EC0657200FF00400540005005401400381090
S31520002ED0150038102E66736C5F6C70756172742ED7
S31520002EE0633A313236203A20696E7374616E6365B7
S31520002EF0203C2041525241595F53495A4528735F1D
S31520002F006C707561727442617365732900FFFFFFEF
S31520002F102E66736C5F6C70756172742E633A3234F0
S31520002F2035203A204E554C4C20213D20636F6E664D
S31520002F30696700002E66736C5F6C70756172742E03
S31520002F40633A323436203A203055203C20636F6E67
S31520002F506669672D3E62617564526174655F427071
S31520002F607300FFFF2E66736C5F6C70756172742E32
S31520002F70633A353231203A204E554C4C20213D20A3
S31520002F80636F6E66696700FF2E66736C5F6C707583
S31520002F906172742E633A383237203A204E554C4CA3
S31520002FA020213D206461746100FFFFFF0040054041
S31520002FB0005005402E6C70756172745F616461709B
S31520002FC07465722E633A323331203A2068616E641A
S31520002FD06C6500002E6C70756172745F616461703F
S31520002FE07465722E633A323332203A20636F6E66EE
S31520002FF0696700002E6C70756172745F6164617020
S315200030007465722E633A323333203A20636F6E66CC
S3152000301069672D3E696E7374616E6365203C202856
S3152000302073697A656F6628735F4C70756172744137
S315200030306461707465724261736529202F207369FB
S315200030407A656F66284C50554152545F54797065A5
S31520003050202A2929000000002E6C70756172745F89
S31520003060616461707465722E633A323334203A207B
S31520003070735F4C70756172744164617074657242DD
S315200030806173655B636F6E6669672D3E696E7374E7
S31520003090616E63655D00FFFF2E6C70756172745FF3
S315200030A0616461707465722E633A333536203A2036
S315200030B068616E646C6500002E6C70756172745F59
S315200030C0616461707465722E633A333537203A2015
S315200030D064617461000000002E6C70756172745F0B
S315200030E0616461707465722E633A333538203A20F4
S315200030F06C656E67746800FF2E73657269616C5F1C
S315200031006D616E616765722E633A373933203A20D6
S31520003110777269746548616E646C65002E7365729A
S3152000312069616C5F6D616E616765722E633A3739CE
S3152000313034203A2062756666657200002E736572C9
S3152000314069616C5F6D616E616765722E633A3739AE
S3152000315035203A206C656E67746800002E736572A0
S3152000316069616C5F6D616E616765722E633A383096
S3152000317030203A2068616E646C6500FF2E7365729C
S3152000318069616C5F6D616E616765722E633A383274
S3152000319038203A20636F6E66696700002E73657269
S315200031A069616C5F6D616E616765722E633A383353
S315200031B033203A2073657269616C48616E646C6570
S315200031C000FFFFFF2E73657269616C5F6D616E6132
S315200031D06765722E633A31303130203A207365723A
S315200031E069616C48616E646C650000002E736572BF
S315200031F069616C5F6D616E616765722E633A31300D
S315200032003131203A20777269746548616E646C6545
S3152000321000FFFFFF2E73657269616C5F6D616E61E1
S315200032206765722E633A31303638203A20736572DC
S3152000323069616C48616E646C650000002E7365726E
S3152000324069616C5F6D616E616765722E633A3130BC
S315200032503639203A207265616448616E646C650077
S315200032602E73657269616C5F706F72745F756172BF
S31520003270742E633A313339203A2073657269616C52
S31520003280436F6E66696700002E73657269616C5FB5
S31520003290706F72745F756172742E633A31343020A8
S315200032A03A2073657269616C48616E646C6500FFD3
S315200032B02E73657269616C5F706F72745F7561726F
S315200032C0742E633A323637203A2073657269616C00
S315200032D048616E646C6500002E73657269616C5F6F
S315200032E0706F72745F756172742E633A323638204D
S315200032F03A20627566666572000000002E7365725C
S3152000330069616C5F706F72745F756172742E633A57
S31520003310323639203A206C656E67746800FFFFFFED
S31520003320000201000001FFFF000000000000010074
S315200033302E7065726970686572616C732E633A3897
S3152000334034203A206B5374617475735F53756363CD
S31520003350657373203D3D20726573756C7400FFFFA5
S3152000336001000000801A0600640000000101FFFF32
S31520003370030000002A2A2A2061737365727420666E
S3152000338061696C6564203A20002A2A2A205F4373EB
S3152000339079735F616C6C6F63206661696C65640A22
S30D200033A00072007700FFFFFF19
S3092000348000127A0096
S7051FFFE0D527
