S024000056565F726576425F706C6174666F726D5F4652414D5F4552415345522E73726563FC
S3151FFF8000008001203581FF1FA381FF1FF18AFF1FFC
S3151FFF8010000000000000000000000000000000003C
S3151FFF8020000000000000000000000000A781FF1FE6
S3151FFF80300000000000000000A981FF1FAB81FF1F8A
S3151FFF8040AF81FF1FB781FF1FBF81FF1FC781FF1FA4
S3151FFF8050CF81FF1FD781FF1FDF81FF1FE781FF1F14
S3151FFF8060EF81FF1FF781FF1FFF81FF1F0782FF1F83
S3151FFF80700F82FF1F1782FF1F1F82FF1F2782FF1FF0
S3151FFF80802F82FF1F3782FF1F3F82FF1F4782FF1F60
S3151FFF80904F82FF1F5782FF1F5F82FF1F6782FF1FD0
S3151FFF80A06F82FF1F7782FF1F7F82FF1F8782FF1F40
S3151FFF80B08F82FF1F9782FF1F9F82FF1FA782FF1FB0
S3151FFF80C0AF82FF1FB782FF1FBF82FF1FC782FF1F20
S3151FFF80D0CF82FF1FD782FF1FDF82FF1FE782FF1F90
S3151FFF80E0EF82FF1FF782FF1FFF82FF1F0783FF1FFF
S3151FFF80F00F83FF1F1783FF1F1F83FF1F2783FF1F6C
S3151FFF81002F83FF1F3783FF1F3F83FF1F80C3FF1F62
S3151FFF811080C3FF1F04000000C8C2FF1F00001040DE
S3151FFF81200000000084C3FF1F58010000000010401D
S3151FFF81300000000010B572B602F032F80D4B07E0D3
S3151FFF8140186859681C000C349A6800F019F8230048
S3151FFF8150094A9342F4D306E018681C00083459688D
S3151FFF816000F017F82300054A9342F5D362B600F0D5
S3151FFF8170BFFAFEE70C81FF1F2481FF1F3481FF1FFC
S3151FFF818010B50023934203D210C810C10433F9E779
S3151FFF819010BD00238B4203D2002204C00433F9E72C
S3151FFF81A07047FEE7FEE7FEE7FEE7FEE7FEE710B5D1
S3151FFF81B0FFF7FCFF10BD10B5FFF7F8FF10BD10B599
S3151FFF81C0FFF7F4FF10BD10B5FFF7F0FF10BD10B599
S3151FFF81D0FFF7ECFF10BD10B5FFF7E8FF10BD10B599
S3151FFF81E0FFF7E4FF10BD10B5FFF7E0FF10BD10B599
S3151FFF81F0FFF7DCFF10BD10B5FFF7D8FF10BD10B599
S3151FFF8200FFF7D4FF10BD10B5FFF7D0FF10BD10B598
S3151FFF821001F090FF10BD10B501F09EFF10BD10B508
S3151FFF822001F0D8FC10BD10B501F0E0FC10BD10B574
S3151FFF8230FFF7BCFF10BD10B5FFF7B8FF10BD10B598
S3151FFF8240FFF7B4FF10BD10B5FFF7B0FF10BD10B598
S3151FFF8250FFF7ACFF10BD10B5FFF7A8FF10BD10B598
S3151FFF8260FFF7A4FF10BD10B5FFF7A0FF10BD10B598
S3151FFF8270FFF79CFF10BD10B5FFF798FF10BD10B598
S3151FFF8280FFF794FF10BD10B5FFF790FF10BD10B598
S3151FFF8290FFF78CFF10BD10B5FFF788FF10BD10B598
S3151FFF82A0FFF784FF10BD10B5FFF780FF10BD10B598
S3151FFF82B0FFF77CFF10BD10B5FFF778FF10BD10B598
S3151FFF82C0FFF774FF10BD10B5FFF770FF10BD10B598
S3151FFF82D0FFF76CFF10BD10B501F050FF10BD10B5B5
S3151FFF82E0FFF764FF10BD10B501F08CFC10BD10B574
S3151FFF82F0FFF75CFF10BD10B5FFF758FF10BD10B598
S3151FFF8300FFF754FF10BD10B5FFF750FF10BD10B597
S3151FFF8310FFF74CFF10BD10B5FFF748FF10BD10B597
S3151FFF8320FFF744FF10BD10B5FFF740FF10BD10B597
S3151FFF8330FFF73CFF10BD10B5FFF738FF10BD10B597
S3151FFF8340FFF734FF10BDFFFFFFFFFFFFFFFFFFFF1D
S3151FFF8350FFFFFFFFFFFFFFFFFFFFFFFFFFFFFFFF09
S3151FFF8360FFFFFFFFFFFFFFFFFFFFFFFFFFFFFFFFF9
S3151FFF8370FFFFFFFFFFFFFFFFFFFFFFFFFFFFFFFFE9
S3151FFF8380FFFFFFFFFFFFFFFFFFFFFFFFFFFFFFFFD9
S3151FFF8390FFFFFFFFFFFFFFFFFFFFFFFFFFFFFFFFC9
S3151FFF83A0FFFFFFFFFFFFFFFFFFFFFFFFFFFFFFFFB9
S3151FFF83B0FFFFFFFFFFFFFFFFFFFFFFFFFFFFFFFFA9
S3151FFF83C0FFFFFFFFFFFFFFFFFFFFFFFFFFFFFFFF99
S3151FFF83D0FFFFFFFFFFFFFFFFFFFFFFFFFFFFFFFF89
S3151FFF83E0FFFFFFFFFFFFFFFFFFFFFFFFFFFFFFFF79
S3151FFF83F0FFFFFFFFFFFFFFFFFFFFFFFFFFFFFFFF69
S3151FFF8400FFFFFFFFFFFFFFFFFFFFFFFFFE3DFFFF1B
S3151FFF841090B587B002AFF860B9607A603B60BC6801
S3151FFF8420FA68396803487B680093230000F00EF94A
S3151FFF843000BEFDE7ECB8FF1FB0B584B000AF786094
S3151FFF844039607B68002B06D1164B174AF621490068
S3151FFF84501648FFF7DDFF3B68002B06D1144B124A68
S3151FFF8460EE21FF311148FFF7D3FF124B1B68002B7D
S3151FFF847001D1002311E00E257C193A6879680E4B4E
S3151FFF8480180003F07EF9030023807B191B88002B3E
S3151FFF849001D13B6801E001235B421800BD4604B0D2
S3151FFF84A0B0BDC0462CB9FF1F84B9FF1F38B9FF1FC8
S3151FFF84B050B9FF1FA0C3FF1F98C3FF1FB0B58CB0D6
S3151FFF84C000AFB96011007B600F243B19021C1A70A5
S3151FFF84D00E203B180A1C1A702E23FB1800221A8027
S3151FFF84E014217B187A681A607B18BA685A607B1842
S3151FFF84F000221A727B1800225A727B183A191278B9
S3151FFF85009A727B180122DA727B1801221A732424AE
S3151FFF85103B193A1812781A703B181B78012B03D197
S3151FFF85203B197A185A6021E00E23FB181B78022B82
S3151FFF853004D12E23FB183A4A1A8017E00E23FB1885
S3151FFF85401B78032B04D12E23FB18354A1A800DE007
S3151FFF85500E23FB181B78042B04D12E23FB18304A3E
S3151FFF85601A8003E02E23FB182D4A1A802E243B194F
S3151FFF85701B882B4A93424CD02A4B1C2200211800E2
S3151FFF858003F0A5F9274B274A1A61264B1B692500BE
S3151FFF85903C192422BA181100180001F079FF0300B5
S3151FFF85A023807B191B88002B05D01F4B1F4A204991
S3151FFF85B02048FFF72DFF1B4B1B692E257C191E4AD3
S3151FFF85C01100180001F0B2FF030023807B191B88DF
S3151FFF85D0002B05D0144B154A18491648FFF718FFED
S3151FFF85E0104B1B692E257C19154A1100180001F027
S3151FFF85F0DFFF030023807B191B88002B05D00A4B47
S3151FFF86000A4A10490B48FFF703FF064B1A690E4B21
S3151FFF86101A602E23FB181B881800BD460CB0B0BD71
S3151FFF86202135000084C3FF1F5CB9FF1FA0B9FF1FC1
S3151FFF8630FA02000038B9FF1F98C3FF1F050300008A
S3151FFF86409CC3FF1F12030000A0C3FF1F0FB4F0B58B
S3151FFF8650C64600B5A4B000AF002388243A1913609D
S3151FFF866000238C257A1913603B1D00221A600433E1
S3151FFF86707C220021180003F02AF91B4B1B68002BD5
S3151FFF868026D09C230822944608229046B844C44409
S3151FFF8690634484217A181360144B3A1D79180968AD
S3151FFF86A098200826B4460826B046B844C4446044FA
S3151FFF86B0006802F0A3FD03003A1913603B191A68FD
S3151FFF86C03B1D11001800FFF7B7FE03007A19136051
S3151FFF86D08C23FB181B681800BD4624B004BC9046AC
S3151FFF86E0F0BC08BC04B01847A0C3FF1FADADFF1FEA
S3151FFF86F080B582B000AFFB1C00221A7003F0D7F8BB
S3151FFF870003F0BEF800F050F903F0CAF800F04CF979
S3151FFF871080235A00134B11001800FFF797FF00F035
S3151FFF872059F8114B1800FFF791FF00F0B3F803003C
S3151FFF87307B607B685A425341DAB2FB1C1A70FB1CE3
S3151FFF87401B78DBB2002B04D0084B1800FFF77EFF08
S3151FFF875003E0074B1800FFF779FF00F043F9C04608
S3151FFF8760FDE7C046B0B9FF1FD8B9FF1FFCB9FF1FF2
S3151FFF877024BAFF1F80B588B002AFF860B9607A6070
S3151FFF87807A6880235B009A4201D901231AE0FB68AE
S3151FFF87901B0ADAB20D4B1A70FB68DAB20B4B5A7013
S3151FFF87A07A68B9680A4B180003F088F87B68991C2A
S3151FFF87B00648002300930023562200F031F90300D9
S3151FFF87C07B617B691800BD4606B080BDA4C3FF1F32
S3151FFF87D0A6C3FF1F90B5C5B000AF00237A1DFF329A
S3151FFF87E01360002386225200BA181360254B882276
S3151FFF87F052009446BC44634400221A600433FC2291
S3151FFF88000021180003F063F8002384225200BA18D0
S3151FFF8810136026E080235A00391D862464003B1906
S3151FFF88201B681800FFF7A6FF2200BB181B68013342
S3151FFF8830FF33BA181360144B1800FFF707FF842383
S3151FFF88405B00FB181B683F22134003D10F4B180019
S3151FFF8850FFF7FCFE84225200BB181B680133BA18B0
S3151FFF8860136084235B00FB181B681F2BD2D9084B91
S3151FFF88701800FFF7EBFE7B1DFF331B681800BD4675
S3151FFF888045B090BDF4FEFFFF50BAFF1F54BAFF1F3E
S3151FFF889058BAFF1F90B5C5B000AF002386225200FE
S3151FFF88A0BA181360002384225200BA181360394B7B
S3151FFF88B088225200BA18D218374B1000190080238E
S3151FFF88C05B001A0002F0FAFF00237A1DFF321360C6
S3151FFF88D04FE080235A003900842464003B191B682C
S3151FFF88E0180002F0F6FD0200862149007B181B685F
S3151FFF88F013437A1813603B191B680133FF333A1969
S3151FFF8900136000237A1CFF32136018E0214B882265
S3151FFF89105200BA18D2187B1CFF331B68D3181B785B
S3151FFF8920002B05D0012386225200BA1813600BE0D5
S3151FFF89307B1CFF331B6801337A1CFF3213607B1CC2
S3151FFF8940FF331B68FF2BE1DD144B1800FFF77EFE7D
S3151FFF89507B1DFF331B683F22134003D1104B1800AB
S3151FFF8960FFF774FE7B1DFF331B6801337A1DFF3232
S3151FFF897013607B1DFF331B681F2BAAD9094B1800DA
S3151FFF8980FFF764FE86235B00FB181B681800BD46B6
S3151FFF899045B090BDF0FEFFFF60BAFF1F50BAFF1F25
S3151FFF89A054BAFF1F58BAFF1F80B582B000AF80238E
S3151FFF89B0DB030A4A1900100002F073FD00237B60D8
S3151FFF89C003E0C0467B6801337B607B68044A9342A2
S3151FFF89D0F7D9C046C046BD4602B080BD00F1004074
S3151FFF89E09F86010080B582B000AF8023DB030A4A52
S3151FFF89F01900100002F061FD00237B6003E0C046F3
S3151FFF8A007B6801337B607B68044A9342F7D9C04674
S3151FFF8A10C046BD4602B080BD00F100409F860100E3
S3151FFF8A2080B58CB000AFF860B9603B60FB1D1A7054
S3151FFF8A30FB1D1B789AB214217B189A807B18002284
S3151FFF8A409A717B183A689A603823FB181A787B1835
S3151FFF8A50DA607B18FA681A617B18BA685A617B1845
S3151FFF8A6000221A60074B00225A617B18054A19001C
S3151FFF8A70100000F07FFF0300FB62FB6A1800BD4674
S3151FFF8A800CB080BD00100C4080B58CB000AFF860F5
S3151FFF8A90B9603B60FB1D1A70FB1D1B789AB2142130
S3151FFF8AA07B189A807B1801229A717B183A689A6005
S3151FFF8AB03823FB181A787B18DA607B18FA681A6155
S3151FFF8AC07B18BA685A617B1800221A60074B00226F
S3151FFF8AD05A617B18054A1900100000F04BFF03006F
S3151FFF8AE0FB62FB6A1800BD460CB080BD00100C4030
S3151FFF8AF004207146084202D0EFF3098001E0EFF32D
S3151FFF8B00088081690A88054B9A4200D0FEE7023129
S3151FFF8B108161202101607047C0460000ABBE000087
S3151FFF8B2080B586B000AF78607B681B68BB60BB688B
S3151FFF8B30002B06DB334B344A1821FF313348FFF72F
S3151FFF8B4067FC7B68324A934204D11723FB18002226
S3151FFF8B501A7003E01723FB1802221A70BB681B0E3D
S3151FFF8B6007221340062B23D02BD8032B17D028D829
S3151FFF8B70012B02D0022B09D023E01723FB181B78EA
S3151FFF8B80180000F073F803003B611DE01723FB1865
S3151FFF8B901B78180000F052F903003B6114E01723FE
S3151FFF8BA0FB181B78180000F07BFA03003B610BE0F4
S3151FFF8BB01723FB181B78180000F010FB03003B61FF
S3151FFF8BC002E000233B61C046BB680F22134011D052
S3151FFF8BD0BB68DB080122134001333A695A43BB685E
S3151FFF8BE007210B4001331900100001F069FF030035
S3151FFF8BF0FB6001E03B69FB60FB681800BD4606B0E2
S3151FFF8C0080BDC04680BBFF1F9CBBFF1F70BBFF1FE6
S3151FFF8C1054A1074080B582B000AF0E4A80235B0088
S3151FFF8C20D25880235B0413400DD00B4B1B68002BC0
S3151FFF8C3005D10A4B0A4A0B490B48FFF7E9FB064BBF
S3151FFF8C401B687B6001E000237B607B681800BD46C5
S3151FFF8C5002B080BD00B00740A8C4FF1F64BBFF1F43
S3151FFF8C60ACBBFF1F1B02000070BBFF1F80B586B08A
S3151FFF8C7000AF0200FB1D1A70FFF7CCFF0300FB605E
S3151FFF8C8000237B61FB68002B26D0FB1D1B78022B65
S3151FFF8C9005D01EDC002B14D0012B09D019E0174A73
S3151FFF8CA082235B00D3581B0C072213407B6114E002
S3151FFF8CB0124A82235B00D3581B0A072213407B618C
S3151FFF8CC00BE00E4A82235B00D358072213407B61BA
S3151FFF8CD003E000237B6100E0C0467B69002B06D0C3
S3151FFF8CE07B69013BFA68DA4013003B6101E0002311
S3151FFF8CF03B613B691800BD4606B080BD00B007400B
S3151FFF8D0080B584B000AF78607B68002B05D1214BFF
S3151FFF8D10214A22492248FFF77BFB00F045F8030053
S3151FFF8D20FB60FB68002B30D17B681B791A0007237A
S3151FFF8D301A407B685B791902E023DB000B401A435D
S3151FFF8D407B689B791904E023DB020B4015491A4305
S3151FFF8D5081239B00CA507B68DB791A0011490123C7
S3151FFF8D601A4082239B00CA507B681B680D4901224C
S3151FFF8D701A4380239B00CA50C0460A4A80239B0082
S3151FFF8D80D25880235B041340F7D0FB681800BD46FB
S3151FFF8D9004B080BD30BCFF1FC0BBFF1F61020000B8
S3151FFF8DA070BBFF1F00B0074080B582B000AF104AEF
S3151FFF8DB080239B00D3583B603A6880239B04134054
S3151FFF8DC002D00C4B7B600EE03A6880231B041340D6
S3151FFF8DD002D002237B6006E0054A80239B00002109
S3151FFF8DE0D15000237B607B681800BD4602B080BD53
S3151FFF8DF000B007403508000080B582B000AF0D4AAE
S3151FFF8E0080239B00D25880235B0413400AD0094A54
S3151FFF8E1082239B00D35801221A40074B9200D35837
S3151FFF8E207B6001E000237B607B681800BD4602B0B4
S3151FFF8E3080BDC04600B00740D0BBFF1F80B586B0C0
S3151FFF8E4000AF0200FB1D1A70FFF7D6FF0300FB6082
S3151FFF8E5000237B61FB68002B26D0FB1D1B78022B93
S3151FFF8E6005D01EDC002B14D0012B09D019E0174AA1
S3151FFF8E7081239B00D3581B0C072213407B6114E0F1
S3151FFF8E80124A81239B00D3581B0A072213407B617B
S3151FFF8E900BE00E4A81239B00D358072213407B61A9
S3151FFF8EA003E000237B6100E0C0467B69002B06D0F1
S3151FFF8EB07B69013BFA68DA4013003B6101E000233F
S3151FFF8EC03B613B691800BD4606B080BD00B0074039
S3151FFF8ED080B584B000AF78607B68002B05D1454B0A
S3151FFF8EE0454A46494648FFF793FA00F08DF80300B7
S3151FFF8EF0FB60FB68002B01D0FB6877E07B681B7963
S3151FFF8F001A0007231A407B685B791902E023DB00EF
S3151FFF8F100B401A437B689B791904E023DB020B4046
S3151FFF8F2038491A43C1239B00CA507B68DB791A0055
S3151FFF8F30344903231A40C2239B00CA507B689B6890
S3151FFF8F40002B3CD07B689B68DB781A02E023DB0093
S3151FFF8F501A407B689B689B78190003230B4029499E
S3151FFF8F601A43C3239B00CA507B689B681A888023BA
S3151FFF8F705B009A4211D17B689B681B791A02FC23FF
S3151FFF8F809B011A407B689B685B7919007F230B4007
S3151FFF8F901C491A43C6239B00CA507B689B681B88C4
S3151FFF8FA0184A1900C0239B00D150164AC0239B00A5
S3151FFF8FB0D2588023DB04134001D0012316E0114A48
S3151FFF8FC0C0239B00D2587B681B6813430D490122A0
S3151FFF8FD01A43C0239B00CA50C0460A4AC0239B00A0
S3151FFF8FE0D25880235B041340F7D000231800BD46D9
S3151FFF8FF004B080BD30BCFF1FD8BBFF1FF1020000AE
S3151FFF900070BBFF1F00B0074080B582B000AF114A8B
S3151FFF9010C0239B00D3583B6000237B603A688023A5
S3151FFF90209B04134002D00C4B7B600DE03A688023F4
S3151FFF90301B04134002D002237B6005E00549C023B2
S3151FFF90409B008022D204CA507B681800BD4602B01F
S3151FFF905080BDC04600B007403508000080B582B00E
S3151FFF906000AF0D4AC0239B00D25880235B041340D9
S3151FFF90700AD0094AC2239B00D35803221A40074B23
S3151FFF90809200D3587B6001E000237B607B6818004A
S3151FFF9090BD4602B080BDC04600B00740E8BBFF1FFC
S3151FFF90A080B586B000AF0200FB1D1A70FFF7D6FF13
S3151FFF90B00300FB6000237B61FB68002B26D0FB1D93
S3151FFF90C01B78022B05D01EDC002B14D0012B09D0D9
S3151FFF90D019E0174AC1239B00D3581B0C07221340C5
S3151FFF90E07B6114E0124AC1239B00D3581B0A072238
S3151FFF90F013407B610BE00E4AC1239B00D358072207
S3151FFF910013407B6103E000237B6100E0C0467B6960
S3151FFF9110002B06D07B69013BFA68DA4013003B61DF
S3151FFF912001E000233B613B691800BD4606B080BDC9
S3151FFF913000B0074080B582B000AF00237B60194A9D
S3151FFF9140C123DB00D3580122134004D0FFF786FF4C
S3151FFF915003007B6003E0FFF75DFD03007B607B6819
S3151FFF9160002B19D00F4AC123DB00D3581B0A072236
S3151FFF9170134001331900786801F0A2FC03007B60DE
S3151FFF9180084AC123DB00D3581B0C1F221340103381
S3151FFF91901A007B6853437B607B681800BD4602B08D
S3151FFF91A080BDC04600B0074080B582B000AF0A4AF7
S3151FFF91B0C023DB00D25880235B04134006D0FFF782
S3151FFF91C0B9FF03007B607B685B0800E00023180084
S3151FFF91D0BD4602B080BDC04600B0074080B586B011
S3151FFF91E000AF0200FB1D1A70FFF7DEFF0300FB60D7
S3151FFF91F000237B61FB68002B23D0FB1D1B78022BF3
S3151FFF920005D01BDC002B12D0012B08D016E0164A07
S3151FFF9210164BD3581B0C072213407B6112E0124AD1
S3151FFF9220124BD3581B0A072213407B610AE00E4AD3
S3151FFF92300E4BD358072213407B6103E000237B614C
S3151FFF924000E0C0467B69002B06D07B69013BFA68AD
S3151FFF9250DA4013003B6101E000233B613B691800C5
S3151FFF9260BD4606B080BDC04600B0074004060000DD
S3151FFF927080B586B000AFF860B9607A607B68002B57
S3151FFF928005D1154B154A16486421FFF7C1F801236F
S3151FFF92907B617B681B78002B0AD1FB685B69796949
S3151FFF92A0BA6891400A00D2431A40FB685A610FE021
S3151FFF92B07B685A78B968FB68180002F01FF9FB68CC
S3151FFF92C05A697969BB6899400B001A43FB685A6153
S3151FFF92D0C046BD4606B080BD28BCFF1F38BCFF1F5A
S3151FFF92E01CBCFF1F80B582B000AF78607B681B6810
S3151FFF92F0002B05DB084B094A09490A48FFF788F87F
S3151FFF93007B681A687B688021C9050A431A60C046B5
S3151FFF9310BD4602B080BDC04648BCFF1FA0BDFF1F94
S3151FFF93208502000084BCFF1F80B584B000AF786044
S3151FFF93300023FB6009E00E4BFA689200D3587A6848
S3151FFF93409A4206D0FB680133FB60FB68022BF2D9FA
S3151FFF935000E0C046FB68022B05D9064B064A0748A5
S3151FFF9360A821FFF755F8FB681800BD4604B080BD5E
S3151FFF937094BCFF1FACBCFF1F74BDFF1FD0BCFF1FDC
S3151FFF938080B586B000AFF860B9607A603B60FB6856
S3151FFF9390002B05D1224B234A2348B821FFF738F864
S3151FFF93A03B68002B05D1214B1E4A1F48B921FFF7EA
S3151FFF93B02FF83968F86801F083FB03001A00FA23B8
S3151FFF93C09900100001F07CFB03001900184801F0FB
S3151FFF93D077FB03003B6100237B6102E07B6901335F
S3151FFF93E07B617B6901333A695343BA689A4204D951
S3151FFF93F07B6901337A689A42F0D87B69002B0AD1C1
S3151FFF9400BA6813009B009B185B001A003B699342C7
S3151FFF941001D801237B617B691800BD4606B080BD5D
S3151FFF9420E0BCFF1F88BDFF1FD0BCFF1FF4BCFF1F83
S3151FFF943040420F0080B584B000AF786039600023CB
S3151FFF9440FB603A68F0239B0113403B603B68002B90
S3151FFF94502BD03A6880239B01134002D0154BFB602C
S3151FFF946016E03A6880231B01134002D0124BFB60A4
S3151FFF94700EE03A688023DB00134002D00F4BFB60E0
S3151FFF948006E03A6880235B01134001D00C4BFB605B
S3151FFF94903A687B681100180002F079F87B681B6930
S3151FFF94A0C02292001A437B681A61FB681800BD46EB
S3151FFF94B004B080BD8A0300008903000086030000F5
S3151FFF94C08703000080B58AB000AFF860B9607A6085
S3151FFF94D0FB681800FFF728FF03003B626D4B3A6AD4
S3151FFF94E09200D3581800FFF7FDFEFB68180002F025
S3151FFF94F021F8BB689B78DB0008221A40BB685B78A4
S3151FFF950001214B40DBB29B0004210B401A43FB6832
S3151FFF95101A61FB681B6AFB61FB6907229343FB61A9
S3151FFF9520BB689B7D1900BB681B7E5B000222134035
S3151FFF95300A001A43BB68DB7D9B0004210B401343C4
S3151FFF9540FA691343FB61FB68FA691A62FB685B6A78
S3151FFF9550FB61FB69504A1340FB61BB681B791A0607
S3151FFF9560E023DB041340FA691343FB61BB68DB7817
S3151FFF95705A0280239B001340FA691343FB61FB6862
S3151FFF9580FA695A62FB6800220021180002F00BF8E5
S3151FFF9590BB689A687968FB68180000F089F8FB6852
S3151FFF95A05B6A07221340BB61FB689B6A7B62BB68D2
S3151FFF95B0DB68002B12D0BB68D968BB69374A78684E
S3151FFF95C0FFF7DEFE03007B617B6A1B0B1B037B62C0
S3151FFF95D07B691B051B0D7A6A13437B62BB681B7D69
S3151FFF95E0002B15D0BB681B7D1900786801230F223E
S3151FFF95F0FFF7C6FE03007B617B6A294A13407B6226
S3151FFF96007B691A06F0231B0513407A6A13437B6295
S3151FFF9610BB685B7D002B15D0BB685B7D1900786827
S3151FFF962001230F22FFF7ACFE03007B617B6A1D4AF6
S3151FFF963013407B627B691A04F0231B0313407A6A6C
S3151FFF964013437B62FB687A6A9A62BB681B69002BAE
S3151FFF965014D0BB681B69190ABB69104A7868FFF7E4
S3151FFF96608FFE03007B61FB68DB6A0F4A1A407B692B
S3151FFF96701B020E490B401A43FB68DA62BB681A7856
S3151FFF9680FB681100180001F063FFC046BD460AB014
S3151FFF969080BDC046A0BCFF1FFFFDFFF8FF0F0000E8
S3151FFF96A0FFFFFFF0FFFFF0FFFF00F0FF00FF0F00C0
S3151FFF96B0B0B58EB000AFF860B9607A6000237B63E8
S3151FFF96C000233B630023FB6200237B6101235B4275
S3151FFF96D0BB62FB681B6901221A401323FB18511E2D
S3151FFF96E08A411A70FB680021180001F031FF012320
S3151FFF96F07B6356E0BB6A002B57D001233B6248E0D2
S3151FFF97003B6A012B12D1796BB86801F0D9F90300B7
S3151FFF97101C00796B022001F0D3F9030006331900F1
S3151FFF9720200001F0CDF90300FB6116E0796BB868E5
S3151FFF973001F0C6F903001D003A6A13005B009C186F
S3151FFF9740796B022001F0BCF90300E31802331900FD
S3151FFF9750280001F0B5F90300FB617A68FB699A429D
S3151FFF976003D97A68FB69D31A02E0FA697B68D31AB1
S3151FFF97707B617A69BB6A9A4208D27B6B3B633B6A02
S3151FFF9780FB627B69BB627B69002B06D03B6A013399
S3151FFF97903B623B6A1F2BB3D900E0C0467B6B5B0066
S3151FFF97A07B637B6B802BA5D900E0C046FB6A1A0241
S3151FFF97B0FC239B0113407B62FB6A012B04D87B6A48
S3151FFF97C0234A13437B6213E0FB6A5B003E221A4068
S3151FFF97D0FB6A1904FC239B030B401A43FB6A5B08B6
S3151FFF97E01906FC239B050B4013437A6A13437B62BF
S3151FFF97F0FB687A6A9A640023BB610CE00122BB698E
S3151FFF98009A4013003A6B9A4202D1BB693B6305E04C
S3151FFF9810BB690133BB61BB69072BEFD9FB685B6A6A
S3151FFF9820072293431A003B6B07210B401A43FB6822
S3151FFF98305A621323FB181B78002B04D0FB680121E8
S3151FFF9840180001F085FEC046BD460EB0B0BDC0462E
S3151FFF98500300020180B588B000AFF860B9607A6077
S3151FFF9860BB68002B06D1264B264ABA2189002648FC
S3151FFF9870FEF7CEFD7B68002B01D100233BE0FB6883
S3151FFF9880180001F0C2FE0300BB61BB69002B01D0AC
S3151FFF9890BB6930E07B68013BFF22134080225200E9
S3151FFF98A01A43FB681A66BB68FB611EE0FB6818005C
S3151FFF98B001F063FE0200FB6811001800FFF7BAFDF7
S3151FFF98C00300BB61BB69002B01D0BB6913E0FB68BB
S3151FFF98D01B6F7B617A698023DB011340E6D1FB692E
S3151FFF98E05A1CFA617A69D2B21A707B685A1E7A605D
S3151FFF98F0002BDBD100231800BD4608B080BDC04634
S3151FFF990004BDFF1FB4BDFF1FD0BCFF1F80B586B0B0
S3151FFF991000AFF860B9607A60BB687B61BB68002BDC
S3151FFF992018D1114B114ACD2189001148FEF770FD41
S3151FFF9930FB68180001F069FE03003B613B69002BC2
S3151FFF994001D03B690CE07B695A1C7A611B781A00B0
S3151FFF9950FB681A667B685A1E7A60002BE8D10023C4
S3151FFF99601800BD4606B080BD14BDFF1FC8BDFF1F33
S3151FFF9970D0BCFF1F80B58AB000AF78603960002367
S3151FFF99807B6200233B623B68002B06D16E4B6F4AFF
S3151FFF9990D72189006E48FEF73BFD3B68DB68042B2A
S3151FFF99A005D96C4B694A6C496948FEF731FD7B68DF
S3151FFF99B0180001F056FE03007B627B6A002B01D065
S3151FFF99C07B6ABDE0FE23DA017B681100180001F0F8
S3151FFF99D0DEFD7B685B6A614A1A407B685A623B6899
S3151FFF99E0DB68002B02D13B689A7900E00022172122
S3151FFF99F07B181A703B681B680122134013D13B6803
S3151FFF9A009B88DB189AB27B181B789BB213439AB2BB
S3151FFF9A103B6A591C39628021C9000A4391B2082249
S3151FFF9A20BA185B0099523B68DB68002B1AD03B685C
S3151FFF9A30DB68FB6111E03B689A68FB69DB00DA4074
S3151FFF9A4016217B181A703B6A5A1C3A627A181278CB
S3151FFF9A5091B20822BA185B009952FB695A1EFA6126
S3151FFF9A60002BE8D13B685B69002B16D03B689B79BF
S3151FFF9A70012B12D11723FB181B78002B0DD13B6827
S3151FFF9A809B88DB189AB23B6A591C396234490A43D1
S3151FFF9A9091B20822BA185B0099520023BB6115E0E9
S3151FFF9AA07B68180001F0B1FD03007B627B6A002B08
S3151FFF9AB001D07B6A44E00823FB18BA695200D35AC8
S3151FFF9AC01A007B681A66BB690133BB613B6A5A1E64
S3151FFF9AD03A62002BE4D13B689B79002B0DD13B6883
S3151FFF9AE05B69002B09D03B6819693B685A697B681C
S3151FFF9AF01800FFF70BFF03007B623B689B79012B67
S3151FFF9B000DD13B685B69002B09D03B6819693B6820
S3151FFF9B105A697B681800FFF79DFE03007B627B6A0D
S3151FFF9B20002B01D07B6A0BE03B681B6804221340A6
S3151FFF9B3005D17B68180001F0B2FD03007B627B6ACB
S3151FFF9B401800BD460AB080BD24BDFF1FDCBDFF1F29
S3151FFF9B50D0BCFF1F38BDFF1F5D030000FFFEFFFFC9
S3151FFF9B600104000080B582B000AF786039607B6862
S3151FFF9B701B69012213400CD0124B1B68002B08D008
S3151FFF9B80104B1B68104A3968890089587A6810007C
S3151FFF9B9098477A6888235B00D358012213400CD05D
S3151FFF9BA00A4B1B68002B08D0084B1B68084A3968ED
S3151FFF9BB0890089587A6810009847C046BD4602B08B
S3151FFF9BC080BDC046ACC4FF1FB0C4FF1FBCC4FF1F70
S3151FFF9BD0C0C4FF1F80B500AF034B00211800FFF75E
S3151FFF9BE0C1FFC046BD4680BD00000C4080B500AF1B
S3151FFF9BF0034B01211800FFF7B5FFC046BD4680BDC9
S3151FFF9C0000100C4080B500AF034B02211800FFF771
S3151FFF9C10A9FFC046BD4680BD0020044080B582B067
S3151FFF9C2000AF78607B681B68002B05DB084B094A72
S3151FFF9C3009490A48FEF7ECFB7B681A687B68802197
S3151FFF9C40C9050A431A60C046BD4602B080BDC0465D
S3151FFF9C5048BCFF1F28BFFF1F8502000084BCFF1FD4
S3151FFF9C6080B584B000AF78600023FB6009E00E4B20
S3151FFF9C70FA689200D3587A689A4206D0FB68013376
S3151FFF9C80FB60FB68022BF2D900E0C046FB68022B84
S3151FFF9C9005D9064B064A07487E21FEF7B9FBFB6827
S3151FFF9CA01800BD4604B080BDFCBDFF1F14BEFF1FBD
S3151FFF9CB008BFFF1F3CBEFF1F80B58CB000AFF8600B
S3151FFF9CC0B9607A60BB68002B05D1C74BC74AC84826
S3151FFF9CD0F521FEF79DFBBB681B68002B05D1C54B06
S3151FFF9CE0C24AC348F621FEF793FBBB681B7A042BB8
S3151FFF9CF005D9C14BBD4ABE48F821FEF789FBBB6894
S3151FFF9D005B7A042B05D9BD4BB84AB948F921FEF733
S3151FFF9D107FFB0023FB62BB681B68FB612323FB18CA
S3151FFF9D2000221A702623FB1800221A802223FB18F3
S3151FFF9D3004221A7055E07A6813009B009B185B007C
S3151FFF9D401800BB681B682222BA18127853431900E2
S3151FFF9D5000F0B6FE030005330A21180000F0B0FE1F
S3151FFF9D6003001A0024217B181A800A00BB181B88C0
S3151FFF9D70002B02D1BB1801221A802223FB181B7846
S3151FFF9D802422BA18128853431900786800F098FEE8
S3151FFF9D9003007B61BB681B687A699A4204D9BB685B
S3151FFF9DA01B687A69D31A03E0BB681A687B69D31AE3
S3151FFF9DB03B613A69FB699A420DD83B69FB612323D5
S3151FFF9DC0FB182222BA1812781A702623FB18242290
S3151FFF9DD0BA1812881A8022217B181A787B1801322B
S3151FFF9DE01A702223FB181B78202BA4D9BB681B686C
S3151FFF9DF06421180000F064FE03001A0013005B00C5
S3151FFF9E009B18FA699A4202D97D4BFB62E7E0FB6812
S3151FFF9E101800FFF725FF0300BB617A4BBA69920053
S3151FFF9E20D3581800FFF7FAFEFB68180001F072FC03
S3151FFF9E30FB681B69BB622322BB181B78032B08D940
S3151FFF9E40BB181B78072B04D8BB6A802292021343C9
S3151FFF9E50BB62BB6A6C4A1340BB622323FB181B788A
S3151FFF9E60013B1A06F8235B051340BA6A1343BB620D
S3151FFF9E70BB6A5B0B5B03BB622623FB181B88DB04DA
S3151FFF9E80DA0CBB6A1A43FB681A61FB681B695F4AD8
S3151FFF9E901A40FB681A61FB689B695D4A1340BB62E8
S3151FFF9EA0BB681B791900BB68DB7B1A02E023DB004B
S3151FFF9EB013400A001A43BB689B7B9B0004210B4080
S3151FFF9EC01343BA6A1343BB62BB681B79002B03D0CC
S3151FFF9ED0BB6A10221343BB62FB68BA6A9A61FB68AF
S3151FFF9EE01B694C4A1340BB62BB68DB795A0380234D
S3151FFF9EF09B011A40BB6A1A43FB681A61BB685B7AF0
S3151FFF9F001B04BA68127A1A43FB68DA62FB689B6AFC
S3151FFF9F1088221A43FB689A62FB689B6AC022120259
S3151FFF9F201A43FB689A623C4BBB62BB6A80221206CE
S3151FFF9F301343BB62BB6AC02212021343BB62FB6899
S3151FFF9F405A6ABB685B7B1B0110211940BB681B7BD1
S3151FFF9F505B01202003400B431A43FB685A62BB6811
S3151FFF9F609B7A002B05D0FB685B6A08221A43FB68A6
S3151FFF9F705A62BB68DB7A002B05D0FB685B6A01223E
S3151FFF9F801A43FB685A62BB689B79002B05D0BB6AD5
S3151FFF9F90802292051343BB6203E0BB6A1B4A134031
S3151FFF9FA0BB62FB685A69BB6A1A43FB685A61FB6847
S3151FFF9FB09B69BB62BB681B7C002B04D0BB6A8022DC
S3151FFF9FC012031343BB62BB685B7C002B04D0BB6AC7
S3151FFF9FD08022D2021343BB62FB68BA6A9A61FB6A8D
S3151FFF9FE01800BD460CB080BD28BCFF1F1CBFFF1F3E
S3151FFF9FF03CBEFF1F5CBEFF1F78BEFF1FC0BEFF1FFD
S3151FFFA0002105000008BEFF1FFFFFFFE0FFFFFFDF69
S3151FFFA010E8F8FFFFFFDFFFFF00001F4080B582B09C
S3151FFFA02000AF78607B68002B05D11F4B1F4A204965
S3151FFFA0302048FEF7EDF97B6814220021180001F076
S3151FFFA04046FC7B68E12252021A607B6800221A7166
S3151FFFA0507B6800225A717B6800229A717B680022F7
S3151FFFA060DA717B6800221A727B6800225A727B683C
S3151FFFA07000229A727B680022DA727B6800225A736B
S3151FFFA0807B6800221A737B6800229A737B68002203
S3151FFFA090DA737B6800221A747B6800225A74C046E3
S3151FFFA0A0BD4602B080BDC04628BCFF1F3CBFFF1F79
S3151FFFA0B0090200003CBEFF1F80B586B000AFF860E7
S3151FFFA0C0B9607A60BB68002B05D1164B164A174934
S3151FFFA0D01748FEF79DF9BB687B617B683B6111E003
S3151FFFA0E0C046FB685A6980231B041340F9D07B695E
S3151FFFA0F01B781A00FB68DA617B6901337B613B6959
S3151FFFA100013B3B613B69002BEAD1C046FB685A699D
S3151FFFA1108023DB031340F9D000231800BD4606B08A
S3151FFFA12080BDC0464CBEFF1F54BFFF1F3B03000031
S3151FFFA1303CBEFF1F80B500AF044B1A68044B1B685C
S3151FFFA140044819009047C046BD4680BDD8C4FF1FAF
S3151FFFA150CCC4FF1F00400C4080B500AF044B1A68EC
S3151FFFA160044B5B68044819009047C046BD4680BD37
S3151FFFA170D8C4FF1FCCC4FF1F00500C4080B500AFD3
S3151FFFA180044B1A68044B9B68044819009047C04646
S3151FFFA190BD4680BDD8C4FF1FCCC4FF1F006004404F
S3151FFFA1A080B500AF094B0A4A5A60084B094A9A60A5
S3151FFFA1B0064B1B68A02293431A00044B20210A4318
S3151FFFA1C01A6001F0BCFAC046BD4680BD006007405D
S3151FFFA1D020C528D9FFFF000080B582B000AF786089
S3151FFFA1E07B68002B01D1002300E0024B1800BD4600
S3151FFFA1F002B080BDAF2F000090B58BB000AF786067
S3151FFFA20039607B68002B05D1414B424A4248E72103
S3151FFFA210FEF7FEF83B68002B05D1404B3D4A3E48F3
S3151FFFA220E821FEF7F5F83B681B7B022B05D93C4B54
S3151FFFA230384A3948E921FEF7EBF83B681B7B1A00C2
S3151FFFA240384B9200D358002B05D1374B314A324832
S3151FFFA250EA21FEF7DDF80C243B191800FFF7DEFE97
S3151FFFA2603B685A6821007B181A603B681B7A012BD3
S3151FFFA27003D17B1802221A710CE03B681B7A022B53
S3151FFFA28004D10C23FB1803221A7103E00C23FB18BE
S3151FFFA29000221A713B685B7A012B04D10C23FB1832
S3151FFFA2A00122DA7103E00C23FB180022DA713B68E7
S3151FFFA2B09B7A5A1E9341DAB20C217B185A743B685C
S3151FFFA2C0DB7A5A1E9341DAB27B181A743B681B7BE3
S3151FFFA2D01A00144B9200D0583B681A687B18190056
S3151FFFA2E0FFF7EAFC03007B627B6A002B05D07B6AC4
S3151FFFA2F01800FFF771FF030006E07B683B623B68B0
S3151FFFA3001A7B3B6A1A7000231800BD460BB090BD1F
S3151FFFA31078BFFF1F10C0FF1F80BFFF1F30BCFF1F6F
S3151FFFA32094BFFF1F6CBFFF1FE0BFFF1F80B586B027
S3151FFFA33000AFF860B9607A60FB68002B06D1164B39
S3151FFFA340164AB22149001648FEF762F8BB68002B72
S3151FFFA35006D1144B114A6621FF311148FEF758F8F3
S3151FFFA3607B68002B06D1104B0C4AB32149000C48C2
S3151FFFA370FEF74EF8FB687B617B691B781A000B4B58
S3151FFFA3809200D3587A68B9681800FFF795FE002325
S3151FFFA3901800BD4606B080BD78BFFF1F20C0FF1F38
S3151FFFA3A080BFFF1F54BEFF1F08C0FF1F6CBFFF1FCD
S3151FFFA3B090B587B000AFF860B9607A603B60162131
S3151FFFA3C07B180B4A1A80FB681B7B012B09D1FB6885
S3151FFFA3D008337C183A687968180000F087F903007C
S3151FFFA3E023801623FB181B881800BD4607B090BD98
S3151FFFA3F02135000080B586B000AFF860B9607A607E
S3151FFFA400FB68002B05D1194B194A1A491A48FDF744
S3151FFFA410FFFFBB68002B05D1184B154A1849164875
S3151FFFA420FDF7F6FF7B68002B05D1164B104A164921
S3151FFFA4301148FDF7EDFFFB687B617B691B683B617D
S3151FFFA4403B69002B06D1114B094AC82189000A48CF
S3151FFFA450FDF7DEFF7B68BA6879693869FFF7A8FFE2
S3151FFFA46003001800BD4606B080BDC04638C0FF1F9B
S3151FFFA4707CC0FF1F1903000044C0FF1F58C0FF1FEA
S3151FFFA4801A03000008C0FF1F1B03000078BFFF1F32
S3151FFFA49090B585B000AF786039600E23FB181D4A53
S3151FFFA4A01A803B68002B06D11B4B1C4ACF21890004
S3151FFFA4B01B48FDF7ADFF7B68002B05D1194B174ACC
S3151FFFA4C019491748FDF7A4FF7B68BB60BB681022BD
S3151FFFA4D00021180001F0FBF93B681A78BB681A7355
S3151FFFA4E03B681B78012B0DD1BB6808331A003B68ED
S3151FFFA4F05B680E217C181900100000F0A5F80300F9
S3151FFFA500238000E0C0460E23FB181B881800BD469C
S3151FFFA51005B090BD2135000030BCFF1F90C0FF1F47
S3151FFFA52044C0FF1F6CC0FF1F4103000080B586B0EC
S3151FFFA53000AF786039607B68002B05D1164B174A31
S3151FFFA54017491848FDF764FF3B68002B05D1164BCB
S3151FFFA550124A16491348FDF75BFF7B687B613B6811
S3151FFFA5603B613B6804220021180001F0B0F901F09E
S3151FFFA570EBF80300FB607B695B685A1C7B695A60BB
S3151FFFA580FB68180001F0EFF83B697A691A60002330
S3151FFFA5901800BD4606B080BD6CC0FF1FA4C0FF1FBD
S3151FFFA5A0F203000044C0FF1F38C0FF1FF303000064
S3151FFFA5B080B586B000AF786039607B68002B05D108
S3151FFFA5C01A4B1B4A1B491C48FDF722FF3B68002BF2
S3151FFFA5D005D11A4B164A1A491748FDF719FF7B680B
S3151FFFA5E07B613B683B6101F0AFF80300FB607B6952
S3151FFFA5F01B68002B05D0FB68180001F0B4F8114B40
S3151FFFA60010E07B693A691A60FB68180001F0ABF826
S3151FFFA6103B6804220021180001F059F93B697A694A
S3151FFFA6201A6000231800BD4606B080BD6CC0FF1F11
S3151FFFA630C4C0FF1F2C04000044C0FF1F60C0FF1FC4
S3151FFFA6402D0400002235000080B588B000AF78606A
S3151FFFA65039603B68002B05D11F4B204A20488B21B1
S3151FFFA660FDF7D6FE7B68002B05D11E4B1B4A1C48E8
S3151FFFA6708C21FDF7CDFE3B68FB617B68BB61FB69E8
S3151FFFA6805A6808217B185A60FB691A7A7B181A7257
S3151FFFA690FB695A7A7B185A72FB69DA7A7B189A72A8
S3151FFFA6A0FB691A7B7B18DA72FB691A687B181A60BB
S3151FFFA6B0FB699A7A7B181A73BB697A1811001800FF
S3151FFFA6C0FFF79AFD031E01D0074B00E0002318007A
S3151FFFA6D0BD4608B080BDC046E4C0FF1F08C1FF1FAF
S3151FFFA6E0F4C0FF1F6CC0FF1F2135000080B586B069
S3151FFFA6F000AFF860B9607A60FB68002B06D1144B78
S3151FFFA700144A0C21FF311448FDF782FEBB68002B4C
S3151FFFA71006D1124B0F4A862149000F48FDF778FED7
S3151FFFA7207B68002B06D10E4B0A4A0E21FF310A48C2
S3151FFFA730FDF76EFEFB687B617B697A68B968180057
S3151FFFA740FFF7F4FD03001800BD4606B080BDC046E7
S3151FFFA7506CC0FF1F18C1FF1FF4C0FF1F58C0FF1F8C
S3151FFFA76008C0FF1F80B584B000AF78600A00FB1CCE
S3151FFFA7701A707B681B68FB60FB68002B05DB144B9D
S3151FFFA780144A15491548FDF743FEFA6880239B05B2
S3151FFFA790134005D0124B0F4A12491048FDF738FEDA
S3151FFFA7A0FB68114A1A40FB1C1B781906E023DB04C2
S3151FFFA7B00B401343FB607B68FA680C490A401A601B
S3151FFFA7C07B68FA681A60C046BD4604B080BDC046A6
S3151FFFA7D02CC1FF1F48C2FF1FB202000050C1FF1F3F
S3151FFFA7E0CCC1FF1FB3020000FFFFFFF8FFFFFFBF34
S3151FFFA7F080B584B000AF78607B68002B05D1084B0E
S3151FFFA800084A09490948FDF703FE7B68FB60FB6899
S3151FFFA810074A1B685361C046BD4604B080BDC0468C
S3151FFFA82030BCFF1F0CC2FF1F5E03000050C1FF1F7E
S3151FFFA83000B0074080B584B000AF78607B68002BFF
S3151FFFA84005D1084B084A09490948FDF7E1FD7B6811
S3151FFFA850FB60084AFB6812691A60C046BD4604B012
S3151FFFA86080BDC04630BCFF1F2CC2FF1F86030000E2
S3151FFFA87050C1FF1F00B0074080B582B000AF144B19
S3151FFFA880180000F08FFF134B1800FEF739FA124B13
S3151FFFA8901800FFF7ADFF3B1D1800FFF7CBFFFB1D92
S3151FFFA8A01B781B071B0FDBB203229342F3D10B4B04
S3151FFFA8B00B4A1A600B4B03211800FFF753FF0A4B76
S3151FFFA8C003211800FFF74EFFC046BD4602B080BDED
S3151FFFA8D000C2FF1FF8C1FF1FF4C1FF1F80C3FF1F69
S3151FFFA8E0006CDC0204A10F4010A10F4080B500AF22
S3151FFFA8F0064B1800FEF714F90200054B0548190011
S3151FFFA900FEF7E0FDC046BD4680BDC04604A10F4011
S3151FFFA91058C2FF1F00100C4080B582B000AF0B4A14
S3151FFFA920E1235902130001220020FDF7C7FD030093
S3151FFFA9307B607B68002B05D0054B064A0648952191
S3151FFFA940FDF766FDC046BD4602B080BD006CDC024A
S3151FFFA95074C2FF1FA0C2FF1F90C2FF1F80B582B028
S3151FFFA96000AF78607B681B68002B05DB084B094A25
S3151FFFA97009490A48FDF74CFD7B681A687B688021E9
S3151FFFA980C9050A431A60C046BD4602B080BDC04610
S3151FFFA99048BCFF1FB4C2FF1F8502000050C1FF1F27
S3151FFFA9A080B584B000AFF860B960FB1D1A70FB68F5
S3151FFFA9B0BA689200D358094A1A40FB1D1B78190221
S3151FFFA9C0E023DB000B401A431100FB68BA689200B5
S3151FFFA9D0D150C046BD4604B080BDC046FFF8FFFF3D
S3151FFFA9E080B582B000AF2D4B1800FFF7B7FF2C4B7A
S3151FFFA9F01800FFF7B3FF2B4B1800FFF7AFFF3B1DE9
S3151FFFAA0001221A703B1D00225A703B1D26481A0051
S3151FFFAA101621FEF72DFC254B022201211800FFF7F9
S3151FFFAA20BFFF224B5B68224A1A40204B02210A4373
S3151FFFAA305A601E4B022202211800FFF7B1FF1B4B64
S3151FFFAA409B681B4A1A40194B02210A439A60194BEE
S3151FFFAA50022201211800FFF7A3FF164B5B68164A58
S3151FFFAA601A40144B20210A435A60124B022202211D
S3151FFFAA701800FFF795FF0F4B9B680F4A1A400D4BA8
S3151FFFAA8020210A439A600D4B012216211800FFF75A
S3151FFFAA9087FFC046BD4602B080BDC04668A10740BE
S3151FFFAAA070A1074078A1074000F1004000A00540B4
S3151FFFAAB0FDFFFFFE00C00540DFFFFFFE00E0054074
S3151FFFAAC0002243088B4274D303098B425FD3030AC9
S3151FFFAAD08B4244D3030B8B4228D3030C8B420DD3DC
S3151FFFAAE0FF22090212BA030C8B4202D3121209026A
S3151FFFAAF065D0030B8B4219D300E0090AC30B8B42A8
S3151FFFAB0001D3CB03C01A5241830B8B4201D38B0355
S3151FFFAB10C01A5241430B8B4201D34B03C01A5241FA
S3151FFFAB20030B8B4201D30B03C01A5241C30A8B423D
S3151FFFAB3001D3CB02C01A5241830A8B4201D38B0228
S3151FFFAB40C01A5241430A8B4201D34B02C01A5241CC
S3151FFFAB50030A8B4201D30B02C01A5241CDD2C3093E
S3151FFFAB608B4201D3CB01C01A524183098B4201D3BA
S3151FFFAB708B01C01A524143098B4201D34B01C01AA5
S3151FFFAB80524103098B4201D30B01C01A5241C3081D
S3151FFFAB908B4201D3CB00C01A524183088B4201D38C
S3151FFFABA08B00C01A524143088B4201D34B00C01A78
S3151FFFABB05241411A00D20146524110467047FFE7E4
S3151FFFABC001B5002000F0F0F802BDC0460029F7D0FE
S3151FFFABD076E7704703460B437FD4002243088B4219
S3151FFFABE074D303098B425FD3030A8B4244D3030BF0
S3151FFFABF08B4228D3030C8B420DD3FF22090212BAB5
S3151FFFAC00030C8B4202D31212090265D0030B8B4230
S3151FFFAC1019D300E0090AC30B8B4201D3CB03C01A1A
S3151FFFAC205241830B8B4201D38B03C01A5241430BF5
S3151FFFAC308B4201D34B03C01A5241030B8B4201D3E5
S3151FFFAC400B03C01A5241C30A8B4201D3CB02C01A50
S3151FFFAC505241830A8B4201D38B02C01A5241430AC8
S3151FFFAC608B4201D34B02C01A5241030A8B4201D3B7
S3151FFFAC700B02C01A5241CDD2C3098B4201D3CB015E
S3151FFFAC80C01A524183098B4201D38B01C01A52410D
S3151FFFAC9043098B4201D34B01C01A524103098B4211
S3151FFFACA001D30B01C01A5241C3088B4201D3CB00FC
S3151FFFACB0C01A524183088B4201D38B00C01A5241DF
S3151FFFACC043088B4201D34B00C01A5241411A00D28F
S3151FFFACD001465241104670475DE0CA0F00D04942F8
S3151FFFACE0031000D34042534000229C4603098B4268
S3151FFFACF02DD3030A8B4212D3FC22890112BA030AF0
S3151FFFAD008B420CD3890192118B4208D38901921171
S3151FFFAD108B4204D389013AD0921100E08909C309F6
S3151FFFAD208B4201D3CB01C01A524183098B4201D3F8
S3151FFFAD308B01C01A524143098B4201D34B01C01AE3
S3151FFFAD40524103098B4201D30B01C01A5241C3085B
S3151FFFAD508B4201D3CB00C01A524183088B4201D3CA
S3151FFFAD608B00C01A5241D9D243088B4201D34B00E5
S3151FFFAD70C01A5241411A00D20146634652415B1027
S3151FFFAD80104601D34042002B00D549427047634608
S3151FFFAD905B1000D3404201B5002000F005F802BD4D
S3151FFFADA00029F8D016E770477047C04680B586B0B2
S3151FFFADB000AFF860B9603B60FB1D1A7000237B6113
S3151FFFADC000237B611FE0BB681B6801337F2B0AD9FA
S3151FFFADD0BB681B681A00FB6811001800FDF72CFBE8
S3151FFFADE0BB6800221A60BB681B681A00FB689B18AA
S3151FFFADF0FA1D12781A70BB681B685A1CBB681A604B
S3151FFFAE007B6901337B617A693B689A42DBDBC0460C
S3151FFFAE10C046BD4606B080BD80B584B000AF786022
S3151FFFAE2039600023FB600B23FB1800221A7027E0F3
S3151FFFAE307B681B685A1C7B681A607B681A680A2125
S3151FFFAE407B1812781A707B181B782F2B0FD97B183C
S3151FFFAE501B78392B0BD8FA6813009B009B185B00D6
S3151FFFAE601A007B181B78D318303BFB6008E07B6802
S3151FFFAE701B685A1E7B681A600B23FB1801221A7068
S3151FFFAE800B23FB181B78002BD2D0FB681800BD467F
S3151FFFAE9004B080BD80B588B000AFF860B9607A6036
S3151FFFAEA0FB681B68FB610623BB6117217B1800220A
S3151FFFAEB01A70FB690133FB61FB691B782E2B2ED1A1
S3151FFFAEC00023BB617B1800221A7022E0FB69013346
S3151FFFAED0FB6116217B18FA6912781A707B181B788B
S3151FFFAEE02F2B0FD97B181B78392B0BD8BA69130059
S3151FFFAEF09B009B185B001A007B181B78D318303BEF
S3151FFFAF00BB6106E0FB69013BFB611723FB180122AF
S3151FFFAF101A701723FB181B78002BD7D002E0FB698B
S3151FFFAF20013BFB61FB68FA691A60BB691800BD46E6
S3151FFFAF3008B080BD80B584B000AF0200FB1D1A703C
S3151FFFAF400023FB60FB1D1B786F2B0BD0FB1D1B7894
S3151FFFAF50622B07D0FB1D1B78702B03D0FB1D1B78A5
S3151FFFAF60752B01D10123FB60FB681800BD4604B09A
S3151FFFAF7080BD80B584B000AF0200FB1D1A70002391
S3151FFFAF80FB60FB1D1B78642B03D0FB1D1B78692BF6
S3151FFFAF9001D10123FB60FB681800BD4604B080BDCD
S3151FFFAFA090B585B000AFF860B9607A601A00FB1CD8
S3151FFFAFB01A70BA687B68D31AF96AB86A7C6A202244
S3151FFFAFC0A04708E03B6A5A1E3A621A78F96AB86ABE
S3151FFFAFD07C6A0123A0473B6A1B78002BF2D1C04630
S3151FFFAFE0C046BD4605B090BD90B585B000AFF860B1
S3151FFFAFF0B9607A601A00FB1C1A70BA687B68D31A8D
S3151FFFB000F96AB86A7C6A2022A04708E03B6A5A1E83
S3151FFFB0103A621A78F96AB86A7C6A0123A0473B6AC3
S3151FFFB0201B78002BF2D1C046C046BD4605B090BD6A
S3151FFFB03080B584B000AF0200FB1D1A700023FB60B2
S3151FFFB040FB1D1B78662B03D0FB1D1B78462B01D1DF
S3151FFFB0500123FB60FB681800BD4604B080BD80B5A9
S3151FFFB06084B000AF0200FB1D1A700023FB60FB1D9F
S3151FFFB0701B78782B03D0FB1D1B78582B01D101237F
S3151FFFB080FB60FB681800BD4604B080BD80B584B069
S3151FFFB09000AF0200FB1D1A70FB1D1B786F2B04D11F
S3151FFFB0A00F23FB1808221A7015E0FB1D1B78622B56
S3151FFFB0B004D10F23FB1802221A700CE0FB1D1B780D
S3151FFFB0C0702B04D10F23FB1810221A7003E00F23D6
S3151FFFB0D0FB180A221A700F23FB181B781800BD4690
S3151FFFB0E004B080BD80B58EB000AFF860B9607A60DE
S3151FFFB0F03B6000237B62FB683B623B6A5A1C3A62DA
S3151FFFB10000221A707B68002B37D0BB681B687B63D6
S3151FFFB1107B6B002B2DD13B6A30221A707B6A013362
S3151FFFB1207B627B6A66E03968786BFFF753FD030026
S3151FFFB130BB61BB693A6853437A6BD31A3B633B6B5D
S3151FFFB140002B08DA3B6BBB62BB6ADB437B617B6908
S3151FFFB15031333B6302E03B6B30333B63BB697B633E
S3151FFFB1603B6A5A1C3A623A6BD2B21A707B6A013338
S3151FFFB1707B627B6B002BD6D13BE0BB681B68FB62F8
S3151FFFB180FB6A002B32D13B6A30221A707B6A01336E
S3151FFFB1907B627B6A2EE03B681900F86AFFF790FC1B
S3151FFFB1A00300FB613B68FA695343FA6AD31ABB6212
S3151FFFB1B0BB6A092B03D8BB6A3033BB620BE0402344
S3151FFFB1C0FB181B78002B01D0412300E06123BA6ACD
S3151FFFB1D09B180A3BBB62FB69FB623B6A5A1C3A62BE
S3151FFFB1E0BA6AD2B21A707B6A01337B62FB6A002B83
S3151FFFB1F0D1D17B6A1800BD460EB080BDF0B59FB09A
S3151FFFB20004AFF860B9607A603B600023FB650023DB
S3151FFFB210BB650023FB615723FB1800221A7000230F
S3151FFFB2207B61FB687B647B6C1B78002B00D132E153
S3151FFFB2307A6C56217B1812781A700A00BB181B7876
S3151FFFB240252B0BD0BB181A781C23F91878683C6876
S3151FFFB2500123A0477B6C01337B641BE163243B19EE
S3151FFFB26001221A7008257A194426BB1911001800E6
S3151FFFB270FFF7D2FD03003B657919BB1900221800A2
S3151FFFB280FFF708FE0300FB647B6C01337B647A6C5C
S3151FFFB29056217B1812781A707B181B781800FFF738
S3151FFFB2A068FE0300012B25D1BB681A1DBA601B68F8
S3151FFFB2B0BB611823F918202578193B191B780093B2
S3151FFFB2C00A230122FFF70EFF0300BB657A19BB6D29
S3151FFFB2D0D318FB65BA6D396D1C23FB1803937B6867
S3151FFFB2E002933B680193FB6D009300230020FFF73A
S3151FFFB2F057FECCE05623FB181B781800FFF798FE66
S3151FFFB3000300012B06D1BB6807330722934308337C
S3151FFFB310BB60BCE056243B191B781800FFF79FFE46
S3151FFFB3200300012B30D13B191B78782B03D16323E5
S3151FFFB330FB1800221A70BB681A1DBA601B687B6157
S3151FFFB3401423F9182024381963257B191B780093BA
S3151FFFB35010230022FFF7C6FE0300BB653A19BB6D1C
S3151FFFB360D318FB65BA6D7B191878396D1C23FB182B
S3151FFFB37003937B6802933B680193FB6D0093030066
S3151FFFB3800020FFF731FE82E056257B191B78180038
S3151FFFB390FFF7D0FD0300012B31D1BB681A1DBA6021
S3151FFFB3A01B687B615726BC197B191B781800FFF793
S3151FFFB3B06DFE03002370BB191A781423F918202476
S3151FFFB3C038196323FB181B78009313000022FFF71E
S3151FFFB3D089FE0300BB653A19BB6DD318FB65BA6DB2
S3151FFFB3E0396D1C23FB1803937B6802933B680193FC
S3151FFFB3F0FB6D009300230020FFF7D2FD47E0562386
S3151FFFB400FB181B78632B0DD1BB681A1DBA601B680F
S3151FFFB410BB64BB6CDAB21C23F91878683C6801233E
S3151FFFB420A04734E05623FB181B78732B26D1BB6826
S3151FFFB4301A1DBA601B687B667B6E002B27D07B6E3F
S3151FFFB440180000F04CFA0300BB653A6DBB6DD31AAB
S3151FFFB4501C22B91878683C682022A04709E07B6E3A
S3151FFFB4605A1C7A661A781C23F91878683C680123D8
S3151FFFB470A0477B6E1B78002BF1D108E05623FB18E4
S3151FFFB4801A781C23F91878683C680123A0477B6C40
S3151FFFB49001337B64C7E6C046FB691800BD461BB078
S3151FFFB4A0F0BD80B582B000AF786039607B683A68BF
S3151FFFB4B05A60C046BD4602B080BD80B582B000AFA0
S3151FFFB4C0786039607B683A689A60C046BD4602B0AD
S3151FFFB4D080BD80B588B002AFF860B9607A60FB683F
S3151FFFB4E07968B868022200925622FDF7CDFA03004B
S3151FFFB4F07B617B691800BD4606B080BD80B586B0EF
S3151FFFB50000AFF860B960FB1D1A7001237B61FB1D3D
S3151FFFB5101B78002B05D17A69BB689A40FB689A6036
S3151FFFB52004E07A69BB689A40FB685A60C046BD460D
S3151FFFB53006B080BD80B582B000AF78607B680222FF
S3151FFFB5401A617B6800221A61C046BD4602B080BDE4
S3151FFFB55080B582B000AF78600A00FB1C1A707B684B
S3151FFFB5601B69012293431A00FB1C1B781A437B6836
S3151FFFB5701A61C046BD4602B080BD80B582B000AF1E
S3151FFFB58078607B685B691800BD4602B080BD80B5D9
S3151FFFB59082B000AF786039607B683A685A61C046EF
S3151FFFB5A0BD4602B080BD80B584B000AFF860B960FC
S3151FFFB5B07A60BB68FF221A407B681904FF231B04AE
S3151FFFB5C00B401A43FB689A65C046BD4604B080BD53
S3151FFFB5D080B584B000AFF860B9607A607B68002BD6
S3151FFFB5E005D0FB68DB6DFF221A407B681A60BB68BC
S3151FFFB5F0002B06D0FB68DB6D1B0CFF221A40BB68B6
S3151FFFB6001A60C046BD4604B080BD80B586B000AF88
S3151FFFB610786004237B610823FA187B6800211800D2
S3151FFFB620FFF7D6FFBB687A69D31ABB607B68180022
S3151FFFB630FFF7A3FF03003B613A697B681100180000
S3151FFFB640FDF7F8FE0300FB60FB68002B01D0FB68CC
S3151FFFB65003E0BB68002BDED000231800BD4606B0F3
S3151FFFB66080BD80B584B000AF78600023FB607B6828
S3151FFFB6701800FFF782FF0300BB60BA6880239B0495
S3151FFFB680134007D0BA6880235B04134002D1E1231E
S3151FFFB6909B00FB60FB681800BD4604B080BD80B5EC
S3151FFFB6A084B000AF78607B681800FFF7AEFF03001A
S3151FFFB6B0FB60FB68002B01D0FB6827E07B688022BD
S3151FFFB6C092001A661EE07B681800FFF756FF0300FD
S3151FFFB6D0BB60BA687B6811001800FDF7ABFE03005D
S3151FFFB6E0FB60BA6880239B0013400BD0BB68012207
S3151FFFB6F0134007D080239A007B6811001800FFF7BD
S3151FFFB70046FF02E0FB68002BDDD0FB681800BD4635
S3151FFFB71004B080BD80B582B000AF78607B689B6840
S3151FFFB72002221A437B689A607B689B6802229343B7
S3151FFFB7301A007B689A60C046BD4602B080BD80B5C1
S3151FFFB74000AFC046BD4680BD80B582B000AFEFF3E8
S3151FFFB75010833B603B687B6072B6C0467B681800F0
S3151FFFB760BD4602B080BD80B584B000AF78607B68F0
S3151FFFB770FB60FB6883F31088C046C046BD4604B016
S3151FFFB78080BD80B584B000AFF860B9607A607A6813
S3151FFFB790B968FB681800FEF72DFE03001800BD46AB
S3151FFFB7A004B080BD90B587B000AF78600C243B19FD
S3151FFFB7B0180008231A00002100F089F820003B1803
S3151FFFB7C001221A603B1802229A713B180122DA7175
S3151FFFB7D00023BB6008243B191A780F218A43111CCB
S3151FFFB7E003220A431A700B23FB181A780F218A4369
S3151FFFB7F0111C02220A431A703B181800FDF780FA24
S3151FFFB8003B191800FEF7F4FF1423FB181800FFF768
S3151FFFB81011F81723FB181B781B071B0FDAB20B2414
S3151FFFB8203B191B781B071B0FDBB29A42ECD17B68B8
S3151FFFB8301800FDF74DFB3B191A780F218A43111C80
S3151FFFB84003220A431A700823FB181800FEF7D0FFBE
S3151FFFB8501423FB181800FEF7EDFF1723FB181B78A1
S3151FFFB8601B071B0FDAB20B23FB181B781B071B0FBC
S3151FFFB870DBB29A42ECD1C046C046BD4607B090BD6B
S3151FFFB88080B500AFFEF7F8FFC046BD4680BD80B549
S3151FFFB89000AFFFF72BF8FFF73FF8C046BD4680BD49
S3151FFFB8A080B500AFFFF7F3FFC046BD4680BD80B52D
S3151FFFB8B000AFFFF795F8C046BD4680BD002310B504
S3151FFFB8C09A4200D110BDCC5CC4540133F8E7030084
S3151FFFB8D08218934200D1704719700133F9E700238D
S3151FFFB8E0C25C0133002AFBD1581E70474153534593
S3151FFFB8F05254204552524F52202220257320223A5E
S3151FFFB9002066696C652022257322204C696E65208F
S3151FFFB910222564222066756E6374696F6E206E61C1
S3151FFFB9206D652022257322200A00FFFF4E554C4CC2
S3151FFFB93020213D20636800002E66736C5F6465627D
S3151FFFB94075675F636F6E736F6C652E630000000014
S3151FFFB950305520213D2073697A6500FF6B53746153
S3151FFFB9607475735F53657269616C4D616E6167654F
S3151FFFB970725F53756363657373203D3D20737461F7
S3151FFFB98074757300446267436F6E736F6C655F53A5
S3151FFFB990656E644461746152656C6961626C6500B2
S3151FFFB9A0446267436F6E736F6C655F496E697400A0
S3151FFFB9B0426C616E6B696E67204652414D2028634C
S3151FFFB9C068756E6B73697A653D2564206279746548
S3151FFFB9D073293A0D0A000000446F6E652065726178
S3151FFFB9E073696E67204652414D202D207665726919
S3151FFFB9F06679696E67202E2E2E0D0A00504153530E
S3151FFFBA003A204652414D20697320737563636573F0
S3151FFFBA107366756C6C7920657261736564202E2E53
S3151FFFBA202E0D0A004641494C3A204652414D206988
S3151FFFBA3073204E4F5420626C616E6B21212028614B
S3151FFFBA406C6C207A65726F6573290D0A00FFFFFF05
S3151FFFBA502E0000000D0A00000D0A0D0A00FFFFFF52
S3151FFFBA60FFFFFFFFFFFFFFFFFFFFFFFFFFFFFFFFC2
S3151FFFBA70FFFFFFFFFFFFFFFFFFFFFFFFFFFFFFFFB2
S3151FFFBA80FFFFFFFFFFFFFFFFFFFFFFFFFFFFFFFFA2
S3151FFFBA90FFFFFFFFFFFFFFFFFFFFFFFFFFFFFFFF92
S3151FFFBAA0FFFFFFFFFFFFFFFFFFFFFFFFFFFFFFFF82
S3151FFFBAB0FFFFFFFFFFFFFFFFFFFFFFFFFFFFFFFF72
S3151FFFBAC0FFFFFFFFFFFFFFFFFFFFFFFFFFFFFFFF62
S3151FFFBAD0FFFFFFFFFFFFFFFFFFFFFFFFFFFFFFFF52
S3151FFFBAE0FFFFFFFFFFFFFFFFFFFFFFFFFFFFFFFF42
S3151FFFBAF0FFFFFFFFFFFFFFFFFFFFFFFFFFFFFFFF32
S3151FFFBB00FFFFFFFFFFFFFFFFFFFFFFFFFFFFFFFF21
S3151FFFBB10FFFFFFFFFFFFFFFFFFFFFFFFFFFFFFFF11
S3151FFFBB20FFFFFFFFFFFFFFFFFFFFFFFFFFFFFFFF01
S3151FFFBB30FFFFFFFFFFFFFFFFFFFFFFFFFFFFFFFFF1
S3151FFFBB40FFFFFFFFFFFFFFFFFFFFFFFFFFFFFFFFE1
S3151FFFBB50FFFFFFFFFFFFFFFFFFFFFFFFFFFFFFFFD1
S3151FFFBB6000FFFFFF675F7874616C30467265710077
S3151FFFBB702E66736C5F636C6F636B2E6300FFFFFF35
S3151FFFBB807265672026205043435F434C4B4346470E
S3151FFFBB905F50525F4D41534B00FFFFFF434C4F43D7
S3151FFFBBA04B5F47657449704672657100434C4F433F
S3151FFFBBB04B5F4765745379734F73634672657100A5
S3151FFFBBC0434C4F434B5F496E69745369726300FF62
S3151FFFBBD080841E0000127A00434C4F434B5F496E11
S3151FFFBBE069744669726300FF006CDC0200751903F6
S3151FFFBBF0007E560300879303696E7374616E6365D8
S3151FFFBC00203C2041525241595F53495A4528735F81
S3151FFFBC106770696F42617365732900002E66736CC7
S3151FFFBC205F6770696F2E63004E554C4C20213D2078
S3151FFFBC30636F6E66696700FF4750494F5F50696EB6
S3151FFFBC40496E697400FFFFFF282A28766F6C61749F
S3151FFFBC50696C652075696E7433325F74202A2928D3
S3151FFFBC6075696E7433325F74296E616D652920267F
S3151FFFBC70205043435F434C4B4346475F50525F4DF4
S3151FFFBC8041534B002E66736C5F636C6F636B2E683D
S3151FFFBC9000FFFFFF00000C4000100C400020044077
S3151FFFBCA000A10F4004A10F4008A10740696E7374DE
S3151FFFBCB0616E6365203C2041525241595F53495A79
S3151FFFBCC045286B4C706932634261736573290000A7
S3151FFFBCD02E66736C5F6C706932632E6300FFFFFF06
S3151FFFBCE0736F75726365436C6F636B5F487A203E34
S3151FFFBCF0203055007072657363616C6572203E203C
S3151FFFBD00305500FF4E554C4C20213D207278427511
S3151FFFBD10666600FF4E554C4C20213D2074784275B8
S3151FFFBD20666600FF4E554C4C20213D207472616E96
S3151FFFBD3073666572000000007472616E73666572CA
S3151FFFBD402D3E7375626164647265737353697A6599
S3151FFFBD50203C3D2073697A656F66287472616E7326
S3151FFFBD606665722D3E7375626164647265737329AE
S3151FFFBD7000FFFFFF4C504932435F476574496E739F
S3151FFFBD8074616E636500FFFF4C504932435F476521
S3151FFFBD90744379636C6573466F7257696474680081
S3151FFFBDA0434C4F434B5F456E61626C65436C6F63DC
S3151FFFBDB06B00FFFF4C504932435F4D6173746572D1
S3151FFFBDC052656365697665004C504932435F4D6125
S3151FFFBDD07374657253656E6400FFFFFF4C504932E3
S3151FFFBDE0435F4D61737465725472616E73666572DC
S3151FFFBDF0426C6F636B696E6700FFFFFF00400C406D
S3151FFFBE0000500C400060044010A10F4014A10F40CA
S3151FFFBE1018A10740696E7374616E6365203C2041EC
S3151FFFBE20525241595F53495A4528735F6C7075616A
S3151FFFBE307274426173657329000000002E66736C6E
S3151FFFBE405F6C70756172742E6300FFFF4E554C4C0D
S3151FFFBE5020213D206461746100FFFFFF3055203CA8
S3151FFFBE6020636F6E6669672D3E62617564526174EA
S3151FFFBE70655F4270730000002875696E74385F74C2
S3151FFFBE802946534C5F464541545552455F4C5055C5
S3151FFFBE904152545F4649464F5F53495A456E286282
S3151FFFBEA061736529203E3D20636F6E6669672D3E70
S3151FFFBEB074784669666F57617465726D61726B0040
S3151FFFBEC02875696E74385F742946534C5F46454122
S3151FFFBED0545552455F4C50554152545F4649464F44
S3151FFFBEE05F53495A456E286261736529203E3D207F
S3151FFFBEF0636F6E6669672D3E72784669666F576117
S3151FFFBF007465726D61726B004C50554152545F4799
S3151FFFBF106574496E7374616E636500FF4C505541BE
S3151FFFBF2052545F496E697400434C4F434B5F456ED6
S3151FFFBF3061626C65436C6F636B00FFFF4C5055412D
S3151FFFBF4052545F47657444656661756C74436F6EC3
S3151FFFBF50666967004C50554152545F577269746545
S3151FFFBF60426C6F636B696E6700FFFFFF00400C40FB
S3151FFFBF7000500C400060044068616E646C650000F1
S3151FFFBF802E6C70756172745F616461707465722E59
S3151FFFBF9063000000636F6E6669672D3E696E73747B
S3151FFFBFA0616E6365203C202873697A656F66287307
S3151FFFBFB05F4C707561727441646170746572426122
S3151FFFBFC0736529202F2073697A656F66284C505534
S3151FFFBFD04152545F54797065202A292900000000B9
S3151FFFBFE0735F4C70756172744164617074657242E0
S3151FFFBFF06173655B636F6E6669672D3E696E7374EA
S3151FFFC000616E63655D00FFFF6C656E67746800FF99
S3151FFFC01048414C5F55617274496E697400FFFFFF9B
S3151FFFC02048414C5F5561727453656E64426C6F6312
S3151FFFC0306B696E6700FFFFFF777269746548616EF4
S3151FFFC040646C65002E73657269616C5F6D616E61ED
S3151FFFC0506765722E6300000062756666657200FF74
S3151FFFC0607265616448616E646C6500FF7365726912
S3151FFFC070616C48616E646C6500FFFFFF53657269F3
S3151FFFC080616C4D616E616765725F5772697465009A
S3151FFFC09053657269616C4D616E616765725F496E4B
S3151FFFC0A0697400FF53657269616C4D616E616765E7
S3151FFFC0B0725F4F70656E577269746548616E646C07
S3151FFFC0C06500FFFF53657269616C4D616E61676540
S3151FFFC0D0725F4F70656E5265616448616E646C6511
S3151FFFC0E000FFFFFF73657269616C436F6E66696759
S3151FFFC0F0000000002E73657269616C5F706F72744A
S3151FFFC1005F756172742E630053657269616C5F554B
S3151FFFC110617274496E69740053657269616C5F550C
S3151FFFC120617274577269746500FFFFFF2872656736
S3151FFFC1302026205043435F434C4B4346475F505295
S3151FFFC1405F4D41534B2920213D2030554C000000A8
S3151FFFC1502F6D656469612F6D6F7274656E6C2F41EC
S3151FFFC1603636384545384336384545354231372FFC
S3151FFFC170746573745F6469762F6D6375785F777304
S3151FFFC1805F74657374732F56565F6D6375785F7033
S3151FFFC190726F6A656374732F56565F726576425F59
S3151FFFC1A0706C6174666F726D5F4652414D5F45528B
S3151FFFC1B0415345522F647269766572732F66736C8E
S3151FFFC1C05F636C6F636B2E680000000030554C2059
S3151FFFC1D03D3D20287265672026205043435F434C11
S3151FFFC1E04B4346475F494E5553455F4D41534B2979
S3151FFFC1F000FFFFFF01000003050000000000020112
S3151FFFC200010000000100010000000000434C4F43E6
S3151FFFC2104B5F53657452756E4D6F646553797343E8
S3151FFFC2206C6B436F6E66696700FFFFFF434C4F439F
S3151FFFC2304B5F476574437572537973436C6B436FDB
S3151FFFC2406E66696700FFFFFF434C4F434B5F5365A6
S3151FFFC25074497053726300FF010101000000000063
S3151FFFC260A086010000000000000000000000000083
S3151FFFC270010000006B5374617475735F53756363BD
S3151FFFC280657373203D3D20726573756C74000000E6
S3151FFFC2902E7065726970686572616C732E6300FF1D
S3151FFFC2A04465627567436F6E736F6C655F696E6911
S3151FFFC2B07400FFFF434C4F434B5F456E61626C65D6
S30D1FFFC2C0436C6F636B00FFFF68
S3091FFFC38000127A0009
S7051FFF813526
