S024000056565F726576425F706C6174666F726D5F4652414D5F4552415345522E73726563FC
S1130000008001203501000079010000BD080000D6
S113001000000000000000000000000000000000DC
S11300200000000000000000000000007D0100004E
S113003000000000000000007F01000081010000BA
S1130040850100008D010000950100009D01000064
S1130050A5010000AD010000B5010000BD010000D4
S1130060C5010000CD010000D5010000DD01000044
S1130070E5010000ED010000F5010000FD010000B4
S1130080050200000D020000150200001D02000020
S1130090250200002D020000350200003D02000090
S11300A0450200004D020000550200005D02000000
S11300B0650200006D020000750200007D02000070
S11300C0850200008D020000950200009D020000E0
S11300D0A5020000AD020000B5020000BD02000050
S11300E0C5020000CD020000D5020000DD020000C0
S11300F0E5020000ED020000F5020000FD02000030
S1130100050300000D03000015030000A01D0000FE
S11301108080FF1F04000000A01D000000001040AC
S1130120000000008480FF1F580100000000104000
S11301300000000010B572B601F032F90B4C0C4B04
S11301409C4206D30B4B9C420AD362B600F0C6FA1B
S1130150FEE7A2686168206800F0E0F80C34EEE77E
S11301606168206800F0E5F80834EBE70C01000052
S11301702401000034010000FEE7FEE7FEE7FEE78D
S1130180FEE7FEE710B5FFF7FCFF10BD10B5FFF763
S1130190F8FF10BD10B5FFF7F4FF10BD10B5FFF761
S11301A0F0FF10BD10B5FFF7ECFF10BD10B5FFF761
S11301B0E8FF10BD10B5FFF7E4FF10BD10B5FFF761
S11301C0E0FF10BD10B5FFF7DCFF10BD10B5FFF761
S11301D0D8FF10BD10B5FFF7D4FF10BD10B5FFF761
S11301E0D0FF10BD10B501F0B1F810BD10B501F08D
S11301F0BBF810BD10B500F093FF10BD10B500F0B2
S113020097FF10BD10B5FFF7BCFF10BD10B5FFF789
S1130210B8FF10BD10B5FFF7B4FF10BD10B5FFF760
S1130220B0FF10BD10B5FFF7ACFF10BD10B5FFF760
S1130230A8FF10BD10B5FFF7A4FF10BD10B5FFF760
S1130240A0FF10BD10B5FFF79CFF10BD10B5FFF760
S113025098FF10BD10B5FFF794FF10BD10B5FFF760
S113026090FF10BD10B5FFF78CFF10BD10B5FFF760
S113027088FF10BD10B5FFF784FF10BD10B5FFF760
S113028080FF10BD10B5FFF77CFF10BD10B5FFF760
S113029078FF10BD10B5FFF774FF10BD10B5FFF760
S11302A070FF10BD10B5FFF76CFF10BD10B501F065
S11302B069F810BD10B5FFF764FF10BD10B500F06C
S11302C03FFF10BD10B5FFF75CFF10BD10B5FFF781
S11302D058FF10BD10B5FFF754FF10BD10B5FFF760
S11302E050FF10BD10B5FFF74CFF10BD10B5FFF760
S11302F048FF10BD10B5FFF744FF10BD10B5FFF760
S113030040FF10BD10B5FFF73CFF10BD10B5FFF75F
S113031038FF10BD10B5FFF734FF10BD002330B512
S11303205D181C18934200D330BD246804332C603C
S1130330F6E7002310B51C001A188B4200D310BD39
S113034014600433F8E7FFFFFFFFFFFFFFFFFFFF29
S1130350FFFFFFFFFFFFFFFFFFFFFFFFFFFFFFFFA9
S1130360FFFFFFFFFFFFFFFFFFFFFFFFFFFFFFFF99
S1130370FFFFFFFFFFFFFFFFFFFFFFFFFFFFFFFF89
S1130380FFFFFFFFFFFFFFFFFFFFFFFFFFFFFFFF79
S1130390FFFFFFFFFFFFFFFFFFFFFFFFFFFFFFFF69
S11303A0FFFFFFFFFFFFFFFFFFFFFFFFFFFFFFFF59
S11303B0FFFFFFFFFFFFFFFFFFFFFFFFFFFFFFFF49
S11303C0FFFFFFFFFFFFFFFFFFFFFFFFFFFFFFFF39
S11303D0FFFFFFFFFFFFFFFFFFFFFFFFFFFFFFFF29
S11303E0FFFFFFFFFFFFFFFFFFFFFFFFFFFFFFFF19
S11303F0FFFFFFFFFFFFFFFFFFFFFFFFFFFFFFFF09
S1130400FFFFFFFFFFFFFFFFFFFFFFFFFE3DFFFFBB
S11304100A4A0300126810B510000C00002A08D024
S113042007480A001430190001F040F8002801D1EF
S1130430200010BD01204042FBE7C0468480FF1F1E
S11304408880FF1F10B586B00293012302AC03918C
S1130450E372002123736B462181A0721A70012A72
S113046019D101940D4C1B32200001F080FB694628
S11304702000246100F0EAFF21002069143101F01A
S11304804AFB21002069183100F0F6FF2269044B71
S11304901A6006B010BD0348FBE7C0468880FF1F02
S11304A08480FF1F213500000FB410B50024A2B0D2
S11304B07C22210003A8029401F059FB0A4B20007E
S11304C01B68A3420AD025A9084B249802AA0191CB
S11304D000F00EF8010002A8FFF79AFF22B010BC4A
S11304E008BC04B01847C0468480FF1FBD19000033
S11304F0F0B593B00493002317000C000390089305
S1130500039B1A78002A00D1E2E0252A2FD0013378
S1130510039338000123049D08A9A847F0E70A20A3
S1130520059B03924343303BCB180593039B5978B7
S11305305A1C0B00303B092BF1D92E2905D103920B
S113054053780132303B092BF9D9039B5A78642A3A
S113055001D0692A2FD10022256809AB01261A701F
S11305600793954206D1303231005A7018E00023C7
S11305700593DBE70A212800069501F033F90A21E7
S11305800500069801F014FA0B003033002901DA53
S1130590CB433133079A3100B3540136002DE9D1EE
S11305A009AB5A1808AB01930598049B00970434CF
S11305B001F01EFA08E020251300AB43462B07D1B7
S11305C007343F3B9C430834039B0233039397E770
S11305D0582B12D10021206809AB1970884234D1FC
S11305E0302201215A705A1808AB01930598049BD4
S11305F00097043401F0FCF9E6E71300623BDBB238
S1130600132B5FD83449D940CB073AD508256F2A34
S11306104ED1002223680126069309AB1A70069A6C
S11306200793002A9FD00698290001F0D7F80B0001
S1130630069A37330690092900D8073B0799735463
S113064031000136AA42EED2AAE76126782A00D008
S1130650203E0F22012594460A3E0696020061467A
S11306600A40069900098918092A01D83032110074
S11306700C2606AA92195155290001350028EDD1FE
S1130680B1E7632A1CD0732A1CD140CC002E9BD026
S1130690300001F074FA2A00059B1B1A3800049DEF
S11306A008A9A8473278002A8ED001230136F5E73D
S11306B00225622AADD00E35702AAAD0063DA8E7DD
S11306C004CCD2B201233800049D08A9A8477BE7D3
S11306D0089813B0F0BDC0460160080013B56B461E
S11306E0DC1D0023237001F035FA01F02BFA00F031
S11306F09BF801F02BFA00F097F880210C48490090
S1130700FFF7D2FE00F01CF80A48FFF7CDFE00F018
S113071051F843425841C0B2207023780648002B58
S113072000D10648FFF7C0FE00F08CF8C046FDE794
S1130730FC1B0000221C0000461C00006E1C000074
S1130740F0B50024C3B0FC222100812703A8029441
S113075001F00DFA7F002302202C05D11048FFF789
S1130760A3FE002043B0F0BD802200260D4D1B0ADD
S1130770520002A90C482B706E7001F0EFF933009F
S1130780562239002800009600F06AF80748FFF75F
S11307908BFEB44202D10648FFF786FE0134DAE745
S11307A0991C0000D880FF1FDA80FF1F971C0000EF
S11307B09B1C00008022F0B50024C3B002AE3000C0
S11307C080271549520001F0C9F925007F00230252
S11307D0202C05D11148FFF767FE280043B0F0BD77
S11307E00222390000923000543200F04FF8002306
S11307F0F25C002A0DD10133BB42F9D1054308480C
S1130800FFF752FE002C02D10648FFF74DFE0134DB
S1130810DDE70125F3E7C0469E1C0000991C00009B
S1130820971C00009B1C00008022044BD2035A60DA
S1130830034BC046013B002BFBD1704700F1004045
S1130840A08601008022044BD2039A60034BC04669
S1130850013B002BFBD1704700F10040A086010052
S113086030B587B06D46AA8000220AAC2478AA71FC
S113087002930394049004480591009269464261EE
S113088000F0CAFB07B030BD00100C4030B587B093
S11308906D46AA800122AA71029300230AAC24782F
S11308A0039404900448059100936946436100F061
S11308B0B3FB07B030BDC04600100C4004207146A5
S11308C0084202D0EFF3098001E0EFF30880816968
S11308D00A88044B9A4200D0FEE70231816120214C
S11308E001607047ABBE0000054B5A6880231000BE
S11308F05B0418401A4201D0024B18687047C04686
S1130900FCB00740A480FF1F10B50400FFF7ECFF04
S113091003000020834213D0012C12D0022C06D0F5
S113092084420DD1094A90680722104003E0074A27
S113093090684003400F002802D00138C3401800DB
S113094010BD024A90684005F4E7C046FCB0074079
S1130950802130B5084C890063589A0109D4802558
S11309601A002D0402202A402B4201D110006250AB
S113097030BD0248FCE7C04600B00740350800001F
S113098070B50400FFF7E4FF002822D1E022E02143
S11309906379D2001B021340A279C90212040A40EF
S11309A007211343227982250A401343FE31094A61
S11309B0FF3153500123E179AD00194051512168B1
S11309C0194380239B00D15080214904D4580C4200
S11309D0FCD070BD00B007408022094B92009958AA
S11309E08022080052041040114207D08222920053
S11309F09B5801221340034A9B0098587047C046F5
S1130A0000B007409C1B000010B50400FFF7E4FF92
S1130A1003000020834218D0012C17D0022C09D0E7
S1130A20844212D181220C4992008858FE3AFF3A3E
S1130A30104005E081220849920088584003400F85
S1130A40002802D00138C340180010BD8122024999
S1130A50920088584005F2E700B00740C0220A49D6
S1130A6092008B5830B598010BD480241D002404C7
S1130A7002202540234203D180232800DB048B502D
S1130A8030BD0248FCE7C04600B00740350800000E
S1130A9070B50400FFF7E2FF002827D1E021E0252C
S1130AA0A379C9021B040B4007216279ED001202ED
S1130AB02A401A43237903260B40C1211A431D4BB4
S1130AC089005A50E279043132405A50A168002911
S1130AD00DD1C0229200995824680C43012121436E
S1130AE09950802149049C580C42FCD070BDCA78AE
S1130AF012022A408D7835402A43C325AD005A514D
S1130B0080220D88520095420BD1FC260A79B60149
S1130B10120232407F26497931400A43C6218900B6
S1130B205A50C02292009D509A585201D1D50120AA
S1130B30DCE7C04600B00740C022094B9200995838
S1130B408022080052041040114207D0C2229200B1
S1130B509B5803221340034A9B0098587047C04691
S1130B6000B007408C1B000010B50400FFF7E4FF41
S1130B7003000020834217D0012C16D0022C08D089
S1130B80844211D1C1220C49920088580722104096
S1130B9005E0C1220849920088584003400F00280C
S1130BA002D00138C340180010BDC122024992008E
S1130BB088584005F2E7C04600B00740C02370B52E
S1130BC0104CDB00E258802310005B0418401A42EA
S1130BD014D0C125ED006359DB0710D5FFF7ACFF36
S1130BE000280AD061594905490F013100F070FD10
S1130BF06359DB02DB0E10335843400870BDFFF726
S1130C0073FEEDE700B0074010B50400FFF7D6FF10
S1130C1003000020834215D0012C14D0022C07D0ED
S1130C2084420FD10A4A0B4988580722104004E035
S1130C300849074A88584003400F002802D0013869
S1130C40C340180010BD0349014A88584005F3E722
S1130C500406000000B00740174B10B50468C01824
S1130C600300581E83416001400F01385B000528D2
S1130C701FD800F023FD0312161E1E1A1800FFF7DA
S1130C8043FE230708D007212307DB0F013321404C
S1130C905843013100F01CFD10BD1800FFF7B4FEED
S1130CA0EFE71800FFF760FFEBE71800FFF7ACFF72
S1130CB0E7E70020E5E7C046AC5EF8BF70B50C007E
S1130CC01900150000F004FDFA21890000F000FD70
S1130CD001000A4800F0FCFC00220300010010009F
S1130CE001328C4202D9C918AA42F8D1002803D192
S1130CF00A214C439C42404170BDC04640420F0013
S1130D00036970B504000D00DB0707D50B4B1B68A6
S1130D10002B03D00A4A8900895898472300FC33E2
S1130D205B69DB0708D5074B1B68002B04D0064A18
S1130D30AD002000A958984770BDC046B480FF1F7D
S1130D40A880FF1FC480FF1FB880FF1F074A03004D
S1130D500020934209D0064A0130934205D0054A47
S1130D609B181800431E98410230704700000C4045
S1130D7000100C4000E0FBBFF02210B50C00920103
S1130D80030014400020114215D08A0414D40A052B
S1130D9014D44A0514D48020400101404842414102
S1130DA048420849084A08408018C0225C61196911
S1130DB092000A431A6110BD0448F6E70448F4E7B8
S1130DC00448F2E779FCFFFF870300008A03000070
S1130DD08903000086030000F0B50125036987B08C
S1130DE02B40049303690127AB43036100230600EE
S1130DF02C00059102927F420193009329000598EB
S1130E0000F066FC29000390022000F061FC010060
S1130E10012C36D10631039800F05AFC029B98420B
S1130E2034D2181AB8423AD3631C019C202B25D122
S1130E306D00802D1FD92102012C34D81F4C0C4386
S1130E4000230122B464110000989940814203D028
S1130E500133082BF7D103000721726A0B408A4340
S1130E6013437362049B002B03D0012233691343A1
S1130E70336107B0F0BD002FDDD0012301941C00C5
S1130E80BCE70320604341180231C4E7029BC01A47
S1130E90B842C9D2071E04D001940095C4E70700E4
S1130EA0FAE70095C4E73E226300134022040A4394
S1130EB06408134324061C43C2E7C046030002012E
S1130EC0F7B504000D001700FFF740FF3E4B80000C
S1130ED0C25880231168DB050B43136002260022ED
S1130EE00121266122616B785940B140AB78DB0067
S1130EF019432161297E206A4900AB7D31400536C2
S1130F00B043034304201943EB7D9B0003400B4390
S1130F102362606A2D4BE9780340E02049021943BB
S1130F202B79C0041B0603400B4363623900A2659E
S1130F302000AA68FFF750FF636AE9683340019311
S1130F40A66A002908D03800214AFFF7B7FE360BFD
S1130F5000053603000D0643297D00290BD001232B
S1130F600F223800FFF7AAFE1A4B33400606F02082
S1130F70000506401E43697D00290BD001230F2282
S1130F803800FFF79BFE144B33400604F0200003A7
S1130F9006401E432969A66200290DD0019B0C4A14
S1130FA03800090AFFF78AFE0C4A0002E36A10407F
S1130FB00B4A13401843E0620122236993432A78C1
S1130FC013432361F7BDC046A41B0000FFFDFFF8D7
S1130FD0FF0F0000FFFFFFF0FFFFF0FF00FF0F0017
S1130FE0FF00F0FF70B5040000F024FD00280DD1CF
S1130FF080239B002366656920002900FFF7BCFE5F
S1131000044B1D409D4202D1013B636170BD002829
S1131010F1D0FBE701020000F0B587B005000C0039
S113102000F016FD071E5BD1FE23DB016B616B6ACA
S1131030394A01901340E2686B62002A01D1A37916
S113104001930121236800260B4209D1A38880263D
S11310508B400198F6000343334302AE33800E0005
S1131060002A09D0B446D3000093009B083B190022
S11310700093083137D1B6186369002B0DD0A379DA
S1131080012B0AD1019B002B07D1A288234B5200CC
S11310907100134302AA5352013602AB0093002E8F
S11310A02DD1A379002B07D16269002A04D028002E
S11310B0216900F0FBFC0700A379012B07D16269C9
S11310C0002A04D02800216900F0CEFC0700002F7C
S11310D006D123685B0703D42800FFF783FF0700CA
S11310E0380007B0F0BD63465B0018000099A368A0
S11310F0CB4002A9DBB2435201239C44B5E728004C
S113110000F098FC013E0028E9D1009B1B882B6667
S1131110009B0233C2E7C046FFFEFFFF010400004C
S113112010B500210148FFF7EBFD10BD00000C4095
S113113010B501210148FFF7E3FD10BD00100C407C
S113114010B502210148FFF7DBFD10BD002004406B
S1131150074A03000020934209D0064A0130934213
S113116005D0054A9B181800431E98410230704769
S113117000400C4000500C4000A0FBBF0A23F0B517
S11311808BB006925A430E680792B200049204226E
S11311900192002204000D00039602920592099325
S11311A06B461B7904990798089300F091FA099902
S11311B0053000F08DFA80B2071C002800D1012709
S11311C00199BFB27943069800F082FA331A864235
S11311D000D2831B039A934203D80393089B059779
S11311E00293049B9B190493019B01330193212BCC
S11311F0D6D16421300000F06BFA03234343039AF1
S1131200934200D291E02000FFF7A2FF484B8000F8
S1131210C25880231168DB050B4313600222A368C4
S11312201343A360A3689343029AA360043A236917
S1131230032A02D8802292021343F821E0203D4A77
S113124049051A40029BC000013B1B060B40134397
S1131250059A5B0BD204D20C5B031343236123690D
S1131260354A13402361EB7BA2691B0203403348D8
S11312702979024004200A431A43AB7B9B000340B4
S11312801343002901D0102213438021A361EB7979
S113129089015B0322690B40294920200A4013433A
S11312A023616B7A2A7A1B041343E3628823A26ABC
S11312B01343A362C023A26A1B0213431022A36236
S11312C06B7B616A1B0113402A7B5201024013436A
S11312D00B436362AB7A002B03D00823626A134387
S11312E06362EB7A002B03D00123626A13436362C7
S11312F0AB795A1E934180225B4292051340114AF6
S11313009B186269134363612A7CA369002A02D093
S11313108022120313436A7C002A02D08022D20264
S113132013430020A3610BB0F0BD0748FBE7C046A0
S1131330B01B0000FFFFFFE0FFFFFFDFE8F8FFFF47
S1131340FFDFFFFF00C01FC02105000010B5034BE5
S1131350034A1B6811680348984710BDD480FF1FD7
S1131360C880FF1F00400C4010B5034B034A1B68A4
S113137051680348984710BDD480FF1FC880FF1FE1
S113138000500C4010B5034B034A1B689168034896
S1131390984710BDD480FF1FC880FF1F0060044021
S11313A0A021074B074A10B55A60074A9A601A6889
S11313B08A43110020220A431A6000F0ABFB10BDDF
S11313C00060074020C528D9FFFF000070B50C005D
S11313D086B001AD0600280000F079FB6368019334
S11313E0237A012B1CD101332B71637A0F48013B03
S11313F05A425341EB71A37A29005A1E93416B74EC
S1131400E37A5A1E93412B74237B22689B0018585D
S1131410FFF7B4FE002807D1237B337006B070BDFC
S1131420022BE0D00023DFE70148F7E7BC1B0000F4
S1131430AF2F000010B5037803489B00185800F044
S113144055FB002010BDC046BC1B000070B50D004C
S113145004001022002100F08AFB2B782373012B57
S113146005D120006968083000F02EF870BD0148ED
S1131470FCE7C0462135000070B506000D00EFF30F
S1131480108372B60468002C03D083F310880648D6
S113149070BD016083F3108804222100280000F04D
S11314A066FB20002E60F3E72235000010B50068CB
S11314B0037B012B03D1083000F040FB10BD014831
S11314C0FCE7C046213500001FB56A46CB7A93720B
S11314D00B7BD3720B6800934B6801930B891381C8
S11314E08B7A69461373FFF771FF002800D0014817
S11314F005B000BD2135000037B500236A4693804E
S1131500013300930233FF33D38005006846FFF7AD
S113151037FA02210F220A4C0A4B636123691B0E1E
S11315204B401342FAD12800FFF7B2FA03210F22ED
S1131530054B636123691B0E4B401342FAD137BD3F
S113154000B00740030000020300000337B516484B
S1131550FFF7D2FF1548FFF713FA154A1368D0783E
S113156001930199134B59611A000F2113691B0E42
S113157043400B42FAD1104B104A114C1A602168B7
S1131580C0220D000F48104B92041D40014015432A
S11315901143216025600D4C21680B400140134329
S11315A00A432260236037BDC81B0000D41B00001F
S11315B0DC1B000000B007408080FF1F006CDC02D1
S11315C004A10F40FFFFFFB8FFFFFFF810A10F4079
S11315D010B50848FFF740FB074902000748FFF72A
S11315E06FFCE12101220020054B4902FEF72AFF8E
S11315F010BDC04604A10F40E01B000000100C40C9
S1131600006CDC02802337B52249DB050A682248D6
S11316101A430A60214902240A68214D1A430A60C8
S1131620204A11680B431360012301AA1380162179
S113163000F0EDF980221C4B1C49586892000840C8
S11316401043586058682840204358609868084000
S113165010439860986805402C439C602024144BE8
S1131660144D586808401043586058682840204377
S113167058609868084002439A609A682A40144364
S11316800D4A9C60936D0B4080214900194391657C
S113169037BDC04668A1074000F1004070A1074073
S11316A0FDFFFFFE78A1074000A00540FFF8FFFF03
S11316B000C00540DFFFFFFE00E0054002B47146B4
S11316C049084900095C49008E4402BC7047C04681
S11316D0002243088B4274D303098B425FD3030A6D
S11316E08B4244D3030B8B4228D3030C8B420DD380
S11316F0FF22090212BA030C8B4202D3121209020E
S113170065D0030B8B4219D300E0090AC30B8B424B
S113171001D3CB03C01A5241830B8B4201D38B03F9
S1131720C01A5241430B8B4201D34B03C01A52419E
S1131730030B8B4201D30B03C01A5241C30A8B42E1
S113174001D3CB02C01A5241830A8B4201D38B02CC
S1131750C01A5241430A8B4201D34B02C01A524170
S1131760030A8B4201D30B02C01A5241CDD2C309E2
S11317708B4201D3CB01C01A524183098B4201D35E
S11317808B01C01A524143098B4201D34B01C01A49
S1131790524103098B4201D30B01C01A5241C308C1
S11317A08B4201D3CB00C01A524183088B4201D330
S11317B08B00C01A524143088B4201D34B00C01A1C
S11317C05241411A00D20146524110467047FFE788
S11317D001B5002000F0F0F802BDC0460029F7D0A2
S11317E076E7704703460B437FD4002243088B42BD
S11317F074D303098B425FD3030A8B4244D3030B94
S11318008B4228D3030C8B420DD3FF22090212BA58
S1131810030C8B4202D31212090265D0030B8B42D4
S113182019D300E0090AC30B8B4201D3CB03C01ABE
S11318305241830B8B4201D38B03C01A5241430B99
S11318408B4201D34B03C01A5241030B8B4201D389
S11318500B03C01A5241C30A8B4201D3CB02C01AF4
S11318605241830A8B4201D38B02C01A5241430A6C
S11318708B4201D34B02C01A5241030A8B4201D35B
S11318800B02C01A5241CDD2C3098B4201D3CB0102
S1131890C01A524183098B4201D38B01C01A5241B1
S11318A043098B4201D34B01C01A524103098B42B5
S11318B001D30B01C01A5241C3088B4201D3CB00A0
S11318C0C01A524183088B4201D38B00C01A524183
S11318D043088B4201D34B00C01A5241411A00D233
S11318E001465241104670475DE0CA0F00D049429C
S11318F0031000D34042534000229C4603098B420C
S11319002DD3030A8B4212D3FC22890112BA030A93
S11319108B420CD3890192118B4208D38901921115
S11319208B4204D389013AD0921100E08909C3099A
S11319308B4201D3CB01C01A524183098B4201D39C
S11319408B01C01A524143098B4201D34B01C01A87
S1131950524103098B4201D30B01C01A5241C308FF
S11319608B4201D3CB00C01A524183088B4201D36E
S11319708B00C01A5241D9D243088B4201D34B0089
S1131980C01A5241411A00D20146634652415B10CB
S1131990104601D34042002B00D5494270476346AC
S11319A05B1000D3404201B5002000F005F802BDF1
S11319B00029F8D016E770477047C046F7B5050010
S11319C00C00170000260193019B9E4200DBF7BD2B
S11319D021684B1C7F2B04D92800FEF719FD002336
S11319E0236023680136EF54236801332360EBE757
S11319F070B5140020221D00431A05990498A847C5
S1131A002278002A00D170BD0123013CF5E70123AF
S1131A108B401178002903D142699A43426170478F
S1131A205278002A04D18360426913434361F6E784
S1131A304360F9E770B50400FF26E56D2000616995
S1131A403540FFF799F9002801D1042DF5D070BD78
S1131A50C0224369920413408022002092049342DE
S1131A6001D1E12080007047F8B506000C00151E76
S1131A7001D10020F8BDFFF7DDFF0028FAD1802353
S1131A8080276A1ED2B25B00134333666519FF01D7
S1131A90A542EED030007169FFF76EF90028E9D154
S1131AA0336F3B42F6D123700134F1E770B5050082
S1131AB00C008E18B44201D1002070BD2800FFF73D
S1131AC0B9FF0028F9D1237801342B66F2E710B569
S1131AD014220021040000F04AF8E1235B02236091
S1131AE000236360A360E360238210BD802310B5EC
S1131AF08A181B04914206D18023DB0342691A42EF
S1131B00FCD0002010BD44691C42FCD00C7801318B
S1131B10C461EFE7704770B50D0004000422002192
S1131B20280000F024F8EFF3108272B663680133E2
S1131B30636082F3108800202C6070BD10B5FFF73D
S1131B4079FC10BD10B5FFF701FD10BD10B5FFF70E
S1131B503FFD10BD10B5FFF755FD10BD002310B5B6
S1131B609A4200D110BDCC5CC4540133F8E70300A1
S1131B708218934200D1704719700133F9E70023AA
S1131B80C25C0133002AFBD1581E7047006CDC0292
S1131B9000751903007E56030087930380841E009A
S1131BA000127A0000A10F4004A10F4008A10740D1
S1131BB010A10F4014A10F4018A1074000400C4091
S1131BC000500C40006004400100000001000100CE
S1131BD000000000050000000000020101000003F5
S1131BE00101010000000000A086010000000000C7
S1131BF0000000000000000001000000426C616E63
S1131C006B696E67204652414D20286368756E6B80
S1131C1073697A653D2564206279746573293A0D88
S1131C200A00446F6E652065726173696E672046B1
S1131C3052414D202D20766572696679696E672060
S1131C402E2E2E0D0A00504153533A204652414D38
S1131C50206973207375636365737366756C6C793F
S1131C6020657261736564202E2E2E0D0A00464194
S1131C70494C3A204652414D206973204E4F54201E
S1131C80626C616E6B21212028616C6C207A657214
S1131C906F6573290D0A002E000D0A0D0A00FFFF5F
S1131CA0FFFFFFFFFFFFFFFFFFFFFFFFFFFFFFFF40
S1131CB0FFFFFFFFFFFFFFFFFFFFFFFFFFFFFFFF30
S1131CC0FFFFFFFFFFFFFFFFFFFFFFFFFFFFFFFF20
S1131CD0FFFFFFFFFFFFFFFFFFFFFFFFFFFFFFFF10
S1131CE0FFFFFFFFFFFFFFFFFFFFFFFFFFFFFFFF00
S1131CF0FFFFFFFFFFFFFFFFFFFFFFFFFFFFFFFFF0
S1131D00FFFFFFFFFFFFFFFFFFFFFFFFFFFFFFFFDF
S1131D10FFFFFFFFFFFFFFFFFFFFFFFFFFFFFFFFCF
S1131D20FFFFFFFFFFFFFFFFFFFFFFFFFFFFFFFFBF
S1131D30FFFFFFFFFFFFFFFFFFFFFFFFFFFFFFFFAF
S1131D40FFFFFFFFFFFFFFFFFFFFFFFFFFFFFFFF9F
S1131D50FFFFFFFFFFFFFFFFFFFFFFFFFFFFFFFF8F
S1131D60FFFFFFFFFFFFFFFFFFFFFFFFFFFFFFFF7F
S1131D70FFFFFFFFFFFFFFFFFFFFFFFFFFFFFFFF6F
S1131D80FFFFFFFFFFFFFFFFFFFFFFFFFFFFFFFF5F
S1131D90FFFFFFFFFFFFFFFFFFFFFFFFFFFF00FF4E
S1071DA000127A00AF
S9030135C6
